:020000040800F2
:100000002807002001010008972A00085F21000846
:10001000952A00083F060008DD31000800000000B6
:10002000000000000000000000000000D52B0008C8
:100030006906000800000000992A0008D72B000874
:100040001B0100081B0100081B0100081B01000820
:100050001B0100081B0100081B0100081B01000810
:100060001B0100081B0100081B0100081B01000800
:100070001B0100081B0100081B0100081B010008F0
:100080001B0100081B0100081B0100081B010008E0
:100090001B0100081B0100081B0100081B010008D0
:1000A0001B0100081B0100081B0100081B010008C0
:1000B000712C00087D2C0008892C00081B01000809
:1000C0001B0100081B0100081B0100089D2A0008F5
:1000D000A92A0008D13100081B0100081B010008F3
:1000E0001B0100081B0100081B010008DFF80CD0F1
:1000F00000F032FA00480047E932000828070020E3
:100100000648804706480047FEE7FEE7FEE7FEE7B1
:10011000FEE7FEE7FEE7FEE7FEE7FEE7292C000824
:10012000ED0000082DE9F05F0546002092469B4651
:1001300088460646814640241BE0284641464746FD
:10014000224600F020F853465A46C01A914110D377
:1001500011461846224600F024F92D1A67EB0108D3
:100160004F4622460120002100F01BF917EB000941
:100170004E41201EA4F10104DFDC484631462A46E8
:100180004346BDE8F09F202A04DB203A21FA02F022
:100190000021704721FA02F3D040C2F120029140C1
:1001A00008431946704740EA01039B0703D009E062
:1001B00008C9121F08C0042AFAD203E011F8013B53
:1001C00000F8013B521EF9D27047D2B201E000F8AC
:1001D000012B491EFBD270470022F6E710B51346EB
:1001E0000A4604461946FFF7F0FF204610BD70B5D9
:1001F000064603F005F8046805460A220021304649
:1002000000F0DEF82C6070BDF0B480EA0102D40F7B
:100210004200B2EB410F02D20246084611464A00A4
:1002200042D0C30DDDB2C1F3C752AD1A202D35DA6D
:10023000C1F3160141F4000204B15242C5F1200697
:1002400002FA06F12A411044B3EBD05F23D0C4B1C7
:10025000012DA0EBC35009DCF0BC4FF0004202EAD4
:10026000C352DBB200F5000000F0EBB8400000F133
:10027000807000EBC350A0F1807040EAD17049005B
:1002800009E0490841EAC071A0EBC35000F5000045
:10029000400800EBC350F0BC00F0CAB86142012234
:1002A00002EB4101001BF6E7F0BC704781F0004112
:1002B000AAE780F00040A7E780EA010210B502F04B
:1002C0000043400022D04A001FD0010E01EB126112
:1002D000C0F35600C2F3560240F4000042F400029C
:1002E000A0FB022000047F39140400D0401C50EA17
:1002F000124001D44000491EC2B20C0604EBD010DB
:10030000401C4008802A02D003E0002010BD20F0ED
:100310000100002900DA0020184310BD96230022B6
:10032000114600F08EB80EB5C10F80EAE0700844A7
:10033000CA07002140F233438DE80E000A460B46FF
:1003400000F0BCF803B000BD20F00040C10DC0F3C8
:10035000160040F400007F2901DA0020704796293A
:1003600003DCC1F19601C840704796398840704758
:10037000C1F30A5210B5C1F3130140F2FF3341F447
:1003800080119A4201DA002010BD40F233439A42B4
:10039000A2F2334203DC5242FFF7F5FE10BD90405B
:1003A00010BD202A04DB203A00FA02F10020704739
:1003B0009140C2F1200320FA03F3194390407047A3
:1003C0002DE9F04791460F4680460446002614F872
:1003D000015B2DB100F0D2F80068405DC007F6D196
:1003E0002B2D02D02D2D18D0641E4A4639462046AA
:1003F00000F0C8F827B13968A14201D1C7F80080E0
:1004000071054FF002040BD54042002803DD02F0D5
:10041000F7FE0460A007BDE8F08746F48066E4E7D5
:100420000028F8DA02F0ECFE04606FF00040F2E71A
:100430000029A8BF7047401C490008BF20F00100F8
:10044000704710B4B0FA80FC00FA0CF050EA0104D6
:1004500004BF10BC704749B1CCF1200421FA04F468
:1004600011FA0CF118BF012121430843A3EB0C0141
:10047000CB1D4FEA00614FEA102042BF002010BCA4
:10048000704700EBC35010440029A4BF10BC704754
:10049000401C490008BF20F0010010BC704710B597
:1004A000141E73F1000408DA401C41F10001921897
:1004B0005B411A4301D120F0010010BD2DE9F04D40
:1004C00092469B4611B1B1FA81F202E0B0FA80F295
:1004D00020329046FFF765FF04460F4640EA0A00C7
:1004E00041EA0B0153465A46084313D0114653EADA
:1004F000010019D0C8F140025046FFF744FE0546FE
:100500000E46504659464246FFF74BFF084305D07A
:10051000012004E020463946BDE8F08D0020054367
:1005200046EAE0762C4337430A986305E40AA0EBD9
:1005300008000022FD0A44EA47540A3002D5002090
:100540000146E9E7010510196941DDE9084500198F
:100550006941BDE8F04DA2E7064C074D06E0E068B2
:1005600040F0010394E8070098471034AC42F6D3FA
:10057000FFF7C0FDDC4B0008FC4B0008004870474B
:10058000D84B00082DE9F05F824600780027154619
:100590008B460AF10104B946302801D09DB113E021
:1005A00014F8010B0127782803D0582801D045B151
:1005B0000AE00DB1102D07D10027102514F8010B0A
:1005C00002E0082500E00A250026B0460EE005FB03
:1005D000080005FB06F1012701EB10461FFA80F821
:1005E000B6F5803F00D3B94614F8010B294600F058
:1005F00018F80028EBDABBF1000F05D00FB1641E2C
:1006000000E05446CBF80040B9F1000F06D002F0EC
:10061000F7FD02210160C81EBDE8F09F48EA0640D0
:10062000FAE73A2800D2303820F02002412A01D3DC
:10063000A2F13700884201D34FF0FF307047FEE748
:100640000548044981600549C160054901610549C2
:10065000416170471347493E2401002015BC1C3EF0
:10066000B337D5C33C0DACC37047000010B590F84C
:1006700021100024022903D00421816301243DE0DC
:1006800001680A6822F00E020A6001680A6822F016
:1006900001020A601A4A0168914201D1012121E058
:1006A000174A1432914201D110211BE0144A28321A
:1006B000914201D1891515E0114A3C32914201D194
:1006C00089140FE00E4A5032914202D14FF480312A
:1006D00008E00B4A6432914202D14FF4801101E0EC
:1006E0004FF08071064A083A5160012180F82110CC
:1006F000002180F82010416B01B18847204610BDD1
:100700000800024070B5044600F010F90546601C70
:1007100002D004480078044400F008F9401BA042CD
:10072000FAD370BD600000202DE9F84FDFF8B891D2
:10073000002409F1040A0AF1040B23460F270BF1E8
:10074000040EC9E00125A5402A40AA427DD1674E8A
:10075000D1F804C0ACEB0608B44532D014DCBCF1CF
:10076000030F3AD009DCBCF1000F2AD0BCF1010F15
:100770001CD0BCF1020F31D11DE0BCF1110F17D01C
:10078000BCF1120F2AD119E0B8F5881F19D006DC88
:10079000B8F5803F15D0B8F5801F1FD111E0B8F52E
:1007A000001F0ED0B8F5041F18D10AE0CB6815E081
:1007B000CB681B1D12E0CB6808330FE0CB680C330D
:1007C0000CE08B682BB1012B4FF0080303D045617F
:1007D00004E0042302E0056100E00023FF2A01D8C1
:1007E000064601E000F104064FEA840501D9A5F1AF
:1007F0002005D6F8008007FA05FC28EA0C0803FA61
:1008000005F548EA0508C6F800804D68ED0062D598
:10081000374DAE6946F00106AE61AD6924F00306BE
:1008200005F001050095334D06EB050CDCF808508A
:10083000A607360F07FA06F825EA0805DFF8B8809C
:10084000404503D14FF0000817E044E0DFF8AC80EA
:10085000404502D14FF001080FE0DFF8A480404589
:1008600002D14FF0020808E0DFF89880404502D13D
:100870004FF0030801E04FF0040808FA06F848EAD0
:100880000508CCF808804D68D9F80060ED034D46A6
:1008900001D5164300E096432E604D68DAF80060FB
:1008A000AD03554601D5164300E096432E604D68D2
:1008B000DBF80060ED025D4601D5164300E096438B
:1008C0002E604D68DEF80060AD02754601D5164316
:1008D00000E096432E60641C0D682A46E5407FF4D4
:1008E00031AFBDE8F88F0000000401400000111096
:1008F000001002400000014000080140000C0140CF
:1009000000100140001401408068084000D0012020
:100910007047C2680A4201D0416170470161704767
:100920000AB1016170470904FBE7000001488068D3
:10093000704700006000002002488168027811447E
:100940008160704760000020074810B5016841F0E1
:1009500010010160032000F075F8002000F006F897
:1009600000F024F8002010BD0020024070B50D4DAD
:1009700004464FF47A712878B1FBF0F00A4909680F
:10098000B1FBF0F000F053FE48B9102C07D2002262
:100990002146501E00F036F800206C6070BD01202A
:1009A00070BD0000600000206C0000200C4808B5FD
:1009B000816941F001018161816901F001010091CA
:1009C000C16941F08051C161C06900F08050009060
:1009D0000448416821F0E06141F00071416008BDC8
:1009E0000010024000000140002809DB00F01F0257
:1009F000012191404009800000F1E020C0F8001181
:100A000070470000F0B40E4B1B680C46C3F3022382
:100A1000C3F10705042D00D90425191D072901D2AA
:100A2000002300E0DB1E012606FA05F1491E2140E5
:100A300099409E40761E16403143F0BC02F0CFBB79
:100A40000CED00E0064900F0070208684FF6FF03CE
:100A5000184040EA0220034A104308607047000033
:100A60000CED00E00000FA052DE9F0470F46050007
:100A700061D0434E306800F00700B84209D23068B8
:100A800020F0070038433060306800F00700B842BB
:100A900051D128683B4C810712D5400703D56068C7
:100AA00040F4E06060602878000703D5606840F497
:100AB000605060606068A96820F0F00008436060E2
:100AC0002878C00728D06868012810D0216802283B
:100AD00010D0890700292EDA616821F00301014353
:100AE0006160FFF723FF804641F288390DE02168FD
:100AF0008903EFE78901EDE7FFF718FFA0EB080195
:100B0000494502D90320BDE8F0876068696800F0B4
:100B10000C00B0EB810FEFD1306800F00700B84255
:100B20000BD9306820F0070038433060306800F09F
:100B30000700B84201D00120E5E72878400705D535
:100B40006068E96820F4E060084360602878000786
:100B500006D56068296920F4605040EAC1006060F1
:100B600000F038F86168084AC1F30311515CC840CD
:100B70000649086006480068FFF7F8FE0020C2E753
:100B800000200240001002403C4B00086C00002096
:100B9000640000200448054900684968044AC1F31C
:100BA0000221515CC84070476C00002000100240D8
:100BB0004C4B00080448054900684968044AC1F3E1
:100BC000C221515CC84070476C00002000100240F8
:100BD0004C4B000812A185B00FC98DE80F0014A07E
:100BE000144A006804905168134801F00C03042B68
:100BF00010D0082B0ED1C1F38343C9031DF80300A5
:100C00000AD5516804AAC1F34041515C0A4A5043D5
:100C1000B0FBF1F005B0704708494843FAE700001F
:100C200002030405060708090A0B0C0D0E0F10102D
:100C3000010200000010024000127A0000093D008D
:100C40002DE9F84F040070D02078C04DC00749D07E
:100C50006868C0F38100012807D06868C0F381008C
:100C6000022809D16868C00306D52868800339D5F1
:100C700060680028E7D035E06068B0F5803F0BD0B1
:100C800010B1B0F5A02F11D0286820F48030286072
:100C9000286820F4802002E0286840F48030286032
:100CA000606890B1FFF742FE06460AE0286840F40B
:100CB00080202860F0E700BFFFF738FE801B642823
:100CC00073D828688003F7D50CE0FFF72FFE06469F
:100CD00005E000BFFFF72AFE801B6428F0D82868D3
:100CE0008003F7D420789A4E80074FF001094FF027
:100CF000000839D5686810F00C0F07D06868C0F399
:100D00008100022809D16868C00306D428688007DA
:100D100014D52069012808D110E02069B0B1C6F8C7
:100D20000090FFF703FE074605E00AE1FFF7FEFD2E
:100D3000C01B0228C4D828688007F7D528686169D5
:100D400020F0F80040EAC10028600DE0C6F80080FD
:100D5000FFF7ECFD074604E0FFF7E8FDC01B0228A3
:100D600023D828688007F7D4207800072CD5794845
:100D7000A169D9B1C0F80090FFF7D8FD074604E09B
:100D8000FFF7D4FDC01B02280FD8686A8007F7D58B
:100D900071484FF4FA510068B0FBF1F0009000BFC9
:100DA0000098411E0091FAD20EE080E0C0F8008069
:100DB000FFF7BCFD074604E0FFF7B8FDC01B0228A3
:100DC00075D8686A8007F7D42078400760D5E8694D
:100DD0000027C00008D4E86940F08050E861E86965
:100DE000012700F0805000905C480168C90513D4C9
:100DF0000168834641F480710160FFF797FD8246E8
:100E000006E000BFFFF792FDA0EB0A0064284ED871
:100E1000DBF80000C005F5D5E06801280AD008B16C
:100E2000052813D0286A20F001002862286A20F0E3
:100E3000040002E0286A40F001002862E06841F204
:100E4000883B98B1FFF772FD82460BE0286A40F0BC
:100E500004002862EEE700BFFFF768FDA0EB0A017F
:100E600059455AD8286A8007F6D50CE0FFF75EFD91
:100E7000824605E0FFF75AFDA0EB0A0159454CD820
:100E8000286A8007F6D41FB1E86920F08050E86135
:100E9000E06988B36968C1F38101022944D002285E
:100EA000C6F8608004D0FFF741FD044638E034E026
:100EB000FFF73CFD074604E0FFF738FDC01B0228A2
:100EC0002BD828688001F7D4206AB0F5803F05D17F
:100ED0006868A16820F4003008436860D4E908011C
:100EE0000843696821F4741108436860C6F860908B
:100EF000FFF71CFD044606E025E000BFFFF716FDE6
:100F0000001B022809D828688001F7D51BE000BF24
:100F1000FFF70CFD001B022802D90320BDE8F88F63
:100F200028688001F4D40EE00128F7D06868226AAE
:100F300000F48031914204D1616A00F4701088425B
:100F400001D00120EAE70020E8E70000001002409D
:100F500000004242800442426C00002000700040C9
:100F60007047000038B50446006842688168C9438C
:100F70004B0606D5CB0704D1D3435B0601D4216CC5
:100F800005E08B0708D4D3431B0605D4616C01B080
:100F90002046BDE8304008478B0601D54B0646D4B5
:100FA000D3439B0643D44B060AD494F85130032B09
:100FB0003ED0636D43F004036365C36883680093A8
:100FC000890609D4616D41F0010161658168009174
:100FD000016821F040010160606D002827D0206881
:100FE000416821F0E0014160012084F85100900740
:100FF00022D02068416821F003014160104DE06C6F
:1010000040B14563E06CFFF731FB18B1606D40F013
:1010100040006065A06C002809D04563A06CFFF714
:1010200025FB002803D0606D40F04000606538BDAE
:10103000C1688068009038BD2046FFF791FF38BD39
:10104000B52A000870B5040005D00025A56294F803
:10105000510010B106E0012070BD84F850502046C8
:1010600000F02EF8022084F851002068016821F079
:1010700040010160D4E901010843D4E9031211439E
:10108000084361690843218B01F400710843E16959
:101090000843216A0843A16A084321680860A069DF
:1010A000042101EA1040216848602068C16921F4E8
:1010B0000061C1616565012084F85100002070BDA8
:1010C00030B585B0002400940194029403942F4D10
:1010D00003682F4802210322AB4227D1836943F4DE
:1010E00080538361836903F480530493836943F0DD
:1010F000040383618069274D00F004000490A02060
:10110000CDE90001039269462846FFF70DFB402018
:10111000CDE90004694628460294FFF705FB00224A
:1011200011462320FFF76EFC23202BE01A4DAB4223
:101130002AD1C36943F48043C361C36903F4804384
:101140000493836943F0080383618069134D00F0C1
:10115000080004904FF42040CDE900010392694655
:101160002846FFF7E1FA4FF48040CDE900046946D4
:1011700028460294FFF7D8FA002211462420FFF7F0
:1011800041FC2420FFF730FC05B030BD00300140A9
:10119000001002400008014000380040000C0140EF
:1011A0002DE9F84F044640680025984616460F463C
:1011B0004FF0040BB0F5827F01D1A06888B194F89C
:1011C0005000012818D0012084F85000FFF7AEFB32
:1011D000814694F851004FF0000A01280ED00225F4
:1011E0007DE084F851B013460A462046CDF80080D1
:1011F00000F02CF9BDE8F88F0220FBE7002F6DD03E
:10120000002E6BD084F851B0C4F854A0A763A68711
:10121000E687C4F830A0A4F834A0A4F836A0C4F837
:1012200040A0C4F844A0A068B0F5004F04D12068E5
:10123000016821F48041016020680168490603D4F7
:10124000016841F040010160E068D8B139E02068F0
:101250008168C90709D0007BA16B0870A06B401C96
:10126000A063E08F401EE0870CE0FFF75FFBA0EB80
:101270000901414503D3B8F1FF3F03D036E0B8F18F
:10128000000F33D0E08F0028E1D11DE02068816895
:10129000C90709D0C068A16B0880A06B801CA0633F
:1012A000E08F401EE0870CE0FFF740FBA0EB090158
:1012B000414503D3B8F1FF3F03D017E0B8F1000F69
:1012C00014D0E08F0028E1D14A464146204601F083
:1012D000F9FB08B120206065606D00B10125012097
:1012E00084F8510084F850A0284683E70325F6E7E8
:1012F0002DE9F84F044690F8500000271D46164689
:10130000894601280DD04FF0010B84F850B0FFF74B
:101310000DFB804694F85100BA46012804D00227FC
:101320008EE00220BDE8F88FB9F1000F7DD0002ECD
:101330007BD0032084F85100C4F854A0C4F8309046
:10134000A686E686C4F838A0A4F83CA0A4F83EA07F
:10135000C4F844A0C4F840A0A068B0F5004F04D180
:101360002068016841F480410160206801684906F5
:1013700003D4016841F040010160E068B0F5006FFE
:10138000606803D030B3012E24D040E008B1012EB4
:101390001CD1206B21680088C86006E02068816845
:1013A000890709D5216B0988C160206B801C2063E7
:1013B000E08E401EE08609E0FFF7B8FAA0EB0800D7
:1013C000A84202D3681C01D031E07DB3E08E002832
:1013D000E4D11FE0206B21680078087306E02068E4
:1013E0008168890709D5216B09780173206B401C3E
:1013F0002063E08E401EE08609E0FFF797FAA0EB3D
:101400000800A84202D3681C01D010E075B1E08E3C
:101410000028E4D142462946204601F081FB08B16C
:1014200020206065A06820B107E008E0FFE70327FF
:1014300006E02068C16880680090606D00B10127F7
:1014400084F851B084F850A038466BE72DE9F84F86
:10145000044690F8500000270A9E1D4692468B468F
:101460004FF0010901280ED0012084F85000FFF749
:101470005DFA804694F85100616801280CD0B1F5FE
:10148000827F07D102E00220BDE8F88FA16809B988
:10149000042801D00227C2E0BBF1000F27D0BAF127
:1014A000000F24D01DB394F85100042802D0052069
:1014B00084F8510000206065C4F838A0E587A5874E
:1014C000C4F830B0E586A5862064606420680168B1
:1014D000490603D4016841F040010160E068B0F5BD
:1014E000006F606805D0E8B3012D46D07FE001278A
:1014F00095E008B1012D39D1206B21680088C860C2
:10150000206B801C2063E08E401EE0862EE0206869
:10151000816889070FD5E18E69B1B9F1010F0AD150
:10152000216B0988C160206B801C2063E08E401E07
:10153000E0864FF0000920688168C9070CD0E18F70
:1015400051B1C068A16B0880A06B801CA063E08FC4
:10155000401EE0874FF00109FFF7E8F9A0EB080013
:10156000B04200E009E001D3701C50D1E08E0028A9
:10157000CDD1E08F0028CAD13FE0206B21680078F0
:101580000873206B401C2063E08E401EE0862EE036
:101590002068816889070FD5E18E69B1B9F1010F23
:1015A0000AD1216B09780173206B401C2063E08E07
:1015B000401EE0864FF0000920688168C9070CD002
:1015C000E18F51B1C068A16B0870A06B401CA06393
:1015D000E08F401EE0874FF00109FFF7A7F9A0EB6D
:1015E0000800B04202D3701C01D010E07EB1E08E42
:1015F0000028CDD1E08F0028CAD14246314620468E
:1016000001F08EFA28B101272020606507E003274A
:1016100005E0A06818B92068C168806800900120C2
:1016200084F85100002084F8500038462CE710B5AB
:10163000401EB0F1807F01D3012010BD4FF0E024A7
:1016400060610F21601701F0CAFD0020A061072032
:101650002061002010BD7047704770B590F83C20A5
:10166000012A19D0012400F83C4F0222427050F8A0
:101670003C3C5A689D6822F070060A68496832430B
:1016800025F0800529435A6050F83C2C9160447045
:1016900000210170084670BD022070BD10B5040025
:1016A00003D094F83D0010B107E0012010BD0020E8
:1016B00084F83C00204600F00DF8022084F83D003C
:1016C000211D206801F0E6FA012084F83D00002089
:1016D00010BD000000B585B000210091019102917C
:1016E00003911B4A01681B4891420ED1C16941F028
:1016F0000201C161C069002200F00200049011469D
:101700001D20FFF77FF91D201EE0134A91421DD1D5
:10171000C16941F00401C161C16901F00401049192
:10172000816941F0080181618069694600F0080023
:101730000490402000900948FEF7F6FF0022114671
:101740001E20FFF75FF91E20FFF74EF905B000BD20
:10175000000400400010024000080040000C01405E
:101760000168CA6842F00102CA600068816801F03D
:101770000701062903D0016841F001010160002042
:1017800070470168CA6822F00102CA600068016AF5
:1017900041F21112114207D1016A9210114203D194
:1017A000016821F0010101600020704770B5044616
:1017B00090F83C00012817D0012584F83C50022005
:1017C00084F83D002068826822F0770222F47F428C
:1017D00082600868502830D00DDC20284DD005DC10
:1017E00098B310283BD148E0022070BD302844D087
:1017F000402834D139E0602828D0702806D0B0F5D0
:10180000805F2CD0B0F5005F29D10AE0CB68D1E928
:101810000121206801F081FA2068816841F0770198
:1018200009E0CB68D1E90121206801F076FA20684F
:10183000816841F48041816011E0CA68496820688C
:1018400001F07DFA5021206807E016E0CA68496877
:10185000206801F0B1FA6021206801F068FA84F88C
:101860003D50002084F83C0070BDCA68496820687B
:1018700001F065FA40212068EFE722680146104632
:10188000EBE72DE9F0410D46040003D094F83D004C
:1018900018B108E00120BDE8F081002084F83C0088
:1018A000204600F03BF8022084F83D002068816863
:1018B00044F2070291438160211D206801F0EAF99A
:1018C000226890689169166A2B68AF69034340F2F9
:1018D0000330814341EA0721A868EF6908434FF6C6
:1018E000FC418843E96840EA0720014328692F6AE0
:1018F000000140EA0730084369686D6926F0220656
:1019000046EA0515294393602268906120680162C8
:10191000012084F83D000020BDE7000000B585B03F
:10192000002100910191029103910068B0F1804F74
:101930001ED11048C16941F00101C161C16901F0C6
:1019400001010491816941F0040181618069694666
:1019500000F004000490032000900748FEF7E4FE26
:10196000002211461C20FFF74DF81C20FFF73CF821
:1019700005B000BD001002400008014010B504464B
:10198000006891B1042904D00122002101F0B8F9C6
:10199000206801225FF0040101F0B2F920680168BB
:1019A00041F001010160002010BD01220021F3E798
:1019B0002DE9F04101681E480668B14235D1706BCF
:1019C0002823A0FB032700251A4C05FB0373C4E959
:1019D0000E0500FB053318482946FEF7A3FBD4E9A2
:1019E0000A2380185941C4E90A01A278282A02D2A0
:1019F000521CA27018E028220023FEF793FB00225D
:101A0000C4E90C01C4E90A22A570A189081A41B2EF
:101A1000A17149B1607838B106480029C06901DD7B
:101A2000401E00E0401CE0617562BDE8F0810000EE
:101A3000A402002020000020008793032DE9F0413C
:101A4000044690F83C000D4601283BD0012684F85E
:101A50003C60022084F83D009AB3042A44D02068F8
:101A6000082A53D0D5E90027E968036A23F4805394
:101A70000362D0F81CC0036A2CF4407C4CEA0727B0
:101A80004FF6FF7C27F470470CEA013139437703A6
:101A900023F4005307EA02321A43C161026220684C
:101AA000C16921F44061C1612068C169AA6841EA45
:101AB0000221C16184F83D60002084F83C00BDE84B
:101AC000F08101E00220FAE7D5E90012EB68206816
:101AD00001F046F92068816921F00C0181612068DC
:101AE0008169AA6811430FE0D5E90012EB6820680C
:101AF00001F074F92068816921F4406181612068F6
:101B00008169AA6841EA02218161D3E7D5E9002C05
:101B10002F7B016A21F480710162C169036A21F09F
:101B2000030141EA0C0121F0F00C39074FF4007772
:101B30004CEA116123F4007307EA02221A43C161DF
:101B400002622068C16921F00C01C1612068C1698D
:101B5000AA681143ADE710B5040003D094F83D0026
:101B600010B107E0012010BD002084F83C002046A1
:101B700000F00CF8022084F83D00211D206801F0DF
:101B800089F8012084F83D00002010BD704710B591
:101B90000268044631B1042908D008291AD00C295A
:101BA00008D11BE0D06840F0020002E0D06840F0AD
:101BB0000400D0600122206801F0A2F8206881684A
:101BC00001F00701062903D0016841F0010101601D
:101BD000002010BDD06840F00800EAE7D06840F06F
:101BE0001000E6E710B50268044631B1042908D0B8
:101BF00008291ED00C2908D11FE0D06820F002006F
:101C000002E0D06820F00400D0600022206801F0DB
:101C100077F82068016A41F21112114207D1016A76
:101C20009210114203D1016821F0010101600020EE
:101C300010BDD06820F00800E6E7D06820F0100062
:101C4000E2E770B50446006801694FF00005C9433A
:101C5000890715D4C168C943890711D4E91E0161F8
:101C600001202077206880698007204602D0FFF796
:101C70009FFE04E000F098F8204600F096F82577E3
:101C800020680169C943490717D4C168C943490796
:101C900013D46FF00401016102202077206880696D
:101CA00010F4407F204602D0FFF782FE04E000F0EF
:101CB0007BF8204600F079F8257720680169C94350
:101CC000090716D4C168C943090712D46FF0080187
:101CD0000161042020772068C0698007204602D077
:101CE000FFF766FE04E000F05FF8204600F05DF8C4
:101CF000257720680169C943C90617D4C168C9435B
:101D0000C90613D46FF01001016108202077206804
:101D1000C06910F4407F204602D0FFF749FE04E07E
:101D200000F042F8204600F040F82577206801696D
:101D3000C943C90708D1C168C943C90704D1891E6D
:101D40000161204600F032F820680169C9430906A4
:101D500009D4C168C943090605D46FF08001016147
:101D60002046FFF778FC20680169C943490609D479
:101D7000C168C943490605D46FF04001016120469E
:101D800000F034F820680169C94389060BD4C168A2
:101D9000C943890607D46FF0200101612046BDE8E0
:101DA0007040FFF759BC70BD7047704710B50C49C3
:101DB00000680968884212D110210A48FEF7A9FD7F
:101DC0000948017900290AD04189491E09B2418197
:101DD000002904D1BDE810400148FFF7D2BC10BD76
:101DE00064020020000C0140200000207047704772
:101DF00070B5026804461068D168536910F00F0F7F
:101E000050D003F0010501F4907635435DD0C20750
:101E100005D0CA0503D5E26B42F00102E263420736
:101E200005D5DA0703D0E26B42F00202E2638207D3
:101E300005D5DA0703D0E26B42F00402E263020741
:101E400005D5DA0703D0E26B42F00802E263E26BE9
:101E5000002A33D0800604D5880602D5204601F03A
:101E6000DDF820684069E16BC0F38010090700D4F9
:101E700028B3204601F0C4F82068416949061AD504
:101E8000416921F040014161606BA0B11B49416390
:101E9000606BFEF7EBFB002810D0606B416BBDE878
:101EA00070400847830610D58B060ED52046BDE846
:101EB000704001F0B3B82046FFF799FF70BD20468F
:101EC000FFF795FF0020E06370BD030606D50B0603
:101ED00004D52046BDE8704001F048B94006F3D56E
:101EE0004806F1D5D168204621F04001D16020217B
:101EF00084F8391000F032F970BD0000F12F0008AD
:101F000070B5040004D094F83900002510B106E043
:101F1000012070BD84F83850204600F023F82420BA
:101F200084F839002068C16821F40051C16020465E
:101F300001F0C0F82068016921F490410161206836
:101F4000416921F02A0141612068C16841F40051D2
:101F5000C160E563202084F8390084F83A0000204D
:101F600070BD000030B585B0002400940194029447
:101F700003940068184988422CD11848816941F4BB
:101F800080418161816901F480410491816941F05E
:101F9000040181618069124D00F0040004904FF447
:101FA00000700090022001900320039069462846AB
:101FB000FEF7BAFB2815CDE90004694628460294CD
:101FC000FEF7B2FB002211462520FEF71BFD25205F
:101FD000FEF70AFD05B030BD003801400010024098
:101FE0000008014090F83A30202B22D1F9B1F2B12B
:101FF00090F83830012B1CD081628285C285002187
:10200000C163222280F83A2080F838100168CA683B
:1020100042F48072CA6001684A6942F001024A6172
:102020000068C16841F02001C160002070470120B4
:1020300070470220704700002DE9F04143490068D5
:102040000968884273D1424C42490025E2782AB996
:1020500000200D54401CC0B23228FAD33C48143042
:1020600000780D2803D08854521CE27044E0E570DB
:10207000097801263848522914D04C2918D046290D
:102080001CD048291CD051291CD045291CD05329CB
:102090001CD021788515062928D2DFE801F0271AFF
:1020A0001C353C4901220821FEF73AFC667123E009
:1020B00000220821FEF734FC65711DE026701BE04C
:1020C000022004E0032002E0042000E0052020704C
:1020D00012E000222DE0002220210746FEF720FC1E
:1020E00000221EE029463846FEF71AFC1948FEF782
:1020F0007EF8400060812671BDE8F041144901225C
:1021000014311248FFF76EBF002220210746FEF768
:1021100007FC012212E0002220210746FEF700FC06
:10212000012280213846FEF7FBFB0122DAE70BE0B3
:10213000012220210746FEF7F3FB002280213846CA
:10214000FEF7EEFB0022CDE7BDE8F081E4020020BF
:102150002000002040010020000C01407047FEE7F5
:1021600010B514460B46024600F030F9200A00F084
:102170000FF9E0B2BDE8104000F00AB970B50546AD
:1021800010484FF4963440F23F120178012906D0EE
:10219000032904D0022905D0042903D007E01346FF
:1021A000EF2200E0EF230021084600F00FF92E0A8D
:1021B0003046641E00F0ECF8E8B200F0E9F8002CBC
:1021C000F6D170BD0000002070B5141A5E1A641CB0
:1021D000761C74434FF49636049DB44200D93446BD
:1021E0009BB292B289B280B200F0F0F82E0A06E0FB
:1021F0003046641E00F0CCF8E8B200F0C9F8002CBC
:10220000F6D170BD2DE9F047884608A9154691E83A
:10221000C0040146994658224C48FDF7C4FF4C4C77
:1022200040462946C4F808806580C4F80C90A68012
:102230000122FEF775FB2761A4F806A00122514692
:102240003846FEF76DFB012000F084F86420FEF7AD
:1022500059FA282000F07EF8C02000F07BF82620F4
:1022600000F096F8C12000F075F8112000F090F809
:10227000C52000F06FF8352000F08AF83E2000F00D
:1022800087F8C72000F066F8BE2000F081F83620FD
:1022900000F060F8482000F07BF83A2000F05AF88F
:1022A000552000F075F8B12000F054F8002000F03F
:1022B0006FF81F2000F06CF82A2000F04BF8002087
:1022C00000F066F8002000F063F8002000F060F8ED
:1022D000EF2000F05DF82B2000F03CF8002000F02B
:1022E00057F8002000F054F8012000F051F83F208A
:1022F00000F04EF8342000F02DF8B72000F02AF856
:10230000072000F045F8B62000F024F80A2000F07D
:102310003FF8822000F03CF8272000F039F8002038
:1023200000F036F8112000F015F86420FEF7EAF905
:10233000292000F00FF86420FEF7E4F92C2000F0CB
:1023400009F8BDE8F0470520FEF7DCB9740000206D
:102350000000002038B50C4C8DF800000022A18848
:10236000E068FEF7DDFA00226188A068FEF7D8FA7F
:102370000523012269460548FEF7BAFF012261885C
:10238000A068FEF7CDFA38BD0000002074000020E0
:1023900038B50C4C8DF800000122A188E068FEF7EA
:1023A000BFFA00226188A068FEF7BAFA052301226D
:1023B00069460548FEF79CFF01226188A068FEF788
:1023C000AFFA38BD00000020740000202DE9F04174
:1023D00007461C4615460E462A20FFF7BBFF380A63
:1023E000FFF7D6FFF8B2FFF7D3FF280AFFF7D0FFB9
:1023F000E8B2FFF7CDFF2B20FFF7ACFF300AFFF765
:10240000C7FFF0B2FFF7C4FF200AFFF7C1FFE0B239
:10241000FFF7BEFFBDE8F0412C20FFF79BBF000097
:102420002DE9FE4F9A463C4B88460D9C1978814613
:102430004FF4A07504EB4400012911D003290FD0FB
:10244000B8F1F00F5BDAA94559DA08EB4000012832
:1024500055D409EBC400012851D4587860B10FE07D
:10246000B9F1F00F4BDAA84549DA09EB4000012831
:1024700045D408EBC400EEE7B02A01D3521CD2B217
:1024800004EB0900029008F101000190234902EBDE
:102490008200002500EB010B01E0052D09D01BF89F
:1024A00005700026F8070ED0012C04D0CDF800A04E
:1024B0000FE00027F5E708EB060081B209EB050005
:1024C00080B2524624E00C9850450FD0012C18D011
:1024D0000090029806FB044105FB040201980B18CA
:1024E00006FB048105FB0490FFF76EFE761C7F0857
:1024F00076B2082ED6DB6D1C6DB2062DCDDBBDE8A5
:10250000FE8F08EB060081B209EB050080B20C9A41
:10251000FFF726FEEAE70000000000203C46000826
:1025200008B50244521E009312B20B4600F00AF89E
:1025300008BD08B50A44521E009313B2024600F0CB
:1025400001F808BD2DE9F05F0C4606461546191B3B
:10255000A2EB060000D54942002800DA4042814241
:1025600007DD304626461D464FF001080446134657
:1025700001E04FF00008AE4205DD30462E4605462C
:1025800020461C460346A81B0FFA80F9181B00D5ED
:1025900040420FFA80FB09EBD97047109C4201DAE8
:1025A000012001E04FF0FF30824617E0B8F1000F44
:1025B00002D0B1B2A0B201E0A1B2B0B20A9AFFF764
:1025C000CFFDA7EB0B0007B2002F05DA04EB0A00E2
:1025D00004B207EB090007B2761C36B2AE42E5DD65
:1025E000BDE8F09F2DE9FC4107461446012000EBB1
:1025F000440002B20D46081B01B21E463846FFF7E2
:1026000098FF0020CDE900060323224629463846DC
:1026100000F009FEBDE8FC812DE9F04F87B00D46C2
:10262000DDE910191E4614468046B54203DD2E46EC
:1026300044461D4690464E4505DD4846B146064691
:10264000084621460446B54205DD2846354606467D
:102650004046A04604464D4518D140464246844275
:1026600001DA204601E000DD2246814201DA084617
:1026700002E0914200DD0A46111A491C129B0AB27F
:1026800007B02946BDE8F04FFFF74ABFA4EB0800AA
:1026900000B20690701B00B20590A1EB080000B2DA
:1026A0000090A9EB050000B20390081B00B2029055
:1026B000A9EB060000B24FF0000BDA4604904E453D
:1026C00001D1019602E0701E00B201902F4625E074
:1026D0000599039A9BFBF1F19AFBF2F201EB0800DA
:1026E00002EB08010FFA81FC069A00B20BEB020123
:1026F000009A0FFA81FB0AEB02010FFA81FA60459A
:1027000002DD014660468C46ACEB0001491C0AB272
:102710003946129BFFF704FF7F1C3FB201988742A6
:10272000D6DD0299B81B484306B20098791B414395
:102730000DB21EE00498039996FBF0F095FBF1F2C0
:1027400002EB0801029B2044F21816B2009A00B274
:1027500009B22A4415B2884202DD024608461146F3
:10276000091A491C0AB23946129BFFF7D9FE7F1C91
:102770003FB24F45DEDD07B0BDE8F08F014800787D
:1027800070470000000000202DE9FC5F0746DDE9EE
:102790000C9606EB460045009B4692468846002470
:1027A0000DE000BF05FB0480CDE9009600B25B465A
:1027B0005146FFF735FE641CA4B2282C02D23A5DC4
:1027C000002AEFD1BDE8FC9F10B501221349012872
:1027D00005D0022809D003280ED0042813D00A708F
:1027E0003620FFF7B7FD882013E00220087036205E
:1027F000FFF7B0FD28200CE0032008703620FFF71B
:10280000A9FD482005E0042008703620FFF7A2FD4E
:10281000E820BDE81040FFF7BBBD0000000000202D
:102820002DE9F04786B000243148009401940294C9
:102830000394816941F010018161816901F0100107
:102840000491816941F020018161816901F02001D9
:102850000491816941F004018161816901F0040101
:102860000491816941F0080181618069DFF88490F9
:1028700000F00800049001221C214846FEF750F8A1
:102880000122DFF874A0170339465046FEF748F8D6
:102890004FF46E78002241465046FEF741F8F800AA
:1028A000CDE90004694615480294FDF73DFF1C2060
:1028B00001250326CDE90005CDE9024669464846D3
:1028C000FDF732FF0220CDE90240CDE900756946EF
:1028D0005046FDF729FFCDF800800396CDE901545D
:1028E00069465046FDF720FF06B0BDE8F0870000BE
:1028F0000010024000080140000C0140001001409F
:102900000C480B494FF4007201604FF48271416032
:1029100000218160C1600161C0E905120822C0E99F
:102920000721416281620A21C162FEF78BBB000070
:1029300000300140740100200C480B494FF4007234
:1029400001604FF48271416000218160C1600161CA
:10295000C0E905122022C0E90721416281620A21F3
:10296000C162FEF76FBB000000380040CC010020C0
:1029700010B58CB024216846FDF72EFC00241248C7
:1029800009944FF080410A94C0E900144FF6FF719A
:10299000C0E902418021046181610320CDE9000486
:1029A0000120CDE902040494CDE90540079469466D
:1029B00005480894FEF765FF099409A902480A949E
:1029C000FEF74BFE0CB010BD2402002010B586B0FF
:1029D00000241248009401940294039404940E4934
:1029E000059401601121C0E901144CF25031C0E995
:1029F00003148461FEF752FE4FF480500090694644
:102A00000648FEF7D3FE049404A904480594FEF793
:102A100024FE06B010BD0000000400406402002047
:102A200010B58AB000241A480494059406940794BB
:102A30000894099400940194029414490394016049
:102A40004721C0E901144FF6FF71C0E90314846106
:102A5000FEF724FE4FF48050049004A90C48FEF7C2
:102A6000A5FE0B48FFF777F8089408A908480994D1
:102A7000FEF7F3FD0120CDE90040029400226946F3
:102A800003480394FEF7DAFF0AB010BD00080040C7
:102A9000A4020020FEE77047704700000148FEF7DF
:102AA00061BA0000740100200148FEF75BBA000023
:102AB000CC01002010B5406A0021C187C186FEF715
:102AC0004FFA10BDF8B5044640684FF4827398423F
:102AD00017D1A0684FF48065B0F5004F01D0A8422F
:102AE0000FD12068066826F04006066060689842AC
:102AF00007D1A068A84204D100920B460022012110
:102B000003E000920B4600228021204600F018F8D6
:102B1000002804D0606D40F0200060650320F8BDFF
:102B200038B50B46009204460022802100F008F8D8
:102B3000002804D0606D40F020006065032038BD9F
:102B40002DE9F0411D4617460E460446DDF8188073
:102B500008E0681C06D0FDF7E9FEA0EB0800A842DB
:102B60000BD255B12068806836EA000030D00020D2
:102B7000B842EED10020BDE8F0812068416821F024
:102B8000E00141606068B0F5827F0BD1A068B0F5CC
:102B9000004F02D0B0F5806F04D12068016821F0A9
:102BA00040010160A06AB0F5005F09D120680168AA
:102BB00021F4005101602068016841F40051016076
:102BC000012084F85100002084F850000320D2E74F
:102BD0000120CDE77047FDF7AFBE30B58FB028219B
:102BE0006846FDF7F9FA14210AA8FDF7F5FA012164
:102BF0000804CDE900100024029402250491CDE9D7
:102C000007504FF4E01009906846FEF719F80F20BE
:102C1000CDE90A056802CDE90C4002210AA80E940C
:102C2000FDF722FF0FB030BD0D48016841F00101F2
:102C3000016041680B4A1140416001680A4A114035
:102C40000160016821F480210160416821F4FE01E6
:102C500041604FF41F0181600449C0030860704760
:102C6000001002400000FFF8FFFFF6FE08ED00E054
:102C70000148FEF7E6BF0000240200200148FEF7ED
:102C8000E0BF0000640200200148FEF7DABF000048
:102C9000A4020020F0B50268164B174C174D4FF0F8
:102CA0008047984205D0B84203D0A04201D0A84244
:102CB00003D122F070064A683243984205D0B842E8
:102CC00003D0A04201D0A84203D122F44074CA68C4
:102CD00022434C6922F08002224302608A68C26269
:102CE0000A688262984201D1096901630121416148
:102CF000F0BD0000002C014000040040000800402E
:102D000010B501F01F030121046A99408C4304624D
:102D1000016A9A401143016210BD10B5846842EA0D
:102D2000032224F47F440A432243826010BD826858
:102D300022F070020A4342F007018160704710B52B
:102D4000036A046A24F001040462846924F0F00434
:102D500044EA021423F00A020A438461026210BDAD
:102D600070B5046A24F0010404628469056A0F4E98
:102D7000B04208D0B0F1804F05D00D4EB04202D025
:102D80000C4EB04203D124F00304144301E044F09C
:102D900001041A0724F0F00444EA126225F00A0341
:102DA00001F00A0119438261016270BD002C0140EB
:102DB000000400400008004010B5036A23F010032F
:102DC00003628369046A23F4704343EA023224F005
:102DD000A00343EA01118261016210BD30B5046AAB
:102DE00024F0100404628469056A24F4407444EAFF
:102DF000022222F470444FF6FF7202EA03322243A9
:102E0000A02425F0A00304EA0111194382610162A4
:102E100030BD000070B50E461546014658220548E3
:102E2000FDF7C1F9044C66606580FFF7A7FC607090
:102E300070BD0000CC000020140000202DE9F047F8
:102E4000DFF88490E627214D99F8010009F1080484
:102E50004FF4A076012808D04FF0F00802280DD0DA
:102E6000032817D004282AD120E000F0A9F8A0F602
:102E7000FF704042208000F0ABF813E000F0A8F8AB
:102E8000A0F6FF704042208000F09AF8A0F6FF7094
:102E9000404210E000F094F8208000F099F8A0F68D
:102EA000FF70404260802F836E8308E000F090F84E
:102EB000208000F085F860802E83A5F81A80D9F86C
:102EC0000800BDE8F0870000140000202401002065
:102ED0002DE9FC47002781463E4600F081F8204C52
:102EE000322816D901208DF800000025A4F1080829
:102EF000FFF7A4FFC8F8080020886D1C384487B28B
:102F0000608815F0FF05304486B2F1D027806680D6
:102F100002E000208DF800002088FDF7FFF9114D38
:102F2000A968FDF7C9F92969FDF76EF9FDF70CFAF3
:102F3000ADF802006088FDF7F1F9E968FDF7BCF92A
:102F40006969FDF761F9FDF7FFF9ADF80400009933
:102F5000C9F80010BDF80410A9F80410BDE8FC87FA
:102F60001C0000202401002038B50546002004463E
:102F700002460090104841884068FDF7D1FC8DF86A
:102F800000500A23012269460C48FEF7B1F90320DC
:102F9000FDF7B8FB0A23022208480DF10101FEF7F4
:102FA000FFF830B99DF801009DF80210000100EB18
:102FB0001114204638BD000014000020CC00002071
:102FC0000248007840F05000FFF7CEBF1400002008
:102FD0000248007840F01000FFF7C6BF1400002040
:102FE0000248007840F03000FFF7BEBF1400002018
:102FF00010B5406A0021C185C184FEF7F8FE10BDFE
:103000000168CA6822F49072CA6001684A6922F0B5
:1030100001024A61202180F83A10704710B590F8FB
:103020003A10222901D0022010BD8168B1F5805FDD
:1030300011D00169002901681FD0496801F07F03A0
:10304000816A4A1C82620B70C18D491E0904090CF9
:10305000C18518D02BE00269816A002A0268526893
:1030600005D0D2B20A80816A491C8162ECE7C2F3C2
:1030700008020A80816A891CF7E74A68816A4B1C4A
:1030800083620A70E0E70168CA6822F02002CA6021
:103090000168CA6822F48072CA6001684A6922F035
:1030A00001024A61202180F83A10FEF7C5FF002096
:1030B00010BD00002DE9F041044600680169E26896
:1030C00021F44051114301612169A06808436169FD
:1030D00008432168CA6841F20C639A430243CA60FC
:1030E00020684169A26921F44071114341611E4980
:1030F000206864253226884202D1FDF75BFD01E09D
:10310000FDF748FD00EBC00101EB001160686FF0B6
:1031100018078000B1FBF0F2B2FBF5F2B1FBF0F35F
:103120007A4303EB8202B1FBF0F306EB0212B2FB2F
:10313000F5F2B3FBF5F302F0F00202EB0312B1FB80
:10314000F0F3B1FBF0F0B0FBF5F0784303EB800057
:1031500006EB0010B0FBF5F0216800F00F00104402
:103160008860BDE8F08100000038014090F8391017
:10317000212901D0022070478168B1F5805F016A82
:103180000BD04A1C0262026809785160C18C491E4A
:103190000904090CC1840ED017E009880268C1F344
:1031A0000801516001690029016A02D0491C0162CD
:1031B000ECE7891CFBE70168CA6822F08002CA605C
:1031C0000068C16841F04001C16000207047000004
:1031D0000148FEF70DBE0000E4020020FEE70907EB
:1031E000090E002804DB00F1E02080F8001470478D
:1031F00000F00F0000F1E02080F8141D704700007F
:10320000004870477000002002E008C8121F08C183
:10321000002AFAD170477047002001E001C1121F57
:10322000002AFBD170472DE9FF5F8146C2F1010002
:1032300006B2C2EBC2304000012788460FFA80FB7D
:1032400000251446DDF838A04AE0002E08DB0BF11B
:1032500002000FFA80FB641E06EB0B0024B206B2DC
:10326000BF1C6D1C3FB2F01906B203982DB2C00707
:1032700019D00AEB4400401C02B2A8EB040001B2D2
:1032800009EB050000B20F9BFFF753F90AEB45006D
:10329000401C02B2A8EB050001B209EB040000B229
:1032A0000F9BFFF746F90398800719D50AEB4400F6
:1032B000401C02B2A8EB040001B2A9EB050000B269
:1032C0000F9BFFF736F90AEB4500401C02B2A8EB52
:1032D000050001B2A9EB040000B20F9BFFF729F92A
:1032E000A542B2DBBDE8FF9F0EB5FDF72DFBFFF752
:1032F00074FCFFF795FAFFF703FBFFF71DFBFFF7E1
:1033000065FBFFF735FBFFF78BFB30482E490024A8
:1033100001604FF41651C0E901140C21C460C0E9EA
:1033200004418461C461FEF7EBFD29490822CDE91F
:103330000021042002900B4610222648FEF762FF6F
:103340000220FFF741FA23484FF4805222495830B7
:10335000FFF760FDFDF774F90020FEF70FFF4FF651
:10336000E0752B4632227821A020FFF73BF900239D
:1033700028227821A020FFF735F95A23AF224621D1
:1033800091200094FEF720FF7823A5223C219B206A
:103390000095FEF719FF114D05F120046846FFF76F
:1033A00097FD00982862BDF80400A88421780029C0
:1033B000F4D061886E396429F0D24628EED3AA2869
:1033C000ECD200F059FE000000380140E402002079
:1033D0000008014074010020000C01402000002082
:1033E0000EB5FF494FF4FA500968C862FD4D00263A
:1033F000FD4F2E716E8101242C70324620213846FB
:10340000FDF78EFA002280213846FDF789FA002266
:1034100021023846FDF784FA012208213846FDF7DB
:103420007FFA4FF6FF786C7144464046FEF7A6FEE1
:1034300045F258470021232340F2491208460097DD
:10344000FEF7C2FE0320CDE90070234605224B2182
:10345000E6A0FFF799F9142328220A2118460094C0
:10346000FEF7B2FE0F200096CDE9010414221923C5
:1034700005211046FFF7D0F8D948012205F11401C3
:103480008030FEF7AFFD7E23E6227D2100200097ED
:10349000FEF79AFE3B46E622D2210020FFF740F8D5
:1034A0003B46EF220021E620FFF743F83B46EF22A0
:1034B0000021E520FFF73DF84FF00209CDE9004972
:1034C0003B46D7220A21CCA0FFF75EF94FF478449F
:1034D000234650225A21EB20FFF722F823465022A0
:1034E0005921EB20FFF71CF8AB4640F2CF1A684693
:1034F000FFF7EEFC0098BB4ECBF82000BDF80400AF
:103500002036ABF8240031785C46E1B17188491E61
:10351000272918D2B8B1232815D2454616232822C8
:1035200008211420CDF80080FEF74EFE0F20002168
:10353000CDE9001014221B23029503211046FFF74A
:103540006BF800F099FD20790028D0D0207806286B
:1035500011D2DFE800F0100308151A1F322253467B
:103560000A21A9A003E0322253460A21AAA0CDE9EC
:103570000089FFF709F96079B0B101281CD10EE08C
:10358000322253460A21A8A0F1E7322253460A21EB
:10359000A9A0ECE7322253460A21ABA0E7E74B2271
:1035A00053460A21ADA003E04B2253460A21AEA0A8
:1035B000CDE90089FFF7E8F84D46474653466422B7
:1035C0000A21ACA0CDE90089FFF7DEF8B4F90A10B2
:1035D0004FF4FA6091FBF0F03030CDE90075C2B2E3
:1035E000534664214620FEF71BFFB4F90A00CDE9DB
:1035F000007500EBD07041104FF47A7091FBF0F23F
:1036000000FB1211642091FBF0F03030C2B253463F
:1036100064215520FEF704FFB4F90A00CDE90075D6
:1036200000EBD0704110642091FBF0F200FB12110E
:103630000A2091FBF0F03030C2B2642153460846B4
:10364000FEF7EEFEB4F90A00CDE9007500EBD0708C
:1036500041100A2091FBF0F200FB12103030C2B290
:10366000534664217320FEF7DBFE0420CDE9007091
:103670004FF478433222FA2180A0FFF785F85848AA
:10368000FEF76EF8A34631E16846FFF721FC00988B
:10369000544F2062BDF804002037A0843978E1B18E
:1036A0007988491E272918D2B8B1232815D2454652
:1036B0001623282208211420CDF80080FEF784FD6F
:1036C0000F200021CDE9001014221B2302950321B5
:1036D0001046FEF7A1FF00F0CFFC694E4FF4004505
:1036E00029463046FDF710F9F0BB0A20FDF70AF82D
:1036F00029463046FDF708F9B0BB29463046FDF7AC
:1037000003F90028F9D00420CDE900804FF4784374
:103710003222FA215BA0FFF737F83148FEF731F883
:103720006846FFF7D5FB00982062BDF80400A0842E
:103730003978F1B17988491E27291AD2C8B12328CE
:1037400017D21623282208211420CDF80080FEF776
:103750003BFD0F210022CDE9002114221B23CDF8CF
:1037600008800321104600E01BE0FEF755FF00F043
:1037700083FC29463046FDF7C7F80028D0D10A203F
:10378000FCF7C0FF29463046FDF7BEF80028C7D138
:1037900029463046FDF7B8F80028F9D01048FDF763
:1037A000DFFFB4F90A004FF4FA6190FBF1F0042551
:1037B0003030CDE90085C2B2464653469B213220C7
:1037C000FEF72EFEB4F90A0000EBD07041104FF462
:1037D0007A7091FBF0F200FB1210642754E00000B5
:1037E0006402002020000020000C0140426C75653E
:1037F000746F6F74680000004465736967682062C5
:1038000079205068756F63005072657363616C65F1
:10381000723A20312F3120005072657363616C65FC
:10382000723A20312F3220005072657363616C65EB
:10383000723A20312F3420005072657363616C65D9
:10384000723A20312F3820005072657363616C65C5
:10385000723A20312F313620000000004469723A5C
:1038600020526967687400004469723A204C6566AA
:1038700074200000537465703A20000052554E00C9
:103880000010014053544F0090FBF7F03030CDE969
:103890000065C2B253469B214B20FEF7C1FDB4F92F
:1038A0000A00CDE9006500EBD070401090FBF7F105
:1038B00007FB11000A2790FBF7F03030C2B25346E5
:1038C0009B216420FEF7ACFDB4F90A00CDE9006548
:1038D00000EBD070411091FBF7F007FB1010303077
:1038E000C2B253469B217D20FEF79AFDBBF80A0029
:1038F0005C4600287FF4C8AE0425CDE90085444627
:1039000053469B22322108A0FEF73EFF4FF4784336
:103910003222FA2106A0CDE90045FEF735FF00204E
:103920008BF80400E3E50000303030302000000068
:103930004F4B2020000000000EB5F84C002001463F
:103940006082F748FEF71AF80421F548FEF716F8EA
:10395000F34800218030FEF71AF94FF6FF7528462C
:10396000FEF70CFC45F258460021232340F2491291
:1039700008460096FEF728FC03272B4605225A210D
:10398000E8A0CDE90067FEF7FFFE142328220A21F4
:1039900018460095FEF718FC0F200021CDE9001015
:1039A00014221923029505211046FEF735FE022048
:1039B000CDE9005040F2CF1B5B4632220A21DBA04A
:1039C000FEF7E2FE0220CDE900505B464B220A21C1
:1039D000DAA0FEF7D9FECDE900575B466E220A2138
:1039E000DAA0FEF7D1FECDE900575B46A022962172
:1039F000D1A0FEF7C9FE3346EF220021E620FEF7F4
:103A000098FD3346EF220021E520FEF792FD40F2BB
:103A10003B1782233A465A21EB200096FEF7D4FB4F
:103A20000220CDE900602B466422F021C9A0FEF7F8
:103A3000ABFEB4233A468C21EB200096FEF7C4FB84
:103A40000220CDE900602B469622F021C3A0FEF7AC
:103A50009BFEE6233A46BE21EB200096FEF7B4FB20
:103A60000220CDE900604FF47843C822F021BDA0C8
:103A7000FEF78AFE3346E62263210020FEF750FD62
:103A80003346E62264210020FEF74AFD3346E62253
:103A9000C8210020FEF744FD3346E622C72100205E
:103AA000FEF73EFD2046FA2700781E264FF06409F7
:103AB000062824D2DFE800F0230314EDECEB02200B
:103AC000CDE9005045F25843D7220A21A7A0FEF7BE
:103AD0005BFE4FF49670E0813C202082C8200DE010
:103AE0000220CDE9005045F25843D7220A21A2A076
:103AF000FEF74AFEE78126824FF4C87020814FF41A
:103B00007846502233461146EB20FEF709FD50223D
:103B100033461146EB20FEF703FD0320CDE90050AC
:103B200033463222FA2197A0FEF72EFE7C49C84682
:103B30000968C1F824906846FFF7CAF90098774EE3
:103B40002062BDF804002036A084317800297DD0A1
:103B50007188491E272916D2A8B1232813D216230B
:103B60002822082114200095FEF72EFB0F200021AB
:103B7000CDE9001014221B23029503211046FEF705
:103B80004BFD00F079FA7088EC384F287ED2B0886F
:103B90005A2824D9822822D261494FF4FA70096840
:103BA00048625F484030FDF7ECFD5D480021803001
:103BB000FEF718F80020C4E90E00C4E90C00032049
:103BC000CDE900504FF478433222FA216DA0FEF780
:103BD000DBFD002060707088EC384F2864D2B0881C
:103BE0008C282DD9B4282BD24D484030FDF7C9FD83
:103BF0004FF0020945F25847CDE900794FF4784378
:103C00009622F02155A0FEF7BFFDCDE900792B46A5
:103C1000C822F02153A0FEF7B7FD4FF4FA70FCF76D
:103C200071FD012208215848FCF77AFE607818B12E
:103C30003B484030FDF794FD7088EC384F2833D274
:103C4000B088BE2830D9E6282ED200E065E034489E
:103C50004030FDF796FD4FF0020945F25847CDE997
:103C600000792B469622F0213CA0FEF78DFDCDE990
:103C700000794FF47843C822F0213AA0FEF784FD82
:103C80004FF4FA70FCF73EFD002203E00CE034E054
:103C900024E014E008213C48FCF742FE607818B1AB
:103CA0001F484030FDF75CFD7088401EE5287FD23C
:103CB000B088C8287CD9EF287AD200F095FA022083
:103CC000CDE9005045F25843D7220A212FA0FEF734
:103CD0005BFDE78126824FF448700FE70220CDE9B3
:103CE000005045F25843D7220A212BA0FEF74CFD85
:103CF000E78126824FF4C86000E70220CDE900503A
:103D000045F25843D7220A2126A0FEF73DFDA4F82C
:103D10000E9026824FF44860F0E649E02000002033
:103D200024020020436F6E74726F6C005365743A06
:103D3000202020202020202072706D0046726571A6
:103D40003A2020202020202020487A0053706565EA
:103D5000643A000052657365740000005269676838
:103D6000740000004C656674000000005072653AF3
:103D700020312F31000000005072653A20312F327F
:103D8000000000004F464600000C01405072653AAA
:103D900020312F34000000005072653A20312F3856
:103DA000000000005072653A20312F3136000000CB
:103DB000AC4F4FF4004631463846FCF7A5FDE0B95C
:103DC000607860B331463846FCF79EFD0028F9D094
:103DD000A548FDF7D6FCA44800214030FDF702FFBE
:103DE0000320CDE9005032224FF47843FA21AFF29C
:103DF0006C00FEF7C9FC002060704FF08040406A04
:103E000080B2A081618A884238D0218A884220D23B
:103E10009549E089403909684862A08121E031462E
:103E20003846FCF771FD0028F9D08F48FDF798FC63
:103E30008D4800214030FDF7AAFE0320CDE9005057
:103E40004FF478433222FA2188A0FEF79DFC01202E
:103E5000D2E7E289904204D9834840380068416241
:103E6000A181A689208982497043400091FBF0F02E
:103E7000FCF759FAFCF77CFAE06166827A49E0695E
:103E80000968C862A18942F21079B1FBF9F00226F3
:103E90003030CDE90056C2B25B4632214620FEF7F3
:103EA000BFFAA1894FF47A77B1FBF9F209FB12103E
:103EB000B0FBF7F03030CDE90056C2B25B4632219C
:103EC0005520FEF7ADFAA089CDE90056B0FBF7F119
:103ED00007FB1101B1FBF8F03030C2B25B46322172
:103EE0006420FEF79DFAA2894FF00A0AB2FBF8F1AE
:103EF00008FB1121B1FBFAF2CDE900565B463221F5
:103F000073203032FEF78CFAA189CDE90056B1FB5F
:103F1000FAF20AFB12125B46322182203032FEF79F
:103F20007FFA5448E1695B46B0FBF1F0A061B0FB59
:103F3000F9F03030CDE90056C2B24B214620FEF7F1
:103F40006FFAA169CDE90056B1FBF9F209FB121035
:103F5000B0FBF7F03030C2B25B464B215520FEF784
:103F60005FFAA069CDE90056B0FBF7F107FB11013C
:103F7000B1FBF8F03030C2B25B464B216420FEF753
:103F80004FFAA169CDE90056B1FBF8F208FB121017
:103F9000B0FBFAF25B464B2173203032FEF740FA59
:103FA000A169CDE90056B1FBFAF20AFB12125B4699
:103FB0004B2182203032FEF733FAD4E90C013A4625
:103FC0000023FCF7AFF84FF004063030CDE900567F
:103FD000C2B25B464FF09B014FF02800FEF720FA7B
:103FE000D4E90C013A460023FCF79CF81046194628
:103FF00064220023FCF796F83030CDE90056C2B2B7
:104000005B464FF09B014FF04100FEF709FAD4E9FF
:104010000C0164220023FCF785F8104619460A2299
:104020000023FCF77FF83030CDE90056C2B25B4682
:104030004FF09B014FF05A00FEF7F2F9D4E90C0162
:104040000A220023FCF76EF830201018CDE9005644
:10405000C2B25B464FF09B014FF07300FEF7E0F9F0
:1040600069E5000000100140640200204F4E20006E
:10407000001C4E0E80841E000EB55048FDF781FBDB
:104080004E4800214030FDF7ADFD4D4D00204FF66C
:10409000FF76C5E90E00C5E90C0068703046FEF7F2
:1040A0006DF80420CDE9006040F2CF1423460A22C7
:1040B000782144A0FEF768FB032723464B222D21DD
:1040C00042A0CDE90067FEF75FFB234682224B2129
:1040D00042A0CDE90067FEF757FB4FF491774723E5
:1040E0003A4646211E200094FEF76EF864233A46B5
:1040F00063211E200094FEF767F863231F224621E8
:104100001E200094FEF760F87E1C64233246462190
:1041100038460094FEF758F87E233A467D211E204B
:104120000094FEF751F89B233A469A211E200094F2
:10413000FEF74AF89A231F227D211E200094FEF7E5
:1041400043F89B2332467D2138460094FEF73CF825
:104150004FF4FC6614274FF4827805F1200468467A
:10416000FEF7B6FE00982862BDF80400A884217806
:104170000029F4D061881E394145F0D246280DD37C
:1041800064280BD255200097CDE9010605225A2359
:1041900050211046FEF740FAFFF7CEFB7D28DED314
:1041A0009B28DCD28C200097CDE9010605229123C3
:1041B00087211046FEF730FAFFF712F9640200205B
:1041C000200000204D656E7500000000436F6E7486
:1041D000726F6C207370656564000000426C7565D9
:1041E000746F6F74680000000EB5F748FDF7C9FAE8
:1041F000F54800214030FDF7F5FCDFF8D0834FF0A3
:104200000009404688F80190C0E90E99C8F830903E
:104210004FF6FF742046C8F83490FDF7AFFF45F223
:10422000584740F2491A0021232352460846009776
:10423000FDF7CAFF0326CDE90076234605224B2170
:10424000E3A0FEF7A1FA142328220A2118460094BD
:10425000FDF7BAFF0F25CDF80090CDE901541422E7
:10426000192305211046FEF7D7F9CDE900460023B2
:1042700032221E21D9A0FEF787FACDE9004600239D
:1042800050221E21D8A0FEF77FFACDE90046002378
:104290006E221E21D7A0FEF777FACDE90046002353
:1042A0008C221E21D7A0FEF76FFACDE9004600232D
:1042B000AA221E21D6A0FEF767FA3B465246D2211B
:1042C0000020FEF72DF90220CDE900403B46D72221
:1042D0000A21D3A0FEF758FA08F120074646DFF876
:1042E00058834FF478494FF03C0A4FF05A0B684618
:1042F000FEF7EEFD00983062BDF80400B084397816
:1043000089B37988491E272915D2A0B1232812D252
:1043100016232822082114200094FDF755FF0020C1
:10432000CDE9000514221B23032102941046FEF759
:1043300073F9FFF701FB78881F38B0F5867F17D82F
:10434000B888322814D3502801D201200AE06E2800
:1043500001D2022006E08C2801D2032002E0AA2824
:1043600002D20420307003E0C82801D20520F9E70A
:1043700030780628BBD2DFE800F00304376FACEFDB
:10438000B5E7CDE9005A0522462332211046CDF883
:104390000890FEF741F90095CDE901B405226423A8
:1043A00050211046FEF738F978200095CDE9010438
:1043B000052282236E211046FEF72EF996200095E5
:1043C000CDE901040522A0238C211046FEF724F933
:1043D000B4200095CDE901040522BE23AA21104690
:1043E000FEF71AF90022E9E00095CDE901A40522C3
:1043F000462332211046FEF70FF9CDE9005B052276
:10440000642350211046CDF80890FEF705F9782076
:104410000095CDE90104052282236E211046FEF7A6
:10442000FBF896200095CDE901040522A0238C21FC
:104430001046FEF7F1F8B4200095CDE901040522FD
:10444000BE23AA211046FEF7E7F8002220214046AD
:10445000FCF766FA002273E00095CDE901A405227D
:10446000462332211046FEF7D7F80095CDE901B476
:104470000522642350211046FEF7CEF87821CDE9BD
:10448000005105228223CDF808906E211046FEF7D8
:10449000C3F896200095CDE901040522A0238C21C4
:1044A0001046FEF7B9F8B4200095CDE901040522C5
:1044B000BE23AA211046FEF7AFF800222021404675
:1044C000FCF72EFA012280214046FCF729FA00224F
:1044D0003BE00095CDE901A4052246233221104698
:1044E000FEF79AF80095CDE901B405226423502126
:1044F0001046FEF791F878200095CDE901040522D9
:1045000082236E211046FEF787F89621CDE90051EF
:104510000522A023CDF808908C211046FEF77CF8E8
:10452000B4200095CDE901040522BE23AA2110463E
:10453000FEF772F8002220214046FCF7F1F9012233
:1045400080214046FCF7ECF901224FF4807140468F
:10455000FCF7E6F9CBE6FFE70095CDE901A40522DB
:10456000462332211046FEF757F80095CDE901B4F5
:104570000522642350211046FEF74EF8782000955E
:10458000CDE90104052282236E211046FEF744F88E
:1045900096200095CDE901040522A0238C21104628
:1045A000FEF73AF8B421CDE900510522BE23CDF83B
:1045B0000890AA211046FEF72FF80122202140463C
:1045C000FCF7AEF900227EE7640200202000002004
:1045D0005072657363616C657200000046756C6CA7
:1045E000207374657000000048616C662073746508
:1045F000700000005175617274657220737465708B
:104600000000000045696768746820737465700075
:104610005369787465656E74682073746570000002
:10462000446573696768206279205175616E6720FF
:104630005068756F63000000000C0140000000002E
:10464000003E5B4F5B3E3E6B4F6B3E1C3E7C3E1C18
:10465000183C7E3C181C577D571C1C5E7F5E1C005E
:10466000183C1800FFE7C3E7FF0018241800FFE715
:10467000DBE7FF30483A060E2629792926407F05D8
:104680000507407F05253F5A3CE73C5A7F3E1C1CEE
:1046900008081C1C3E7F14227F22145F5F005F5FAE
:1046A00006097F017F006689956A6060606060949A
:1046B000A2FFA29408047E040810207E201008089F
:1046C0002A1C08081C2A08081E101010100C1E0CAA
:1046D0001E0C30383E3830060E3E0E06000000003C
:1046E0000000005F00000007000700147F147F1423
:1046F000242A7F2A12231308646236495620500068
:1047000008070300001C2241000041221C002A1C53
:104710007F1C2A08083E080800807030000808083E
:104720000808000060600020100804023E5149455E
:104730003E00427F400072494949462141494D337C
:104740001814127F1027454545393C4A49493141E3
:10475000211109073649494936464949291E0000B1
:104760001400000040340000000814224114141406
:104770001414004122140802015909063E415D59F2
:104780004E7C1211127C7F494949363E41414122FB
:104790007F4141413E7F494949417F090909013E25
:1047A000414151737F0808087F00417F410020404C
:1047B000413F017F081422417F404040407F021C5E
:1047C000027F7F0408107F3E4141413E7F09090975
:1047D000063E4151215E7F09192946264949493241
:1047E00003017F01033F4040403F1F2040201F3F07
:1047F0004038403F6314081463030478040361598C
:10480000494D43007F4141410204081020004141CD
:10481000417F040201020440404040400003070879
:104820000020545478407F28444438384444442875
:10483000384444287F385454541800087E0902181C
:10484000A4A49C787F0804047800447D40002040A4
:10485000403D007F1028440000417F40007C0478E8
:1048600004787C080404783844444438FC18242430
:104870001818242418FC7C080404084854545424B0
:1048800004043F44243C4040207C1C2040201C3C2D
:104890004030403C44281028444C9090907C446424
:1048A000544C4400083641000000770000004136B7
:1048B000080002010204023C2623263C1EA1A1613D
:1048C000123A4040207A385454555921555579416F
:1048D0002254547842215554784020545579400C44
:1048E0001E52721239555555593954545459395527
:1048F0005454580000457C410002457D420001456A
:104900007C407D1211127DF0282528F07C545545FD
:10491000002054547C547C0A097F49324949493269
:104920003A4444443A324A4848303A4141217A3A7A
:1049300042402078009DA0A07D3D4242423D3D4046
:1049400040403D3C24FF2424487E4943662B2FFCF5
:104950002F2BFF0929F620C0887E090320545479A3
:10496000410000447D413048484A32384040227A74
:10497000007A0A0A727D0D19317D2629292F2826F1
:104980002929292630484D402038080808080808F9
:104990000808382F10C8ACBA2F102834FA00007B52
:1049A000000008142A142222142A14085500550065
:1049B00055AA55AA55AAFF55FF55FF000000FF0054
:1049C000101010FF00141414FF001010FF00FF104F
:1049D00010F010F0141414FC001414F700FF000081
:1049E000FF00FF1414F404FC141417101F10101F00
:1049F000101F1414141F00101010F0000000001FEE
:104A0000101010101F10101010F010000000FF10F8
:104A10001010101010101010FF10000000FF1400F4
:104A200000FF00FF00001F10170000FC04F4141426
:104A30001710171414F404F40000FF00F7141414F2
:104A400014141414F700F7141414171410101F1072
:104A50001F141414F4141010F010F000001F101F95
:104A60000000001F14000000FC140000F010F01003
:104A700010FF10FF141414FF141010101F0000007A
:104A800000F010FFFFFFFFFFF0F0F0F0F0FFFFFF7E
:104A90000000000000FFFF0F0F0F0F0F38444438D5
:104AA00044FC4A4A4A347E02020606027E027E0224
:104AB00063554941633844443C04407E201E20062F
:104AC000027E020299A5E7A5991C2A492A1C4C726C
:104AD00001724C304A4D4D303048784830BC625AF3
:104AE000463D3E494949007E0101017E2A2A2A2A83
:104AF0002A44445F444440514A444040444A51405F
:104B00000000FF0103E080FF000008086B6B08361F
:104B100012362436060F090F060000181800000090
:104B20001010003040FF0101001F01011E00191D7F
:104B30001712003C3C3C3C0000000000000000005C
:104B4000000000000102030406070809000000003D
:104B50000102030400404040404040404040414189
:104B60004141414040404040404040404040404042
:104B700040404040400502020202020202020202DC
:104B800002020202022020202020202020202002D9
:104B90000202020202029090909090901010101069
:104BA0001010101010101010101010101010101005
:104BB0000202020202028888888888880808080899
:104BC0000808080808080808080808080808080865
:104BD0000202020240000000554B0008FC4B000896
:104BE000000000207400000008320008704C00082B
:104BF00074000020B4060000183200080100000014
:104C000000000000000000000000000000000000A4
:104C1000840000000000000000000000010000000F
:104C200000010000C80000000000000000000000BB
:104C30000000000000000000000000000000000074
:104C40000000000000000000000000000000000064
:104C50000000000000000000000000000100000053
:104C600010000000000000000024F400000000001C
:04000005080000ED02
:00000001FF
