:020000040800F2
:100000006005002001010008F3130008B90F000883
:10001000F1130008910100086515000800000000B8
:10002000000000000000000000000000C9140008EB
:10003000AD01000800000000F5130008CB14000813
:100040001B0100081B0100081B0100081B01000820
:100050001B0100081B0100081B0100081B01000810
:100060001B0100081B0100081B0100081B01000800
:1000700095010008A10100081B0100081B010008F0
:100080001B0100081B0100081B0100081B010008E0
:100090001B0100081B0100081B0100081B010008D0
:1000A0001B0100081B0100081B0100081B010008C0
:1000B0001B0100081B0100081B0100081B010008B0
:1000C0001B0100081B0100081B010008F9130008B0
:1000D0001B0100081B0100081B0100081B01000890
:1000E0001B0100081B0100081B010008DFF80CD0F1
:1000F00000F03CF800480047691600086005002041
:100100000648804706480047FEE7FEE7FEE7FEE7B1
:10011000FEE7FEE7FEE7FEE7FEE7FEE71D15000847
:10012000ED00000840EA01039B0703D009E008C97D
:10013000121F08C0042AFAD203E011F8013B00F8AC
:10014000013B521EF9D27047D2B201E000F8012BF8
:10015000491EFBD270470022F6E710B513460A4647
:1001600004461946FFF7F0FF204610BD064C074D28
:1001700006E0E06840F0010394E807009847103477
:10018000AC42F6D3FFF7B6FF6C1700088C170008D7
:10019000FEE70000014800F057B80000D40000203E
:1001A000014800F051B80000180100207047704766
:1001B00010B590F821100024022903D00421816396
:1001C00001243DE001680A6822F00E020A6001681D
:1001D0000A6822F001020A601A4A0168914201D1BC
:1001E000012121E0174A1432914201D110211BE074
:1001F000144A2832914201D1891515E0114A3C3246
:10020000914201D189140FE00E4A5032914202D13D
:100210004FF4803108E00B4A6432914202D14FF42E
:10022000801101E04FF08071064A083A51600121C7
:1002300080F82110002180F82010416B01B188471F
:10024000204610BD080002402DE9F05FC16B0C682C
:1002500001680B68D0F840C0042202FA0CF2494D44
:10026000DFF824A1494E4A4FDFF828B1DFF828E132
:1002700022422CD05A072AD50A68920603D40A686B
:1002800022F004020A600168A94201D1042219E0A7
:10029000514501D1402215E0B14202D14FF48062B4
:1002A00010E0B94202D14FF480420BE0594502D12F
:1002B0004FF4802206E0714502D14FF4800201E044
:1002C0004FF080622F4908394A60C16A3BE04FF025
:1002D000020808FA0CF818EA040F4FF000094FF072
:1002E000010235D05FEA837832D50B689B0605D4CE
:1002F0000B6823F00A030B6080F821200168A942F3
:1003000001D1022219E0514501D1202215E0B1426C
:1003100002D14FF4007210E0B94202D14FF4005202
:100320000BE0594502D14FF4003206E0714502D18D
:100330004FF4001201E04FF00072124908394A6090
:1003400080F82090816A00291AD0BDE8F05F084744
:10035000082505FA0CF5254212D01B0710D50B68AD
:1003600023F00E030B6090F84010C36B02FA01F10A
:100370005960826380F8212080F82090016BE2E7C9
:10038000BDE8F09F080002401C000240300002401F
:1003900044000240580002406C00024030B528B3CF
:1003A00008C8134914221944B1FBF2F18900C16352
:1003B00010498163022141771A6843F6F0718A433C
:1003C000D0E900142143D0E902452C4321430469BC
:1003D0002143446921438469214311431960002169
:1003E0004163012242770177084630BD012030BDCC
:1003F000F8FFFDBF0000024070B5044600F004F9AC
:100400000546601C02D004480078044400F0FCF863
:10041000401BA042FAD370BD180000202DE9F84F10
:10042000DFF8B891002409F1040A0AF1040B23460D
:100430000F270BF1040EC9E00125A5402A40AA426E
:100440007DD1674ED1F804C0ACEB0608B44532D07C
:1004500014DCBCF1030F3AD009DCBCF1000F2AD048
:10046000BCF1010F1CD0BCF1020F31D11DE0BCF179
:10047000110F17D0BCF1120F2AD119E0B8F5881F5F
:1004800019D006DCB8F5803F15D0B8F5801F1FD114
:1004900011E0B8F5001F0ED0B8F5041F18D10AE01E
:1004A000CB6815E0CB681B1D12E0CB6808330FE06A
:1004B000CB680C330CE08B682BB1012B4FF0080399
:1004C00003D0456104E0042302E0056100E000235D
:1004D000FF2A01D8064601E000F104064FEA840530
:1004E00001D9A5F12005D6F8008007FA05FC28EA15
:1004F0000C0803FA05F548EA0508C6F800804D68BF
:10050000ED0062D5374DAE6946F00106AE61AD69CA
:1005100024F0030605F001050095334D06EB050CAC
:10052000DCF80850A607360F07FA06F825EA080592
:10053000DFF8B880404503D14FF0000817E044E0F1
:10054000DFF8AC80404502D14FF001080FE0DFF842
:10055000A480404502D14FF0020808E0DFF89880FF
:10056000404502D14FF0030801E04FF0040808FABB
:1005700006F848EA0508CCF808804D68D9F800600C
:10058000ED034D4601D5164300E096432E604D68BD
:10059000DAF80060AD03554601D5164300E09643F6
:1005A0002E604D68DBF80060ED025D4601D5164314
:1005B00000E096432E604D68DEF80060AD0275469F
:1005C00001D5164300E096432E60641C0D682A4650
:1005D000E5407FF431AFBDE8F88F00000004014032
:1005E000000011100010024000000140000801400E
:1005F000000C014000100140001401400AB10161EB
:1006000070470904FBE7000001488068704700005C
:100610001800002002488168027811448160704708
:1006200018000020074810B5016841F01001016072
:10063000032000F075F8002000F006F800F024F820
:10064000002010BD0020024070B50D4D04464FF44F
:100650007A712878B1FBF0F00A490968B1FBF0F033
:1006600000F096FC48B9102C07D200222146501EFB
:1006700000F036F800206C6070BD012070BD0000F5
:1006800018000020140000200C4808B5816941F0D2
:1006900001018161816901F001010091C16941F0AD
:1006A0008051C161C06900F08050009004484168E9
:1006B00021F0E06141F00071416008BD001002408E
:1006C00000000140002809DB00F01F0201219140D9
:1006D0004009800000F1E020C0F8001170470000E0
:1006E000F0B40E4B1B680C46C3F30223C3F107059D
:1006F000042D00D90425191D072901D2002300E08B
:10070000DB1E012606FA05F1491E214099409E4054
:10071000761E16403143F0BC00F025BF0CED00E022
:10072000064900F0070208684FF6FF03184040EA48
:100730000220034A10430860704700000CED00E0FF
:100740000000FA052DE9F0470F46050061D0434E41
:10075000306800F00700B84209D2306820F0070086
:1007600038433060306800F00700B84251D1286843
:100770003B4C810712D5400703D5606840F4E06028
:1007800060602878000703D5606840F460506060BE
:100790006068A96820F0F000084360602878C0070E
:1007A00028D06868012810D02168022810D0890755
:1007B00000292EDA616821F0030101436160FFF72F
:1007C00023FF804641F288390DE021688903EFE775
:1007D0008901EDE7FFF718FFA0EB0801494502D9B1
:1007E0000320BDE8F0876068696800F00C00B0EB9A
:1007F000810FEFD1306800F00700B8420BD93068A4
:1008000020F0070038433060306800F00700B8423D
:1008100001D00120E5E72878400705D56068E96840
:1008200020F4E060084360602878000706D560681F
:10083000296920F4605040EAC100606000F018F8B7
:100840006168084AC1F30311515CC8400649086059
:1008500006480068FFF7F8FE0020C2E700200240CB
:10086000001002405C170008140000201C0000204B
:1008700012A185B00FC98DE80F0014A0144A0068BA
:1008800004905168134801F00C03042B10D0082B7E
:100890000ED1C1F38343C9031DF803000AD5516883
:1008A00004AAC1F34041515C0A4A5043B0FBF1F045
:1008B00005B0704708494843FAE700000203040501
:1008C000060708090A0B0C0D0E0F1010010200009C
:1008D0000010024000127A0000093D002DE9F84F97
:1008E000040070D02078C04DC00749D06868C0F3BC
:1008F0008100012807D06868C0F38100022809D16F
:100900006868C00306D52868800339D56068002868
:10091000E7D035E06068B0F5803F0BD010B1B0F59E
:10092000A02F11D0286820F480302860286820F497
:10093000802002E0286840F480302860606890B130
:10094000FFF762FE06460AE0286840F4802028602F
:10095000F0E700BFFFF758FE801B642873D82868B3
:100960008003F7D50CE0FFF74FFE064605E000BF19
:10097000FFF74AFE801B6428F0D828688003F7D46C
:1009800020789A4E80074FF001094FF0000839D5C2
:10099000686810F00C0F07D06868C0F38100022867
:1009A00009D16868C00306D42868800714D5206977
:1009B000012808D110E02069B0B1C6F80090FFF717
:1009C00023FE074605E00AE1FFF71EFEC01B0228D2
:1009D000C4D828688007F7D52868616920F0F80036
:1009E00040EAC10028600DE0C6F80080FFF70CFE69
:1009F000074604E0FFF708FEC01B022823D828683A
:100A00008007F7D4207800072CD57948A169D9B19F
:100A1000C0F80090FFF7F8FD074604E0FFF7F4FD8B
:100A2000C01B02280FD8686A8007F7D571484FF4B9
:100A3000FA510068B0FBF1F0009000BF0098411E31
:100A40000091FAD20EE080E0C0F80080FFF7DCFDF4
:100A5000074604E0FFF7D8FDC01B022875D8686A76
:100A60008007F7D42078400760D5E8690027C000E8
:100A700008D4E86940F08050E861E869012700F097
:100A8000805000905C480168C90513D40168834612
:100A900041F480710160FFF7B7FD824606E000BFB8
:100AA000FFF7B2FDA0EB0A0064284ED8DBF8000087
:100AB000C005F5D5E06801280AD008B1052813D093
:100AC000286A20F001002862286A20F0040002E071
:100AD000286A40F001002862E06841F2883B98B142
:100AE000FFF792FD82460BE0286A40F0040028627E
:100AF000EEE700BFFFF788FDA0EB0A0159455AD881
:100B0000286A8007F6D50CE0FFF77EFD824605E0F7
:100B1000FFF77AFDA0EB0A0159454CD8286A8007F7
:100B2000F6D41FB1E86920F08050E861E06988B32D
:100B30006968C1F38101022944D00228C6F86080A7
:100B400004D0FFF761FD044638E034E0FFF75CFDB8
:100B5000074604E0FFF758FDC01B02282BD8286881
:100B60008001F7D4206AB0F5803F05D16868A1689C
:100B700020F4003008436860D4E90801084369683C
:100B800021F4741108436860C6F86090FFF73CFDDB
:100B9000044606E025E000BFFFF736FD001B0228F3
:100BA00009D828688001F7D51BE000BFFFF72CFDAE
:100BB000001B022802D90320BDE8F88F28688001B5
:100BC000F4D40EE00128F7D06868226A00F480317E
:100BD000914204D1616A00F47010884201D0012072
:100BE000EAE70020E8E7000000100240000042426F
:100BF0008004424214000020007000407047000052
:100C000038B50446006842688168C9434B0606D57A
:100C1000CB0704D1D3435B0601D4216C05E08B07DD
:100C200008D4D3431B0605D4616C01B02046BDE84F
:100C3000304008478B0601D54B0646D4D3439B066C
:100C400043D44B060AD494F85130032B3ED0636D45
:100C500043F004036365C36883680093890609D47D
:100C6000616D41F00101616581680091016821F0C9
:100C700040010160606D002827D02068416821F0A4
:100C8000E0014160012084F85100900722D02068E3
:100C9000416821F003014160104DE06C40B14563B3
:100CA000E06CFFF785FA18B1606D40F040006065B8
:100CB000A06C002809D04563A06CFFF779FA0028E2
:100CC00003D0606D40F04000606538BDC168806849
:100CD000009038BD2046FFF791FF38BD051400088D
:100CE00070B5040005D00025A56294F8510010B13C
:100CF00006E0012070BD84F85050204600F02EF828
:100D0000022084F851002068016821F04001016050
:100D1000D4E901010843D4E903121143084361698E
:100D20000843218B01F400710843E1690843216AFB
:100D30000843A16A084321680860A069042101EA08
:100D40001040216848602068C16921F40061C161D8
:100D50006565012084F85100002070BDF0B585B0B4
:100D600000240646009401940294039400682B49E1
:100D7000884251D12A48816941F480518161816959
:100D800001F480510491816941F00401816180691D
:100D9000244D00F004000490A02000900220019057
:100DA0000320039069462846FFF738FB4020CDE931
:100DB0000004694628460294FFF730FB1B4D1A4891
:100DC0008027C5E90004C5E902472C616C61AC616C
:100DD0002846EC61FFF7E2FA08B1FFF7E8F9F5649D
:100DE0006E621148124D143001C5102091C5104893
:100DF00045F810496C61AC61EC61FFF7CFFA08B1BE
:100E0000FFF7D5F9B5640022114623206E62FFF783
:100E100067FC2320FFF756FC05B0F0BD0030014011
:100E200000100240000801401C000240D4000020D5
:100E3000180100202DE9F84F044690F850000027D3
:100E40001D461646894601280DD04FF0010B84F847
:100E500050B0FFF7D9FB804694F85100BA460128FC
:100E600004D002278EE00220BDE8F88FB9F1000F10
:100E70007DD0002E7BD0032084F85100C4F854A00C
:100E8000C4F83090A686E686C4F838A0A4F83CA042
:100E9000A4F83EA0C4F844A0C4F840A0A068B0F5EF
:100EA000004F04D12068016841F48041016020684E
:100EB0000168490603D4016841F040010160E0681F
:100EC000B0F5006F606803D030B3012E24D040E04D
:100ED00008B1012E1CD1206B21680088C86006E093
:100EE00020688168890709D5216B0988C160206B5A
:100EF000801C2063E08E401EE08609E0FFF784FB43
:100F0000A0EB0800A84202D3681C01D031E07DB3F9
:100F1000E08E0028E4D11FE0206B21680078087380
:100F200006E020688168890709D5216B097801737B
:100F3000206B401C2063E08E401EE08609E0FFF736
:100F400063FBA0EB0800A84202D3681C01D010E0AC
:100F500075B1E08E0028E4D142462946204600F0D3
:100F600059FA08B120206065A06820B107E008E0C8
:100F7000FFE7032706E02068C16880680090606D85
:100F800000B1012784F851B084F850A038466BE7CF
:100F900010B5401EB0F1807F01D3012010BD4FF08D
:100FA000E02460610F21601700F0DDFA0020A061ED
:100FB00007202061002010BDFEE710B514460B4647
:100FC000024600F031F9200A00F010F9E0B2BDE865
:100FD000104000F00BB9000070B5054610484FF402
:100FE000963440F23F120178012906D0032904D03B
:100FF000022905D0042903D007E01346EF2200E0C0
:10100000EF230021084600F00FF92E0A3046641E37
:1010100000F0ECF8E8B200F0E9F8002CF6D170BD71
:101020000000002070B5141A5E1A641C761C74430C
:101030004FF49636049DB44200D934469BB292B226
:1010400089B280B200F0F0F82E0A06E03046641E45
:1010500000F0CCF8E8B200F0C9F8002CF6D170BD71
:101060002DE9F047884608A9154691E8C0040146D5
:10107000994658224C48FFF755F84C4C40462946B3
:10108000C4F808806580C4F80C90A6800122FFF7A0
:10109000B5FA2761A4F806A0012251463846FFF7A9
:1010A000ADFA012000F084F86420FFF7A5F92820AC
:1010B00000F07EF8C02000F07BF8262000F096F8C3
:1010C000C12000F075F8112000F090F8C52000F064
:1010D0006FF8352000F08AF83E2000F087F8C7202E
:1010E00000F066F8BE2000F081F8362000F060F8CD
:1010F000482000F07BF83A2000F05AF8552000F024
:1011000075F8B12000F054F8002000F06FF81F20AF
:1011100000F06CF82A2000F04BF8002000F066F890
:10112000002000F063F8002000F060F8EF2000F0ED
:101130005DF82B2000F03CF8002000F057F800206C
:1011400000F054F8012000F051F83F2000F04EF874
:10115000342000F02DF8B72000F02AF8072000F026
:1011600045F8B62000F024F80A2000F03FF882206D
:1011700000F03CF8272000F039F8002000F036F8A5
:10118000112000F015F86420FFF736F9292000F04F
:101190000FF86420FFF730F92C2000F009F8BDE8C3
:1011A000F0470520FFF728B92400002000000020A8
:1011B00038B50C4C8DF800000022A188E068FFF7DC
:1011C0001DFA00226188A068FFF718FA05230122A2
:1011D00069460548FFF72EFE01226188A068FFF7E7
:1011E0000DFA38BD000000202400002038B50C4C5A
:1011F0008DF800000122A188E068FFF7FFF90022C6
:101200006188A068FFF7FAF90023012269460548C2
:10121000FFF710FE01226188A068FFF7EFF938BDE3
:1012200000000020240000202DE9F04107461C4664
:1012300015460E462A20FFF7BBFF380AFFF7D6FFF8
:10124000F8B2FFF7D3FF280AFFF7D0FFE8B2FFF7A5
:10125000CDFF2B20FFF7ACFF300AFFF7C7FFF0B23E
:10126000FFF7C4FF200AFFF7C1FFE0B2FFF7BEFFA0
:10127000BDE8F0412C20FFF79BBF08B50A44521E81
:10128000009313B2024600F001F808BD2DE9F05FAB
:101290000C4606461546191BA2EB060000D549422E
:1012A000002800DA4042814207DD304626461D46CE
:1012B0004FF001080446134601E04FF00008AE422B
:1012C00005DD30462E46054620461C460346A81B33
:1012D0000FFA80F9181B00D540420FFA80FB09EB8A
:1012E000D97047109C4201DA012001E04FF0FF3035
:1012F000824617E0B8F1000F02D0B1B2A0B201E00F
:10130000A1B2B0B20A9AFFF758FEA7EB0B0007B2E2
:10131000002F05DA04EB0A0004B207EB090007B25C
:10132000761C36B2AE42E5DDBDE8F09F2DE9FC410A
:1013300007461446012000EB440002B20D46081B8C
:1013400001B21E463846FFF798FF0020CDE900069F
:10135000032322462946384600F024F9BDE8FC81E3
:1013600010B501221349012805D0022809D003280D
:101370000ED0042813D00A703620FFF719FF8820FA
:1013800013E0022008703620FFF712FF28200CE03F
:10139000032008703620FFF70BFF482005E00420EB
:1013A00008703620FFF704FFE820BDE81040FFF783
:1013B0001DBF0000000000200C480B494FF40072D4
:1013C00001604FF48271416000218160C160016160
:1013D000C0E905120822C0E90721416281620A21A1
:1013E000C162FFF77DBC0000003001407C0000209E
:1013F000FEE77047704700000148FFF701BC00009E
:101400007C00002010B5406A0021C187C186FFF72B
:10141000F5FB10BD38B50B46009204460022802132
:1014200000F008F8002804D0606D40F020006065EE
:10143000032038BD2DE9F0411D4617460E460446EF
:10144000DDF8188008E0681C06D0FFF7DDF8A0EB97
:101450000800A8420BD255B12068806836EA000027
:1014600030D00020B842EED10020BDE8F0812068E5
:10147000416821F0E00141606068B0F5827F0BD1E6
:10148000A068B0F5004F02D0B0F5806F04D120689D
:10149000016821F040010160A06AB0F5005F09D148
:1014A0002068016821F4005101602068016841F45E
:1014B00000510160012084F85100002084F85000A0
:1014C0000320D2E70120CDE77047FFF7A3B830B57E
:1014D0008FB028216846FEF73EFE14210AA8FEF7C9
:1014E0003AFE01210804CDE90010002402940225EF
:1014F0000491CDE907504FF4E01009906846FFF7DA
:10150000EDF90F20CDE90A056802CDE90C40022172
:101510000AA80E94FFF716F90FB030BD0D48016808
:1015200041F00101016041680B4A114041600168CE
:101530000A4A11400160016821F48021016041687C
:1015400021F4FE0141604FF41F0181600449C00392
:1015500008607047001002400000FFF8FFFFF6FE31
:1015600008ED00E0FEE70907090E002804DB00F1A2
:10157000E02080F80014704700F00F0000F1E02038
:1015800080F8141D704702E008C8121F08C1002A25
:10159000FAD170477047002001E001C1121F002AF4
:1015A000FBD170472DE9FF5F8146C2F1010006B211
:1015B000C2EBC2304000012788460FFA80FB0025AD
:1015C0001446DDF838A04AE0002E08DB0BF10200DB
:1015D0000FFA80FB641E06EB0B0024B206B2BF1CA0
:1015E0006D1C3FB2F01906B203982DB2C00719D096
:1015F0000AEB4400401C02B2A8EB040001B209EB64
:10160000050000B20F9BFFF738FE0AEB4500401CB7
:1016100002B2A8EB050001B209EB040000B20F9B77
:10162000FFF72BFE0398800719D50AEB4400401CF6
:1016300002B2A8EB040001B2A9EB050000B20F9BB7
:10164000FFF71BFE0AEB4500401C02B2A8EB0500A9
:1016500001B2A9EB040000B20F9BFFF70EFEA542FA
:10166000B2DBBDE8FF9F000086B0FEF7DBFFFFF7AF
:101670002EFF0026364C0096019602960396A0692E
:1016800040F02000A061A06900F020000490A06953
:1016900040F00400A061A0692E4D00F00400049009
:1016A00001221F212846FEF7A9FF1F2000900120DC
:1016B000CDE901060320039069462846FEF7AEFEF9
:1016C000606940F0010060616069002200F0010083
:1016D000009011460C20FFF703F80C20FEF7F2FFF4
:1016E000002211460D20FEF7FBFF0D20FEF7EAFF5A
:1016F000FFF762FE0821CDE90015042002902B4679
:10170000102229461448FFF7ABFC0220FFF728FE01
:101710000020FFF761FC4FF6E07423463222782167
:10172000A020FFF703FE002328227821A020FFF746
:10173000FDFD5A23AF22462191200096FFF772FC4F
:101740007823A5223C219B200094FFF76BFCFEE749
:1017500000100240000801407C0000200000000052
:101760000000000001020304060708098C170008A6
:10177000000000202400000086150008B0170008B3
:10178000240000203C050000961500080100000020
:101790000000000000000000000000000000000049
:1017A0000024F40001000000100000000000000010
:04000005080000ED02
:00000001FF
