:020000040800F2
:100000004805002001010008CF120008C7100008B1
:10001000CD1200086D010008A114000800000000C6
:10002000000000000000000000000000FD120008B9
:100030006F01000800000000D1120008FF12000844
:100040001B0100081B0100081B0100081B01000820
:100050001B0100081B0100081B0100081B01000810
:100060001B0100081B0100081B0100081B01000800
:100070001B0100081B0100081B0100081B010008F0
:100080001B0100081B0100081B0100081B010008E0
:100090001B0100081B0100081B0100081B010008D0
:1000A0001B0100081B0100081B0100081B010008C0
:1000B00099130008A51300081B0100081B01000884
:1000C0001B0100081B0100081B010008D5120008D5
:1000D000E11200081B0100081B0100081B010008B9
:1000E0001B0100081B0100081B010008DFF80CD0F1
:1000F00000F02AF800480047E114000848050020F5
:100100000648804706480047FEE7FEE7FEE7FEE7B1
:10011000FEE7FEE7FEE7FEE7FEE7FEE75113000815
:10012000ED000008D2B201E000F8012B491EFBD21D
:1001300070470022F6E710B513460A4604461946F2
:10014000FFF7F0FF204610BD064C074D06E0E068C3
:1001500040F0010394E8070098471034AC42F6D30E
:10016000FFF7C8FF4415000864150008FEE7704754
:1001700010B590F821100024022903D004218163D6
:1001800001243DE001680A6822F00E020A6001685D
:100190000A6822F001020A601A4A0168914201D1FC
:1001A000012121E0174A1432914201D110211BE0B4
:1001B000144A2832914201D1891515E0114A3C3286
:1001C000914201D189140FE00E4A5032914202D17E
:1001D0004FF4803108E00B4A6432914202D14FF46F
:1001E000801101E04FF08071064A083A5160012108
:1001F00080F82110002180F82010416B01B1884760
:10020000204610BD080002402DE9F84FDFF8B891F4
:10021000002409F1040A0AF1040B23460F270BF10D
:10022000040EC9E00125A5402A40AA427DD1674EAF
:10023000D1F804C0ACEB0608B44532D014DCBCF1F4
:10024000030F3AD009DCBCF1000F2AD0BCF1010F3A
:100250001CD0BCF1020F31D11DE0BCF1110F17D041
:10026000BCF1120F2AD119E0B8F5881F19D006DCAD
:10027000B8F5803F15D0B8F5801F1FD111E0B8F553
:10028000001F0ED0B8F5041F18D10AE0CB6815E0A6
:10029000CB681B1D12E0CB6808330FE0CB680C3332
:1002A0000CE08B682BB1012B4FF0080303D04561A4
:1002B00004E0042302E0056100E00023FF2A01D8E6
:1002C000064601E000F104064FEA840501D9A5F1D4
:1002D0002005D6F8008007FA05FC28EA0C0803FA86
:1002E00005F548EA0508C6F800804D68ED0062D5BE
:1002F000374DAE6946F00106AE61AD6924F00306E4
:1003000005F001050095334D06EB050CDCF80850AF
:10031000A607360F07FA06F825EA0805DFF8B880C1
:10032000404503D14FF0000817E044E0DFF8AC800F
:10033000404502D14FF001080FE0DFF8A4804045AE
:1003400002D14FF0020808E0DFF89880404502D162
:100350004FF0030801E04FF0040808FA06F848EAF5
:100360000508CCF808804D68D9F80060ED034D46CB
:1003700001D5164300E096432E604D68DAF8006020
:10038000AD03554601D5164300E096432E604D68F7
:10039000DBF80060ED025D4601D5164300E09643B0
:1003A0002E604D68DEF80060AD02754601D516433B
:1003B00000E096432E60641C0D682A46E5407FF4F9
:1003C00031AFBDE8F88F00000004014000001110BB
:1003D000001002400000014000080140000C0140F4
:1003E0000010014000140140C2680A4201D041617E
:1003F0007047016170470AB1016170470904FBE76A
:1004000001488068704700000400002002488168AD
:10041000027811448160704704000020074810B53D
:10042000016841F010010160032000F075F8002020
:1004300000F006F800F024F8002010BD0020024073
:1004400070B50D4D04464FF47A712878B1FBF0F089
:100450000A490968B1FBF0F000F0ECFB48B9102C38
:1004600007D200222146501E00F036F800206C60B2
:1004700070BD012070BD00000400002010000020AD
:100480000C4808B5816941F001018161816901F081
:1004900001010091C16941F08051C161C06900F062
:1004A000805000900448416821F0E06141F0007103
:1004B000416008BD0010024000000140002809DB37
:1004C00000F01F02012191404009800000F1E0206E
:1004D000C0F8001170470000F0B40E4B1B680C46CA
:1004E000C3F30223C3F10705042D00D90425191D08
:1004F000072901D2002300E0DB1E012606FA05F1E0
:10050000491E214099409E40761E16403143F0BC62
:1005100000F0C7BF0CED00E0064900F007020868D4
:100520004FF6FF03184040EA0220034A10430860D8
:10053000704700000CED00E00000FA052DE9F047DF
:100540000F46050061D0434E306800F00700B84206
:1005500009D2306820F0070038433060306800F07E
:100560000700B84251D128683B4C810712D540079B
:1005700003D5606840F4E06060602878000703D528
:10058000606840F4605060606068A96820F0F00026
:10059000084360602878C00728D06868012810D018
:1005A0002168022810D0890700292EDA616821F01D
:1005B000030101436160FFF723FF804641F2883960
:1005C0000DE021688903EFE78901EDE7FFF718FFE8
:1005D000A0EB0801494502D90320BDE8F087606817
:1005E000696800F00C00B0EB810FEFD1306800F0CB
:1005F0000700B8420BD9306820F00700384330605C
:10060000306800F00700B84201D00120E5E7287803
:10061000400705D56068E96820F4E0600843606041
:100620002878000706D56068296920F4605040EA00
:10063000C100606000F018F86168084AC1F3031156
:10064000515CC8400649086006480068FFF7F8FE9C
:100650000020C2E7002002400010024034150008CC
:10066000100000200800002012A185B00FC98DE8FD
:100670000F0014A0144A006804905168134801F058
:100680000C03042B10D0082B0ED1C1F38343C903F4
:100690001DF803000AD5516804AAC1F34041515C1A
:1006A0000A4A5043B0FBF1F005B07047084948438F
:1006B000FAE7000002030405060708090A0B0C0DFF
:1006C0000E0F1010010200000010024000127A000C
:1006D00000093D002DE9F84F040070D02078C04D8E
:1006E000C00749D06868C0F38100012807D0686856
:1006F000C0F38100022809D16868C00306D52868C4
:10070000800339D560680028E7D035E06068B0F52F
:10071000803F0BD010B1B0F5A02F11D0286820F485
:1007200080302860286820F4802002E0286840F4A7
:1007300080302860606890B1FFF762FE06460AE0EC
:10074000286840F480202860F0E700BFFFF758FEDB
:10075000801B642873D828688003F7D50CE0FFF766
:100760004FFE064605E000BFFFF74AFE801B6428E7
:10077000F0D828688003F7D420789A4E80074FF08D
:1007800001094FF0000839D5686810F00C0F07D048
:100790006868C0F38100022809D16868C00306D4E4
:1007A0002868800714D52069012808D110E0206945
:1007B000B0B1C6F80090FFF723FE074605E00AE156
:1007C000FFF71EFEC01B0228C4D828688007F7D593
:1007D0002868616920F0F80040EAC10028600DE057
:1007E000C6F80080FFF70CFE074604E0FFF708FE9E
:1007F000C01B022823D828688007F7D42078000778
:100800002CD57948A169D9B1C0F80090FFF7F8FD5F
:10081000074604E0FFF7F4FDC01B02280FD8686A02
:100820008007F7D571484FF4FA510068B0FBF1F03A
:10083000009000BF0098411E0091FAD20EE080E0C7
:10084000C0F80080FFF7DCFD074604E0FFF7D8FDA5
:10085000C01B022875D8686A8007F7D42078400743
:1008600060D5E8690027C00008D4E86940F08050EE
:10087000E861E869012700F0805000905C48016859
:10088000C90513D40168834641F480710160FFF704
:10089000B7FD824606E000BFFFF7B2FDA0EB0A00FD
:1008A00064284ED8DBF80000C005F5D5E0680128C3
:1008B0000AD008B1052813D0286A20F00100286268
:1008C000286A20F0040002E0286A40F00100286253
:1008D000E06841F2883B98B1FFF792FD82460BE059
:1008E000286A40F004002862EEE700BFFFF788FDA9
:1008F000A0EB0A0159455AD8286A8007F6D50CE0C2
:10090000FFF77EFD824605E0FFF77AFDA0EB0A01C6
:1009100059454CD8286A8007F6D41FB1E86920F001
:100920008050E861E06988B36968C1F381010229F8
:1009300044D00228C6F8608004D0FFF761FD044669
:1009400038E034E0FFF75CFD074604E0FFF758FDB0
:10095000C01B02282BD828688001F7D4206AB0F584
:10096000803F05D16868A16820F4003008436860C2
:10097000D4E908010843696821F4741108436860E8
:10098000C6F86090FFF73CFD044606E025E000BF96
:10099000FFF736FD001B022809D828688001F7D52B
:1009A0001BE000BFFFF72CFD001B022802D903202B
:1009B000BDE8F88F28688001F4D40EE00128F7D054
:1009C0006868226A00F48031914204D1616A00F4BF
:1009D0007010884201D00120EAE70020E8E700001B
:1009E00000100240000042428004424210000020F9
:1009F000007000407047000038B504460068426847
:100A00008168C9434B0606D5CB0704D1D3435B06A7
:100A100001D4216C05E08B0708D4D3431B0605D411
:100A2000616C01B02046BDE8304008478B0601D517
:100A30004B0646D4D3439B0643D44B060AD494F8C2
:100A40005130032B3ED0636D43F004036365C368EC
:100A500083680093890609D4616D41F001016165E5
:100A600081680091016821F040010160606D0028FB
:100A700027D02068416821F0E0014160012084F81E
:100A80005100900722D02068416821F003014160A5
:100A9000104DE06C40B14563E06CFFF769FB18B1A5
:100AA000606D40F040006065A06C002809D045638F
:100AB000A06CFFF75DFB002803D0606D40F04000A4
:100AC000606538BDC1688068009038BD2046FFF77A
:100AD00091FF38BDED12000870B5040005D0002567
:100AE000A56294F8510010B106E0012070BD84F8B1
:100AF0005050204600F02EF8022084F85100206863
:100B0000016821F040010160D4E901010843D4E902
:100B100003121143084361690843218B01F40071FA
:100B20000843E1690843216A0843A16A0843216830
:100B30000860A069042101EA10402168486020682B
:100B4000C16921F40061C1616565012084F851002B
:100B5000002070BD30B585B000240094019402944B
:100B600003942F4D03682F4802210322AB4227D163
:100B7000836943F480538361836903F4805304934E
:100B8000836943F0040383618069274D00F004000A
:100B90000490A020CDE90001039269462846FFF7A2
:100BA00033FB4020CDE90004694628460294FFF754
:100BB0002BFB002211462320FFF78EFC23202BE085
:100BC0001A4DAB422AD1C36943F48043C361C36960
:100BD00003F480430493836943F0080383618069CD
:100BE000134D00F0080004904FF42040CDE90001BF
:100BF000039269462846FFF707FB4FF48040CDE992
:100C00000004694628460294FFF7FEFA00221146C6
:100C10002420FFF761FC2420FFF750FC05B030BD15
:100C20000030014000100240000801400038004040
:100C3000000C014010B5401EB0F1807F01D30120AF
:100C400010BD4FF0E02460610F21601700F029FC17
:100C50000020A06107202061002010BD7047704770
:100C600070B590F83C20012A19D0012400F83C4FBF
:100C70000222427050F83C3C5A689D6822F070068F
:100C80000A684968324325F0800529435A6050F8C4
:100C90003C2C9160447000210170084670BD022018
:100CA00070BD10B5040003D094F83D0010B107E00A
:100CB000012010BD002084F83C00204600F00CF814
:100CC000022084F83D00211D206800F071FB012006
:100CD00084F83D00002010BD08B500680B4988422B
:100CE00012D10B48C16941F00201C161C069002203
:100CF00000F00200009011461D20FFF7EDFBBDE85B
:100D000008401D20FFF7DABB08BD000000040040CA
:100D1000001002400168CA6842F00102CA6000681F
:100D2000816801F00701062903D0016841F0010143
:100D300001600020704770B5044690F83C0001281F
:100D400017D0012584F83C50022084F83D0020682B
:100D5000826822F0770222F47F428260086850287D
:100D600030D00DDC20284DD005DC98B310283BD1C5
:100D700048E0022070BD302844D0402834D139E00A
:100D8000602828D0702806D0B0F5805F2CD0B0F550
:100D9000005F29D10AE0CB68D1E90121206800F089
:100DA0004AFB2068816841F0770109E0CB68D1E90E
:100DB0000121206800F03FFB2068816841F48041F8
:100DC000816011E0CA684968206800F046FB502144
:100DD000206807E016E0CA684968206800F04EFB0A
:100DE0006021206800F031FB84F83D50002084F839
:100DF0003C0070BDCA684968206800F02EFB4021A5
:100E00002068EFE7226801461046EBE72DE9F04144
:100E10000D46040003D094F83D0018B108E001200D
:100E2000BDE8F081002084F83C00204600F03AF84C
:100E3000022084F83D002068816844F20702914353
:100E40008160211D206800F0B3FA226890689169E2
:100E5000166A2B68AF69034340F20330814341EACD
:100E60000721A868EF6908434FF6FC418843E96809
:100E700040EA0720014328692F6A000140EA073051
:100E8000084369686D6926F0220646EA051529437C
:100E900093602268906120680162012084F83D001F
:100EA0000020BDE700B585B00021009101910291BD
:100EB00003910068B0F1804F1ED11048C16941F024
:100EC0000101C161C16901F001010491816941F031
:100ED000040181618069694600F0040004900320E8
:100EE00000900748FFF790F9002211461C20FFF7F9
:100EF000F3FA1C20FFF7E2FA05B000BD0010024033
:100F00000008014010B50446006891B1042904D0DE
:100F10000122002100F082FA206801225FF0040122
:100F200000F07CFA2068016841F0010101600020B6
:100F300010BD01220021F3E7704770B50446006838
:100F400001694FF00005C943890715D4C168C94339
:100F5000890711D4E91E016101202077206880698A
:100F60008007204602D0FFF7E7FF04E000F098F882
:100F7000204600F096F8257720680169C9434907A3
:100F800017D4C168C943490713D46FF00401016144
:100F9000022020772068806910F4407F204602D02C
:100FA000FFF7CAFF04E000F07BF8204600F079F874
:100FB000257720680169C943090716D4C168C94368
:100FC000090712D46FF0080101610420207720681E
:100FD000C0698007204602D0FFF7AEFF04E000F0B2
:100FE0005FF8204600F05DF8257720680169C94365
:100FF000C90617D4C168C943C90613D46FF01001DC
:101000000161082020772068C06910F4407F2046E5
:1010100002D0FFF791FF04E000F042F8204600F014
:1010200040F8257720680169C943C90708D1C1681C
:10103000C943C90704D1891E0161204600F032F876
:1010400020680169C943090609D4C168C943090672
:1010500005D46FF0800101612046FFF7FFFD206895
:101060000169C943490609D4C168C943490605D481
:101070006FF040010161204600F024F8206801690A
:10108000C94389060BD4C168C943890607D46FF0E8
:10109000200101612046BDE87040FFF7E0BD70BD52
:1010A00070477047054900680968884204D14FF4C9
:1010B00000710348FFF798B9704700000401002051
:1010C000000C01407047FEE72DE9F04385B0002495
:1010D00033480094019402940394816941F0100113
:1010E0008161816901F010010491816941F0200161
:1010F0008161816901F020010491816941F004015D
:101100008161816901F004010491816941F0080164
:1011100081618069234F00F008004FF4C0450490BE
:10112000012229463846FFF766F9DFF87C80012264
:101130001C214046FFF75FF9DFF870900122110390
:101140004846FFF758F9002279154846FFF753F94A
:101150000095032601250396CDE9015469463846DA
:10116000FFF752F81C20CDE90005CDE9024669469B
:101170004046FFF749F8CDE90054694648460294D5
:10118000FFF742F84FF49050CDE90005CDE9024653
:1011900069464846FFF738F805B0BDE8F08300001F
:1011A000001002400010014000080140000C014006
:1011B0000C480B494FF4007201604FF4827141609A
:1011C00000218160C1600161C0E905120822C0E907
:1011D0000721416281620A21C162FFF77DBC0000E4
:1011E00000300140140000200C480B494FF40072FD
:1011F00001604FF48271416000218160C160016132
:10120000C0E905121822C0E90721416281620A2162
:10121000C162FFF761BC0000003800406C00002094
:1012200010B58CB024216846FEF783FF00241148D6
:1012300009944FF080410A94C0E900144FF6FF7101
:10124000C0E90241046184610120CDE90004CDE9D7
:1012500002040494CDE905400794694605480894C2
:10126000FFF7D4FD099409A902480A94FFF7F8FC96
:101270000CB010BDC400002010B586B00024124888
:10128000009401940294039404940E49059401601F
:101290004FF4E151C0E9011442F21071C0E90314A6
:1012A0008461FFF7FEFC4FF48050009069460648C9
:1012B000FFF741FD049404A903480594FFF7D0FC0F
:1012C00006B010BD0004004004010020FEE7704796
:1012D000704700000148FFF78FBB0000140000209A
:1012E0000148FFF789BB00006C00002010B5406A80
:1012F0000021C187C186FFF77DFB10BD7047FFF756
:1013000085B830B58FB028216846FEF712FF14214A
:101310000AA8FEF70EFF01210804CDE90010002401
:10132000029402250491CDE907504FF4E010099092
:101330006846FFF7CFF90F20CDE90A056802CDE92D
:101340000C4002210AA80E94FFF7F8F80FB030BD48
:101350000D48016841F00101016041680B4A1140EC
:10136000416001680A4A11400160016821F480214E
:101370000160416821F4FE0141604FF41F0181606A
:101380000449C00308607047001002400000FFF8E5
:10139000FFFFF6FE08ED00E00148FFF7CEBD0000BC
:1013A000C40000200148FFF7C8BD00000401002070
:1013B000F0B50268164B174C174D4FF08047984216
:1013C00005D0B84203D0A04201D0A84203D122F0F8
:1013D00070064A683243984205D0B84203D0A04212
:1013E00001D0A84203D122F44074CA6822434C6958
:1013F00022F08002224302608A68C2620A68826226
:10140000984201D10969016301214161F0BD0000E9
:10141000002C0140000400400008004010B501F01D
:101420001F030121046A99408C430462016A9A40B7
:101430001143016210BD10B5846842EA032224F40E
:101440007F440A432243826010BD826822F070020A
:101450000A4342F007018160704710B5036A046ACD
:1014600024F001040462846924F0F00444EA0214C4
:1014700023F00A020A438461026210BD10B5036AB8
:1014800023F0100303628369046A23F4704343EA80
:10149000023224F0A00343EA01118261016210BD0F
:1014A000FEE70907090E002804DB00F1E02080F8C0
:1014B0000014704700F00F0000F1E02080F8141DC8
:1014C000704702E008C8121F08C1002AFAD170470D
:1014D0007047002001E001C1121F002AFBD17047B4
:1014E000FEF79CFFFFF70DFFFFF7EEFDFFF798FEFD
:1014F000FFF75EFEFFF778FEFFF7BEFE0B48FFF733
:1015000009FC0A4800214038FFF7FCFC07494FF46A
:101510007A70403909684862C306044A0448596A27
:1015200089B201801468E162F9E70000040100203B
:101530000000002000000000000000000102030481
:1015400006070809641500080000002014000000C8
:10155000C2140008781500081400002034050000AB
:10156000D21400080000000001000000100000007C
:08157000000000000024F4005B
:04000005080000ED02
:00000001FF
