:020000040800F2
:10000000C005002001010008F7170008FB120008D6
:10001000F517000845030008A11B000800000000B8
:100020000000000000000000000000002919000886
:100030007103000800000000F91700082B190008E0
:100040001B0100081B0100081B0100081B01000820
:100050001B0100081B0100081B0100081B01000810
:100060001B0100081B0100081B0100081B01000800
:100070001B0100081B0100081B0100081B010008F0
:100080001B0100081B0100081B0100081B010008E0
:100090001B0100081B0100081B0100081B010008D0
:1000A0001B0100081B0100081B0100081B010008C0
:1000B0001B0100081B0100081B0100081B010008B0
:1000C0001B0100081B0100081B010008FD170008A8
:1000D0001B0100081B0100081B0100081B01000890
:1000E0001B0100081B0100081B010008DFF80CD0F1
:1000F00000F016F900480047A51C0008C0050020C4
:100100000648804706480047FEE7FEE7FEE7FEE7B1
:10011000FEE7FEE7FEE7FEE7FEE7FEE77D190008E3
:10012000ED00000840EA01039B0703D009E008C97D
:10013000121F08C0042AFAD203E011F8013B00F8AC
:10014000013B521EF9D27047D2B201E000F8012BF8
:10015000491EFBD270470022F6E710B513460A4647
:1001600004461946FFF7F0FF204610BDF0B480EAC0
:100170000102D40F4200B2EB410F02D20246084600
:1001800011464A0042D0C30DDDB2C1F3C752AD1AC9
:10019000202D35DAC1F3160141F4000204B15242B8
:1001A000C5F1200602FA06F12A411044B3EBD05FF4
:1001B00023D0C4B1012DA0EBC35009DCF0BC4FF03B
:1001C000004202EAC352DBB200F5000000F07AB848
:1001D000400000F1807000EBC350A0F1807040EA55
:1001E000D170490009E0490841EAC071A0EBC35051
:1001F00000F50000400800EBC350F0BC00F059B817
:100200006142012202EB4101001BF6E7F0BC70479E
:1002100081F00041AAE780F00040A7E780EA0102F0
:1002200010B502F00043400022D04A001FD0010E5A
:1002300001EB1261C0F35600C2F3560240F4000015
:1002400042F40002A0FB022000047F39140400D015
:10025000401C50EA124001D44000491EC2B20C06B4
:1002600004EBD010401C4008802A02D003E000209C
:1002700010BD20F00100002900DA0020184310BD55
:1002800096230022114600F01DB820F00040C10D59
:10029000C0F3160040F400007F2901DA0020704707
:1002A000962903DCC1F19601C84070479639884011
:1002B00070470029A8BF7047401C490008BF20F0C4
:1002C0000100704710B4B0FA80FC00FA0CF050EA5C
:1002D000010404BF10BC704749B1CCF1200421FADD
:1002E00004F411FA0CF118BF012121430843A3EBD8
:1002F0000C01CB1D4FEA00614FEA102042BF0020E5
:1003000010BC704700EBC35010440029A4BF10BCC0
:100310007047401C490008BF20F0010010BC704726
:10032000064C074D06E0E06840F0010394E8070042
:1003300098471034AC42F6D3FFF7DCFEE01D00080E
:10034000001E0008FEE700000548044981600549D9
:10035000C160054901610549416170471347493E44
:10036000F000002015BC1C3EB337D5C33C0DACC318
:100370007047000010B590F821100024022903D026
:100380000421816301243DE001680A6822F00E0225
:100390000A6001680A6822F001020A601A4A0168CC
:1003A000914201D1012121E0174A1432914201D139
:1003B00010211BE0144A2832914201D1891515E021
:1003C000114A3C32914201D189140FE00E4A503259
:1003D000914202D14FF4803108E00B4A64329142DD
:1003E00002D14FF4801101E04FF08071064A083AC3
:1003F0005160012180F82110002180F82010416B0C
:1004000001B18847204610BD0800024070B504467F
:1004100000F004F90546601C02D00448007804444A
:1004200000F0FCF8401BA042FAD370BD3000002061
:100430002DE9F84FDFF8B891002409F1040A0AF118
:10044000040B23460F270BF1040EC9E00125A5403C
:100450002A40AA427DD1674ED1F804C0ACEB060811
:10046000B44532D014DCBCF1030F3AD009DCBCF146
:10047000000F2AD0BCF1010F1CD0BCF1020F31D10A
:100480001DE0BCF1110F17D0BCF1120F2AD119E0F9
:10049000B8F5881F19D006DCB8F5803F15D0B8F53F
:1004A000801F1FD111E0B8F5001F0ED0B8F5041F52
:1004B00018D10AE0CB6815E0CB681B1D12E0CB68B1
:1004C00008330FE0CB680C330CE08B682BB1012BA9
:1004D0004FF0080303D0456104E0042302E0056106
:1004E00000E00023FF2A01D8064601E000F10406DF
:1004F0004FEA840501D9A5F12005D6F8008007FA56
:1005000005FC28EA0C0803FA05F548EA0508C6F8D0
:1005100000804D68ED0062D5374DAE6946F00106AA
:10052000AE61AD6924F0030605F001050095334D79
:1005300006EB050CDCF80850A607360F07FA06F89C
:1005400025EA0805DFF8B880404503D14FF00008E0
:1005500017E044E0DFF8AC80404502D14FF00108DD
:100560000FE0DFF8A480404502D14FF0020808E018
:10057000DFF89880404502D14FF0030801E04FF0CA
:10058000040808FA06F848EA0508CCF808804D681F
:10059000D9F80060ED034D4601D5164300E09643BF
:1005A0002E604D68DAF80060AD03554601D516435C
:1005B00000E096432E604D68DBF80060ED025D467A
:1005C00001D5164300E096432E604D68DEF80060CA
:1005D000AD02754601D5164300E096432E60641CBB
:1005E0000D682A46E5407FF431AFBDE8F88F000082
:1005F0000004014000001110001002400000014002
:1006000000080140000C01400010014000140140AE
:100610000AB1016170470904FBE7000001488068E6
:1006200070470000300000200248816802781144C1
:100630008160704730000020074810B5016841F024
:1006400010010160032000F075F8002000F006F8AA
:1006500000F024F8002010BD0020024070B50D4DC0
:1006600004464FF47A712878B1FBF0F00A49096822
:10067000B1FBF0F000F02DFE48B9102C07D200229B
:100680002146501E00F036F800206C6070BD01203D
:1006900070BD0000300000203C0000200C4808B570
:1006A000816941F001018161816901F001010091DD
:1006B000C16941F08051C161C06900F08050009073
:1006C0000448416821F0E06141F00071416008BDDB
:1006D0000010024000000140002809DB00F01F026A
:1006E000012191404009800000F1E020C0F8001194
:1006F00070470000F0B40E4B1B680C46C3F3022396
:10070000C3F10705042D00D90425191D072901D2BD
:10071000002300E0DB1E012606FA05F1491E2140F8
:1007200099409E40761E16403143F0BC01F039BA24
:100730000CED00E0064900F0070208684FF6FF03E1
:10074000184040EA0220034A104308607047000046
:100750000CED00E00000FA052DE9F0470F4605001A
:1007600061D0434E306800F00700B84209D23068CB
:1007700020F0070038433060306800F00700B842CE
:1007800051D128683B4C810712D5400703D56068DA
:1007900040F4E06060602878000703D5606840F4AA
:1007A000605060606068A96820F0F00008436060F5
:1007B0002878C00728D06868012810D0216802284E
:1007C00010D0890700292EDA616821F00301014366
:1007D0006160FFF723FF804641F288390DE0216810
:1007E0008903EFE78901EDE7FFF718FFA0EB0801A8
:1007F000494502D90320BDE8F0876068696800F0C8
:100800000C00B0EB810FEFD1306800F00700B84268
:100810000BD9306820F0070038433060306800F0B2
:100820000700B84201D00120E5E72878400705D548
:100830006068E96820F4E060084360602878000799
:1008400006D56068296920F4605040EAC100606004
:1008500000F018F86168084AC1F30311515CC84000
:100860000649086006480068FFF7F8FE0020C2E766
:100870000020024000100240D01D00083C00002073
:100880003400002012A185B00FC98DE80F0014A01C
:10089000144A006804905168134801F00C03042BBB
:1008A00010D0082B0ED1C1F38343C9031DF80300F8
:1008B0000AD5516804AAC1F34041515C0A4A504329
:1008C000B0FBF1F005B0704708494843FAE7000073
:1008D00002030405060708090A0B0C0D0E0F101081
:1008E000010200000010024000127A0000093D00E1
:1008F0002DE9F84F040070D02078C04DC00749D0D2
:100900006868C0F38100012807D06868C0F38100DF
:10091000022809D16868C00306D52868800339D544
:1009200060680028E7D035E06068B0F5803F0BD004
:1009300010B1B0F5A02F11D0286820F480302860C5
:10094000286820F4802002E0286840F48030286085
:10095000606890B1FFF762FE06460AE0286840F43E
:1009600080202860F0E700BFFFF758FE801B642856
:1009700073D828688003F7D50CE0FFF74FFE0646D2
:1009800005E000BFFFF74AFE801B6428F0D8286806
:100990008003F7D420789A4E80074FF001094FF07A
:1009A000000839D5686810F00C0F07D06868C0F3EC
:1009B0008100022809D16868C00306D4286880072E
:1009C00014D52069012808D110E02069B0B1C6F81B
:1009D0000090FFF723FE074605E00AE1FFF71EFE41
:1009E000C01B0228C4D828688007F7D52868616929
:1009F00020F0F80040EAC10028600DE0C6F8008051
:100A0000FFF70CFE074604E0FFF708FEC01B0228B4
:100A100023D828688007F7D4207800072CD5794898
:100A2000A169D9B1C0F80090FFF7F8FD074604E0CE
:100A3000FFF7F4FDC01B02280FD8686A8007F7D5BE
:100A400071484FF4FA510068B0FBF1F0009000BF1C
:100A50000098411E0091FAD20EE080E0C0F80080BC
:100A6000FFF7DCFD074604E0FFF7D8FDC01B0228B6
:100A700075D8686A8007F7D42078400760D5E869A0
:100A80000027C00008D4E86940F08050E861E869B8
:100A9000012700F0805000905C480168C90513D41C
:100AA0000168834641F480710160FFF7B7FD82461B
:100AB00006E000BFFFF7B2FDA0EB0A0064284ED8A5
:100AC000DBF80000C005F5D5E06801280AD008B1C0
:100AD000052813D0286A20F001002862286A20F037
:100AE000040002E0286A40F001002862E06841F258
:100AF000883B98B1FFF792FD82460BE0286A40F0F0
:100B000004002862EEE700BFFFF788FDA0EB0A01B2
:100B100059455AD8286A8007F6D50CE0FFF77EFDC4
:100B2000824605E0FFF77AFDA0EB0A0159454CD853
:100B3000286A8007F6D41FB1E86920F08050E86188
:100B4000E06988B36968C1F38101022944D00228B1
:100B5000C6F8608004D0FFF761FD044638E034E059
:100B6000FFF75CFD074604E0FFF758FDC01B0228B5
:100B70002BD828688001F7D4206AB0F5803F05D1D2
:100B80006868A16820F4003008436860D4E908016F
:100B90000843696821F4741108436860C6F86090DE
:100BA000FFF73CFD044606E025E000BFFFF736FDF9
:100BB000001B022809D828688001F7D51BE000BF78
:100BC000FFF72CFD001B022802D90320BDE8F88F97
:100BD00028688001F4D40EE00128F7D06868226A02
:100BE00000F48031914204D1616A00F470108842AF
:100BF00001D00120EAE70020E8E7000000100240F1
:100C000000004242800442423C000020007000404C
:100C10007047000038B50446006842688168C943DF
:100C20004B0606D5CB0704D1D3435B0601D4216C18
:100C300005E08B0708D4D3431B0605D4616C01B0D3
:100C40002046BDE8304008478B0601D54B0646D408
:100C5000D3439B0643D44B060AD494F85130032B5C
:100C60003ED0636D43F004036365C36883680093FB
:100C7000890609D4616D41F00101616581680091C7
:100C8000016821F040010160606D002827D02068D4
:100C9000416821F0E0014160012084F85100900793
:100CA00022D02068416821F003014160104DE06CC2
:100CB00040B14563E06CFFF75DFB18B1606D40F03B
:100CC00040006065A06C002809D04563A06CFFF768
:100CD00051FB002803D0606D40F04000606538BDD6
:100CE000C1688068009038BD2046FFF791FF38BD8D
:100CF0000918000870B5040005D00025A56294F815
:100D0000510010B106E0012070BD84F8505020461B
:100D100000F02EF8022084F851002068016821F0CC
:100D200040010160D4E901010843D4E903121143F1
:100D3000084361690843218B01F400710843E169AC
:100D40000843216A0843A16A084321680860A06932
:100D5000042101EA1040216848602068C16921F43B
:100D60000061C1616565012084F85100002070BDFB
:100D700030B585B0002400940194029403942C4D66
:100D800003682C4802210322AB422AD1836943F431
:100D900080538361836903F480530493836943F030
:100DA000040383618069244D00F004000490A020B6
:100DB000CDE90001039269462846FFF739FB402040
:100DC000CDE90004694628460294FFF731FB002272
:100DD00011462320FFF78EFC2320FFF77DFC05B092
:100DE00030BD164DAB42FAD1C36943F48043C361B1
:100DF000C36903F480430493836943F00803836168
:100E000080690F4D00F0080004904FF42040CDE9B8
:100E10000001039269462846FFF70AFB4FF4804021
:100E2000CDE90004694628460294FFF701FBD6E7A6
:100E3000003001400010024000080140003800402E
:100E4000000C01402DE9F84F044640680025984603
:100E500016460F464FF0040BB0F5827F01D1A06813
:100E600088B194F85000012818D0012084F850006F
:100E7000FFF7D4FB814694F851004FF0000A012897
:100E80000ED002257DE084F851B013460A46204674
:100E9000CDF8008000F02CF9BDE8F88F0220FBE7C8
:100EA000002F6DD0002E6BD084F851B0C4F854A040
:100EB000A763A687E687C4F830A0A4F834A0A4F8F6
:100EC00036A0C4F840A0C4F844A0A068B0F5004F14
:100ED00004D12068016821F4804101602068016824
:100EE000490603D4016841F040010160E068D8B1CF
:100EF00039E020688168C90709D0007BA16B0870C0
:100F0000A06B401CA063E08F401EE0870CE0FFF761
:100F100085FBA0EB0901414503D3B8F1FF3F03D0A6
:100F200036E0B8F1000F33D0E08F0028E1D11DE0AA
:100F300020688168C90709D0C068A16B0880A06BD0
:100F4000801CA063E08F401EE0870CE0FFF766FB8B
:100F5000A0EB0901414503D3B8F1FF3F03D017E0EF
:100F6000B8F1000F14D0E08F0028E1D14A46414685
:100F7000204600F051FC08B120206065606D00B192
:100F80000125012084F8510084F850A0284683E709
:100F90000325F6E72DE9F84F044690F850000027A6
:100FA0001D461646894601280DD04FF0010B84F8E6
:100FB00050B0FFF733FB804694F85100BA46012841
:100FC00004D002278EE00220BDE8F88FB9F1000FAF
:100FD0007DD0002E7BD0032084F85100C4F854A0AB
:100FE000C4F83090A686E686C4F838A0A4F83CA0E1
:100FF000A4F83EA0C4F844A0C4F840A0A068B0F58E
:10100000004F04D12068016841F4804101602068EC
:101010000168490603D4016841F040010160E068BD
:10102000B0F5006F606803D030B3012E24D040E0EB
:1010300008B1012E1CD1206B21680088C86006E031
:1010400020688168890709D5216B0988C160206BF8
:10105000801C2063E08E401EE08609E0FFF7DEFA88
:10106000A0EB0800A84202D3681C01D031E07DB398
:10107000E08E0028E4D11FE0206B2168007808731F
:1010800006E020688168890709D5216B097801731A
:10109000206B401C2063E08E401EE08609E0FFF7D5
:1010A000BDFAA0EB0800A84202D3681C01D010E0F2
:1010B00075B1E08E0028E4D142462946204600F072
:1010C000D9FB08B120206065A06820B107E008E0E6
:1010D000FFE7032706E02068C16880680090606D24
:1010E00000B1012784F851B084F850A038466BE76E
:1010F0002DE9F84F044690F8500000270A9E1D463F
:1011000092468B464FF0010901280ED0012084F849
:101110005000FFF783FA804694F851006168012877
:101120000CD0B1F5827F07D102E00220BDE8F88F34
:10113000A16809B9042801D00227C2E0BBF1000F61
:1011400027D0BAF1000F24D01DB394F85100042821
:1011500002D0052084F8510000206065C4F838A052
:10116000E587A587C4F830B0E586A586206460646D
:1011700020680168490603D4016841F0400101601C
:10118000E068B0F5006F606805D0E8B3012D46D087
:101190007FE0012795E008B1012D39D1206B21684E
:1011A0000088C860206B801C2063E08E401EE086B3
:1011B0002EE02068816889070FD5E18E69B1B9F109
:1011C000010F0AD1216B0988C160206B801C20634C
:1011D000E08E401EE0864FF0000920688168C90754
:1011E0000CD0E18F51B1C068A16B0880A06B801C4E
:1011F000A063E08F401EE0874FF00109FFF70EFA71
:10120000A0EB0800B04200E009E001D3701C50D10F
:10121000E08E0028CDD1E08F0028CAD13FE0206BBE
:10122000216800780873206B401C2063E08E401E0C
:10123000E0862EE02068816889070FD5E18E69B1CC
:10124000B9F1010F0AD1216B09780173206B401CA1
:101250002063E08E401EE0864FF000092068816820
:10126000C9070CD0E18F51B1C068A16B0870A06BA9
:10127000401CA063E08F401EE0874FF00109FFF79C
:10128000CDF9A0EB0800B04202D3701C01D010E0F1
:101290007EB1E08E0028CDD1E08F0028CAD1424631
:1012A0003146204600F0E6FA28B10127202060658B
:1012B00007E0032705E0A06818B92068C1688068C6
:1012C0000090012084F85100002084F85000384636
:1012D0002CE710B5401EB0F1807F01D3012010BD76
:1012E0004FF0E02460610F21601700F05AFC0020ED
:1012F000A06107202061002010BDFEE710B5144654
:101300000B46024600F00AF9200A00F0E9F8E0B2C4
:10131000BDE8104000F0E4B870B5141A5E1A641C01
:10132000761C74434FF49636049DB44200D934467B
:101330009BB292B289B280B200F0F0F82E0A06E0B9
:101340003046641E00F0CCF8E8B200F0C9F8002C7A
:10135000F6D170BD2DE9F047884608A9154691E8F9
:10136000C0040146994658224C48FEF7DBFE4C4C1F
:1013700040462946C4F808806580C4F80C90A680D1
:101380000122FFF745F92761A4F806A00122514682
:101390003846FFF73DF9012000F084F86420FFF79C
:1013A00035F8282000F07EF8C02000F07BF82620D9
:1013B00000F096F8C12000F075F8112000F090F8C8
:1013C000C52000F06FF8352000F08AF83E2000F0CC
:1013D00087F8C72000F066F8BE2000F081F83620BC
:1013E00000F060F8482000F07BF83A2000F05AF84E
:1013F000552000F075F8B12000F054F8002000F0FE
:101400006FF81F2000F06CF82A2000F04BF8002045
:1014100000F066F8002000F063F8002000F060F8AB
:10142000EF2000F05DF82B2000F03CF8002000F0E9
:1014300057F8002000F054F8012000F051F83F2048
:1014400000F04EF8342000F02DF8B72000F02AF814
:10145000072000F045F8B62000F024F80A2000F03C
:101460003FF8822000F03CF8272000F039F80020F7
:1014700000F036F8112000F015F86420FEF7C6FFE2
:10148000292000F00FF86420FEF7C0FF2C2000F0A8
:1014900009F8BDE8F0470520FEF7B8BF400000207E
:1014A0000000002038B50C4C8DF800000022A18807
:1014B000E068FFF7ADF800226188A068FFF7A8F8A0
:1014C0000523012269460548FFF764FD0122618872
:1014D000A068FFF79DF838BD000000204000002004
:1014E00038B50C4C8DF800000122A188E068FFF7A8
:1014F0008FF800226188A068FFF78AF8052301228F
:1015000069460548FFF746FD01226188A068FFF79C
:101510007FF838BD00000020400000202DE9F04198
:1015200007461C4615460E462A20FFF7BBFF380A21
:10153000FFF7D6FFF8B2FFF7D3FF280AFFF7D0FF77
:10154000E8B2FFF7CDFF2B20FFF7ACFF300AFFF723
:10155000C7FFF0B2FFF7C4FF200AFFF7C1FFE0B2F8
:10156000FFF7BEFFBDE8F0412C20FFF79BBF08B599
:101570000A44521E009313B2024600F001F808BD5F
:101580002DE9F05F0C4606461546191BA2EB060036
:1015900000D54942002800DA4042814207DD30464A
:1015A00026461D464FF001080446134601E04FF061
:1015B0000008AE4205DD30462E46054620461C4654
:1015C0000346A81B0FFA80F9181B00D540420FFAFA
:1015D00080FB09EBD97047109C4201DA012001E041
:1015E0004FF0FF30824617E0B8F1000F02D0B1B2E1
:1015F000A0B201E0A1B2B0B20A9AFFF77FFEA7EB5A
:101600000B0007B2002F05DA04EB0A0004B207EB67
:10161000090007B2761C36B2AE42E5DDBDE8F09FA8
:101620002DE9FC4107461446012000EB440002B2BC
:101630000D46081B01B21E463846FFF798FF0020F2
:10164000CDE90006032322462946384600F0C8FAB1
:10165000BDE8FC81014800787047000000000020D0
:1016600010B501221349012805D0022809D003280A
:101670000ED0042813D00A703620FFF713FF8820FD
:1016800013E0022008703620FFF70CFF28200CE042
:10169000032008703620FFF705FF482005E00420EE
:1016A00008703620FFF7FEFEE820BDE81040FFF787
:1016B00017BF0000000000202DE9F04786B000248D
:1016C0002C480094019402940394816941F0100124
:1016D0008161816901F010010491816941F020016B
:1016E0008161816901F020010491816941F0040167
:1016F0008161816901F004010491816941F008016F
:1017000081618069012200F00800DFF86C805503D8
:10171000049029464046FEF77BFFDFF860900122E7
:101720001C214846FEF774FF0122DFF854A017037E
:1017300039465046FEF76CFF0095032601250396B7
:10174000CDE9015469464046FEF772FE1C20CDE902
:101750000005CDE9024669464846FEF769FE009756
:101760000396CDE9015469465046FEF761FE06B086
:10177000BDE8F08700100240001001400008014061
:10178000000C01400C480B494FF4007201604FF40B
:101790008271416000218160C1600161C0E9051270
:1017A0001822C0E90721416281620A21C162FFF764
:1017B000A1BA0000003001400C0100200C480B4988
:1017C0004FF4007201604FF482714160002181602A
:1017D000C1600161C0E905122022C0E90721416210
:1017E00081620A21C162FFF785BA0000003800401B
:1017F00064010020FEE77047704700000148FFF7D2
:1018000009BA00000C01002010B5406A0021C18710
:10181000C186FFF7FDF910BDF8B5044640684FF4E6
:101820008273984217D1A0684FF48065B0F5004FDD
:1018300001D0A8420FD12068066826F04006066055
:101840006068984207D1A068A84204D100920B4674
:101850000022012103E000920B4600228021204655
:1018600000F018F8002804D0606D40F0200060659A
:101870000320F8BD38B50B460092044600228021B3
:1018800000F008F8002804D0606D40F0200060658A
:10189000032038BD2DE9F0411D4617460E4604468B
:1018A000DDF8188008E0681C06D0FEF7B7FEA0EB54
:1018B0000800A8420BD255B12068806836EA0000C3
:1018C00030D00020B842EED10020BDE8F081206881
:1018D000416821F0E00141606068B0F5827F0BD182
:1018E000A068B0F5004F02D0B0F5806F04D1206839
:1018F000016821F040010160A06AB0F5005F09D1E4
:101900002068016821F4005101602068016841F4F9
:1019100000510160012084F85100002084F850003B
:101920000320D2E70120CDE77047FEF77DBE30B53A
:101930008FB028216846FEF70EFC14210AA8FEF796
:101940000AFC01210804CDE90010002402940225BC
:101950000491CDE907504FF4E01009906846FEF776
:10196000C7FF0F20CDE90A056802CDE90C4002212E
:101970000AA80E94FEF7F0FE0FB030BD0D480168C6
:1019800041F00101016041680B4A1140416001686A
:101990000A4A11400160016821F480210160416818
:1019A00021F4FE0141604FF41F0181600449C0032E
:1019B00008607047001002400000FFF8FFFFF6FECD
:1019C00008ED00E070B50E46154601465822054860
:1019D000FEF7A8FB044C66606580FFF73BFE607075
:1019E00070BD000098000020140000202DE9F04791
:1019F000DFF88490E627214D99F8010009F10804E9
:101A00004FF4A076012808D04FF0F00802280DD03E
:101A1000032817D004282AD120E000F0A9F8A0F666
:101A2000FF704042208000F0ABF813E000F0A8F80F
:101A3000A0F6FF704042208000F09AF8A0F6FF70F8
:101A4000404210E000F094F8208000F099F8A0F6F1
:101A5000FF70404260802F836E8308E000F090F8B2
:101A6000208000F085F860802E83A5F81A80D9F8D0
:101A70000800BDE8F087000014000020F0000020FE
:101A80002DE9FC47002781463E4600F081F8204CB6
:101A9000322816D901208DF800000025A4F108088D
:101AA000FFF7A4FFC8F8080020886D1C384487B2EF
:101AB000608815F0FF05304486B2F1D0278066803B
:101AC00002E000208DF800002088FEF7D9FB114DC0
:101AD000A968FEF7A3FB2969FEF748FBFEF7D5FBD3
:101AE000ADF802006088FEF7CBFBE968FEF796FBD5
:101AF0006969FEF73BFBFEF7C8FBADF804000099EF
:101B0000C9F80010BDF80410A9F80410BDE8FC875E
:101B10001C000020F000002038B5054600200446D7
:101B200002460090104841884068FEF771FD8DF82C
:101B300000500A23012269460C48FFF72BFA0320C4
:101B4000FEF764FC0A23022208480DF10101FFF7A9
:101B500079F930B99DF801009DF80210000100EB01
:101B60001114204638BD0000140000209800002009
:101B70000248007840F05000FFF7CEBF140000206C
:101B80000248007840F01000FFF7C6BF14000020A4
:101B90000248007840F03000FFF7BEBF140000207C
:101BA000FEE70907090E002804DB00F1E02080F8B9
:101BB0000014704700F00F0000F1E02080F8141DC1
:101BC000704702E008C8121F08C1002AFAD1704706
:101BD0007047002001E001C1121F002AFBD17047AD
:101BE0002DE9FF5F8146C2F1010006B2C2EBC230AF
:101BF0004000012788460FFA80FB00251446DDF8D7
:101C000038A04AE0002E08DB0BF102000FFA80FB3F
:101C1000641E06EB0B0024B206B2BF1C6D1C3FB263
:101C2000F01906B203982DB2C00719D00AEB440090
:101C3000401C02B2A8EB040001B209EB050000B29F
:101C40000F9BFFF794FC0AEB4500401C02B2A8EB87
:101C5000050001B209EB040000B20F9BFFF787FCFF
:101C60000398800719D50AEB4400401C02B2A8EB88
:101C7000040001B2A9EB050000B20F9BFFF777FC4F
:101C80000AEB4500401C02B2A8EB050001B2A9EB2B
:101C9000040000B20F9BFFF76AFCA542B2DBBDE86F
:101CA000FF9F00000EB5FEF7C7FCFFF740FEFFF7F1
:101CB00003FDFFF767FDFFF781FD41490822CDE9EC
:101CC0000021042002900B4610223E48FFF742FB01
:101CD0000220FFF7C5FC4FF6FF7640F217180021EF
:101CE000EF23424608460096FFF716FB4FF4784074
:101CF00040F23F144FF48C7500903B2322460021A4
:101D00002846FFF709FB4FF4FC600090772322463A
:101D10003C212846FFF700FB1F200090B3232246FA
:101D200078212846FFF7F8FA0027EF232246B4214E
:101D300028460097FFF7F0FA22484FF480522249D4
:101D40005830FFF73FFEFEF7FFFA204DAC1C684607
:101D5000FFF796FE0098C5F80200BDF80400E88081
:101D600020780028F3D06088A0F58C7028281AD23B
:101D7000A0883C2800D22F70A0F13C013C2901D260
:101D800001212970A0F178013C2901D2022129709A
:101D9000B4383C28DBD20021EF23424608460096A7
:101DA000FFF7BAFAD3E7094829780830022230F859
:101DB0001130B4F90410B4F90200FFF731FCC6E7A2
:101DC000000801400C010020000C01402000002010
:101DD00000000000000000000102030406070809DB
:101DE000001E00080000002040000000C21B000888
:101DF000401E00084000002080050000D21B0008A3
:101E000001000000000000000000000000000000D1
:101E1000000000008400000000000000000000003E
:101E2000000000000000000000F8E0071F000000B4
:101E30000100000010000000000000000024F40079
:04000005080000ED02
:00000001FF
