:020000040800F2
:100000007804002001010008DB0D00089D0D0008A8
:10001000D90D0008990100084D0F000800000000EC
:10002000000000000000000000000000B10E000809
:100030009B01000800000000DD0D0008B30E000861
:100040001B0100081B0100081B0100081B01000820
:100050001B0100081B0100081B0100081B01000810
:100060001B0100081B0100081B0100081B01000800
:100070001B0100081B0100081B0100081B010008F0
:100080001B0100081B0100081B0100081B010008E0
:100090001B0100081B0100081B0100081B010008D0
:1000A0001B0100081B0100081B0100081B010008C0
:1000B0001B0100081B0100081B0100081B010008B0
:1000C0001B0100081B0100081B010008E10D0008CE
:1000D0001B0100081B0100081B0100081B01000890
:1000E0001B0100081B0100081B010008DFF80CD0F1
:1000F00000F040F80048004719110008780400207B
:100100000648804706480047FEE7FEE7FEE7FEE7B1
:10011000FEE7FEE7FEE7FEE7FEE7FEE7050F000865
:10012000ED000008D2B201E000F8012B491EFBD21D
:1001300070470022F6E710B513460A4604461946F2
:10014000FFF7F0FF204610BD30B50B4601460020FA
:100150002022012409E021FA02F59D4205D303FA89
:1001600002F5491B04FA02F52844151EA2F101020A
:10017000F1DC30BD064C074D06E0E06840F00103BD
:1001800094E8070098471034AC42F6D3FFF7B2FF6B
:100190006082000880820008FEE7704710B590F882
:1001A00021100024022903D00421816301243DE0B1
:1001B00001680A6822F00E020A6001680A6822F0EB
:1001C00001020A601A4A0168914201D1012121E02D
:1001D000174A1432914201D110211BE0144A2832EF
:1001E000914201D1891515E0114A3C32914201D169
:1001F00089140FE00E4A5032914202D14FF48031FF
:1002000008E00B4A6432914202D14FF4801101E0C0
:100210004FF08071064A083A5160012180F82110A0
:10022000002180F82010416B01B18847204610BDA5
:100230000800024070B5044600F004F90546601C51
:1002400002D004480078044400F0FCF8401BA042AF
:10025000FAD370BD0C0000202DE9F84FDFF8B891FB
:10026000002409F1040A0AF1040B23460F270BF1BD
:10027000040EC9E00125A5402A40AA427DD1674E5F
:10028000D1F804C0ACEB0608B44532D014DCBCF1A4
:10029000030F3AD009DCBCF1000F2AD0BCF1010FEA
:1002A0001CD0BCF1020F31D11DE0BCF1110F17D0F1
:1002B000BCF1120F2AD119E0B8F5881F19D006DC5D
:1002C000B8F5803F15D0B8F5801F1FD111E0B8F503
:1002D000001F0ED0B8F5041F18D10AE0CB6815E056
:1002E000CB681B1D12E0CB6808330FE0CB680C33E2
:1002F0000CE08B682BB1012B4FF0080303D0456154
:1003000004E0042302E0056100E00023FF2A01D895
:10031000064601E000F104064FEA840501D9A5F183
:100320002005D6F8008007FA05FC28EA0C0803FA35
:1003300005F548EA0508C6F800804D68ED0062D56D
:10034000374DAE6946F00106AE61AD6924F0030693
:1003500005F001050095334D06EB050CDCF808505F
:10036000A607360F07FA06F825EA0805DFF8B88071
:10037000404503D14FF0000817E044E0DFF8AC80BF
:10038000404502D14FF001080FE0DFF8A48040455E
:1003900002D14FF0020808E0DFF89880404502D112
:1003A0004FF0030801E04FF0040808FA06F848EAA5
:1003B0000508CCF808804D68D9F80060ED034D467B
:1003C00001D5164300E096432E604D68DAF80060D0
:1003D000AD03554601D5164300E096432E604D68A7
:1003E000DBF80060ED025D4601D5164300E0964360
:1003F0002E604D68DEF80060AD02754601D51643EB
:1004000000E096432E60641C0D682A46E5407FF4A8
:1004100031AFBDE8F88F000000040140000011106A
:10042000001002400000014000080140000C0140A3
:1004300000100140001401400AB101617047090435
:10044000FBE7000001488068704700000C000020B6
:100450000248816802781144816070470C000020D6
:10046000074810B5016841F010010160032000F059
:1004700075F8002000F006F800F024F8002010BD08
:100480000020024070B50D4D04464FF47A71287873
:10049000B1FBF0F00A490968B1FBF0F000F06AFC2A
:1004A00048B9102C07D200222146501E00F036F821
:1004B00000206C6070BD012070BD00000C000020A9
:1004C000180000200C4808B5816941F001018161E4
:1004D000816901F001010091C16941F08051C16160
:1004E000C06900F0805000900448416821F0E0614C
:1004F00041F00071416008BD001002400000014061
:10050000002809DB00F01F02012191404009800012
:1005100000F1E020C0F8001170470000F0B40E4B6D
:100520001B680C46C3F30223C3F10705042D00D951
:100530000425191D072901D2002300E0DB1E012636
:1005400006FA05F1491E214099409E40761E16404C
:100550003143F0BC00F010BD0CED00E0064900F0A6
:10056000070208684FF6FF03184040EA0220034ADA
:1005700010430860704700000CED00E00000FA0531
:100580002DE9F0470F46050061D0434E306800F07A
:100590000700B84209D2306820F0070038433060C5
:1005A000306800F00700B84251D128683B4C810701
:1005B00012D5400703D5606840F4E0606060287899
:1005C000000703D5606840F4605060606068A96807
:1005D00020F0F000084360602878C00728D06868E1
:1005E000012810D02168022810D0890700292EDAAE
:1005F000616821F0030101436160FFF723FF80463A
:1006000041F288390DE021688903EFE78901EDE7C0
:10061000FFF718FFA0EB0801494502D90320BDE808
:10062000F0876068696800F00C00B0EB810FEFD1D3
:10063000306800F00700B8420BD9306820F007009E
:1006400038433060306800F00700B84201D0012024
:10065000E5E72878400705D56068E96820F4E060A0
:10066000084360602878000706D56068296920F48F
:10067000605040EAC100606000F018F86168084A04
:10068000C1F30311515CC840064908600648006880
:10069000FFF7F8FE0020C2E70020024000100240F1
:1006A00050820008180000201000002012A185B020
:1006B0000FC98DE80F0014A0144A00680490516817
:1006C000134801F00C03042B10D0082B0ED1C1F3FA
:1006D0008343C9031DF803000AD5516804AAC1F376
:1006E0004041515C0A4A5043B0FBF1F005B07047FD
:1006F00008494843FAE70000020304050607080911
:100700000A0B0C0D0E0F1010010200000010024029
:1007100000127A0000093D002DE9F84F040070D066
:100720002078C04DC00749D06868C0F38100012817
:1007300007D06868C0F38100022809D16868C00347
:1007400006D52868800339D560680028E7D035E0F1
:100750006068B0F5803F0BD010B1B0F5A02F11D07C
:10076000286820F480302860286820F4802002E087
:10077000286840F480302860606890B1FFF762FE1E
:1007800006460AE0286840F480202860F0E700BFB1
:10079000FFF758FE801B642873D828688003F7D5BC
:1007A0000CE0FFF74FFE064605E000BFFFF74AFEEC
:1007B000801B6428F0D828688003F7D420789A4EEC
:1007C00080074FF001094FF0000839D5686810F034
:1007D0000C0F07D06868C0F38100022809D168684F
:1007E000C00306D42868800714D52069012808D1E1
:1007F00010E02069B0B1C6F80090FFF723FE07466D
:1008000005E00AE1FFF71EFEC01B0228C4D82868D5
:100810008007F7D52868616920F0F80040EAC10038
:1008200028600DE0C6F80080FFF70CFE074604E0E4
:10083000FFF708FEC01B022823D828688007F7D4DA
:10084000207800072CD57948A169D9B1C0F800906B
:10085000FFF7F8FD074604E0FFF7F4FDC01B022890
:100860000FD8686A8007F7D571484FF4FA510068CD
:10087000B0FBF1F0009000BF0098411E0091FAD249
:100880000EE080E0C0F80080FFF7DCFD074604E0E2
:10089000FFF7D8FDC01B022875D8686A8007F7D417
:1008A0002078400760D5E8690027C00008D4E869CF
:1008B00040F08050E861E869012700F08050009026
:1008C0005C480168C90513D40168834641F480710E
:1008D0000160FFF7B7FD824606E000BFFFF7B2FDFB
:1008E000A0EB0A0064284ED8DBF80000C005F5D55F
:1008F000E06801280AD008B1052813D0286A20F042
:1009000001002862286A20F0040002E0286A40F012
:1009100001002862E06841F2883B98B1FFF792FD40
:1009200082460BE0286A40F004002862EEE700BF30
:10093000FFF788FDA0EB0A0159455AD8286A8007BD
:10094000F6D50CE0FFF77EFD824605E0FFF77AFD65
:10095000A0EB0A0159454CD8286A8007F6D41FB18C
:10096000E86920F08050E861E06988B36968C1F304
:100970008101022944D00228C6F8608004D0FFF724
:1009800061FD044638E034E0FFF75CFD074604E013
:10099000FFF758FDC01B02282BD828688001F7D428
:1009A000206AB0F5803F05D16868A16820F4003066
:1009B00008436860D4E908010843696821F47411A8
:1009C00008436860C6F86090FFF73CFD044606E007
:1009D00025E000BFFFF736FD001B022809D8286874
:1009E0008001F7D51BE000BFFFF72CFD001B02289C
:1009F00002D90320BDE8F88F28688001F4D40EE006
:100A00000128F7D06868226A00F48031914204D14D
:100A1000616A00F47010884201D00120EAE70020EA
:100A2000E8E7000000100240000042428004424219
:100A300018000020007000407047000038B50446E0
:100A4000006842688168C9434B0606D5CB0704D1CC
:100A5000D3435B0601D4216C05E08B0708D4D34354
:100A60001B0605D4616C01B02046BDE83040084744
:100A70008B0601D54B0646D4D3439B0643D44B0685
:100A80000AD494F85130032B3ED0636D43F0040335
:100A90006365C36883680093890609D4616D41F07A
:100AA0000101616581680091016821F040010160E8
:100AB000606D002827D02068416821F0E001416086
:100AC000012084F85100900722D02068416821F06D
:100AD00003014160104DE06C40B14563E06CFFF7ED
:100AE0005DFB18B1606D40F040006065A06C0028AF
:100AF00009D04563A06CFFF751FB002803D0606D5F
:100B000040F04000606538BDC1688068009038BD25
:100B10002046FFF791FF38BDED0D000870B50400C9
:100B200005D00025A56294F8510010B106E001201F
:100B300070BD84F85050204600F02EF8022084F852
:100B400051002068016821F040010160D4E90101F1
:100B50000843D4E903121143084361690843218B18
:100B600001F400710843E1690843216A0843A16A5E
:100B7000084321680860A069042101EA1040216847
:100B800048602068C16921F40061C1616565012088
:100B900084F85100002070BD30B585B00024009469
:100BA0000194029403940068184988422BD1184894
:100BB000816941F480518161816901F4805104911E
:100BC000816941F0040181618069124D00F00400E7
:100BD0000490A02000900220019003200390694619
:100BE0002846FFF739FB4020CDE900046946284636
:100BF0000294FFF731FB002211462320FFF78EFC01
:100C00002320FFF77DFC05B030BD0000003001401F
:100C100000100240000801402DE9F84F044690F80A
:100C2000500000271D461646894601280DD04FF07A
:100C3000010B84F850B0FFF705FC804694F8510092
:100C4000BA46012804D002278EE00220BDE8F88FC2
:100C5000B9F1000F7DD0002E7BD0032084F8510025
:100C6000C4F854A0C4F83090A686E686C4F838A02C
:100C7000A4F83CA0A4F83EA0C4F844A0C4F840A046
:100C8000A068B0F5004F04D12068016841F48041AC
:100C9000016020680168490603D4016841F0400101
:100CA0000160E068B0F5006F606803D030B3012EDA
:100CB00024D040E008B1012E1CD1206B21680088AF
:100CC000C86006E020688168890709D5216B09881A
:100CD000C160206B801C2063E08E401EE08609E02E
:100CE000FFF7B0FBA0EB0800A84202D3681C01D0BC
:100CF00031E07DB3E08E0028E4D11FE0206B216855
:100D00000078087306E020688168890709D5216B9F
:100D100009780173206B401C2063E08E401EE08642
:100D200009E0FFF78FFBA0EB0800A84202D3681C84
:100D300001D010E075B1E08E0028E4D1424629468A
:100D4000204600F05BF808B120206065A06820B163
:100D500007E008E0FFE7032706E02068C168806835
:100D60000090606D00B1012784F851B084F850A064
:100D700038466BE710B5401EB0F1807F01D30120EB
:100D800010BD4FF0E02460610F21601700F0F4F80F
:100D90000020A06107202061002010BDFEE70000B8
:100DA0000C480B494FF4007201604FF482714160AE
:100DB00000218160C1600161C0E905121022C0E913
:100DC0000721416281620A21C162FFF7A7BE0000CC
:100DD000003001401C000020FEE770477047000013
:100DE0000148FFF72BBE00001C00002010B5406A30
:100DF0000021C187C186FFF71FFE10BD38B50B4625
:100E0000009204460022802100F008F8002804D057
:100E1000606D40F020006065032038BD2DE9F04191
:100E20001D4617460E460446DDF8188008E0681C8B
:100E300006D0FFF707FBA0EB0800A8420BD255B184
:100E40002068806836EA000030D00020B842EED139
:100E50000020BDE8F0812068416821F0E001416098
:100E60006068B0F5827F0BD1A068B0F5004F02D06A
:100E7000B0F5806F04D12068016821F04001016065
:100E8000A06AB0F5005F09D12068016821F4005123
:100E900001602068016841F400510160012084F87C
:100EA0005100002084F850000320D2E70120CDE754
:100EB0007047FFF7CDBA30B58FB028216846FFF7ED
:100EC00038F914210AA8FFF734F901210804CDE903
:100ED00000100024029402250491CDE907504FF43C
:100EE000E01009906846FFF717FC0F20CDE90A05CE
:100EF0006802CDE90C4002210AA80E94FFF740FBDE
:100F00000FB030BD0D48016841F00101016041683A
:100F10000B4A1140416001680A4A114001600168B2
:100F200021F480210160416821F4FE0141604FF409
:100F30001F0181600449C00308607047001002402F
:100F40000000FFF8FFFFF6FE08ED00E0FEE70000FE
:100F50000FB4084B10B504A902AA039800F02CF8AE
:100F6000044602A9002000F0D1F8204610BC5DF82C
:100F700014FB00000D1100080907090E002804DB0E
:100F800000F1E02080F80014704700F00F0000F13D
:100F9000E02080F8141D704702E008C8121F08C145
:100FA000002AFAD170477047002001E001C1121FEA
:100FB000002AFBD1704700002DE9FF4F89B09B4606
:100FC0000446002506E025280BD05A460B99904789
:100FD000641C6D1C20780028F5D10DB02846BDE8B2
:100FE000F08F0027B8460122474900E0074314F874
:100FF000013F203B02FA03F00842F7D120782E2867
:1010000019D114F8010F47F004072A280ED06FF009
:101010002F022078A0F1300109290CD808EB8801B3
:1010200002EB410100EB0108641CF2E70A98641C22
:1010300050F8048B0A9020780028CED0642808D07D
:10104000692806D075281ED05A460B9990476D1C0A
:1010500058E00A994FF00A0901C90A91002802DAFA
:1010600040422D2102E0390504D52B218DF82010B6
:10107000012103E0F90704D02021F7E78A4608AEF2
:101080000DE00021FAE70A994FF00A0901C90A9117
:10109000F7E74946FFF758F8303106F8011D0028F8
:1010A000F7D1ADEB060000F12009780701D44FF02D
:1010B0000108C84502DDA8EB090000E000208046D9
:1010C000002706E008A85A46C05D0B9990476D1CA2
:1010D0007F1C5745F6DB04E030205A460B999047B9
:1010E0006D1CB8F10001A8F10108F5DC05E016F867
:1010F000010B5A460B9990476D1CB9F10001A9F1FB
:101100000109F4DC641C65E7092801000A68531C26
:101110000B6010707047000086B0FFF7A1F9FFF771
:10112000CAFE002532480095019502950395816914
:1011300041F020018161816901F020010491816900
:1011400041F00401816180692A4C00F004000490A0
:1011500001221C212046FFF76FF91C20009001207E
:10116000CDE901050320039069462046FFF774F896
:10117000FFF716FE00F0E2F8002000F06BF81E48C2
:101180001E4C782305804FF4784020800021009089
:101190001A46084600F0A0F84FF4FC600090EF23D8
:1011A00078227921002000F097F84FF6FF70208018
:1011B000012313A200217D2000F048FA134C1348AC
:1011C00013A12288801CFFF7C3FE6420FFF732F8CA
:1011D0000E4A0023921C96217D2000F037FA2088C9
:1011E000642802D0401C2080E9E72580E7E7000062
:1011F0000010024000080140080000200A00002002
:10120000476961207472693A2000000000000020E4
:1012100025642020000000002DE9F04104461D4611
:1012200016460F462A2000F067FA204600F038FAEA
:10123000304600F035FA2B2000F05EFA384600F018
:101240002FFA284600F02CFABDE8F0412C2000F0DF
:1012500053BA00002DE9F047DFF85C904FEA102800
:10126000C6B2002210214846FFF7E6F80120FEF73B
:10127000E1FF002140F23F13EF220846FFF7CCFFC9
:1012800000254FF4A0770024404600F021FA3046B4
:1012900000F01EFA641CA4B2BC42F5D36D1CADB2C2
:1012A000F02DF0D3012210214846FFF7C5F8BDE824
:1012B000F0470120FEF7BEBF0008014010B50B4605
:1012C0000246FFF7A9FF03484088BDE8104000F040
:1012D000E7B90000080000202DE9F047DFF858903A
:1012E0001746884604461E46002210214846DDF86F
:1012F00020A0FFF7A1F80120FEF79CFF3B463246F5
:1013000021464046FFF788FF0AE0454604E0504684
:1013100000F0C6F96D1CADB2B542F8D9641CA4B298
:10132000BC42F2D9012210214846FFF785F8BDE8FA
:10133000F0470120FEF77EBF0008014010B5994C30
:10134000012204212046FFF777F80520FEF772FFFF
:10135000002204212046FFF76FF80520FEF76AFF00
:10136000012204212046FFF767F8002210212046C1
:10137000FFF762F80120FEF75DFF6FF0340000F028
:10138000BBF9392000F0A4F92C2000F0A1F90020CD
:1013900000F09EF9342000F09BF9022000F098F94B
:1013A0006FF0300000F0A8F9002000F091F9C120A2
:1013B00000F08EF9302000F08BF96FF0170000F08C
:1013C0009BF9852000F084F9002000F081F9782055
:1013D00000F07EF96FF0150000F08EF9002000F0AB
:1013E00077F9002000F074F96FF0120000F084F932
:1013F000642000F06DF9032000F06AF9122000F07B
:1014000067F9812000F064F96FF0080000F074F9CA
:10141000202000F05DF96FF03F0000F06DF923200F
:1014200000F056F96FF03E0000F066F9102000F071
:101430004FF96FF03A0000F05FF93E2000F048F9F4
:10144000282000F045F96FF0380000F055F98620AB
:1014500000F03EF9362000F04FF9482000F038F94E
:101460003A2000F049F9552000F032F96FF04E00B3
:1014700000F042F9002000F02BF9182000F028F9C4
:101480006FF0490000F038F9082000F021F98220BF
:1014900000F01EF9272000F01BF96FF00D0000F09E
:1014A0002BF9002000F014F9262000F025F9012086
:1014B00000F00EF96FF01F0000F01EF90F2000F091
:1014C00007F9312000F004F92B2000F001F90C207D
:1014D00000F0FEF80E2000F0FBF8082000F0F8F80D
:1014E0004E2000F0F5F8F12000F0F2F8372000F07F
:1014F000EFF8072000F0ECF8102000F0E9F80320E6
:1015000000F0E6F80E2000F0E3F8092000F0E0F823
:10151000002000F0DDF86FF01E0000F0EDF8002074
:1015200000F0D6F80E2000F0D3F8142000F0D0F828
:10153000032000F0CDF8112000F0CAF8072000F0D9
:10154000C7F8312000F0C4F8C12000F0C1F84820ED
:1015500000F0BEF8082000F0BBF80F2000F0B8F84B
:101560000C2000F0B5F8312000F0B2F8362000F081
:10157000AFF80F2000F0ACF8112000F0BDF8782093
:10158000FEF758FE292000F0B7F82C2000F0B4F840
:10159000012210212046FEF74FFFBDE81040012038
:1015A000FEF748BE000801402DE9FF5F9A4600980B
:1015B0001446B0F5907F3AD80198DE2837D81F300E
:1015C00083B20098113082B2DDE90001FFF724FEFA
:1015D0000027203C04EBC400DFF868904FEAC00805
:1015E0004FF0010B002600250BFA06F408EB8500EE
:1015F000C119BAF1000F19F8010004EA000018D06F
:1016000048B1019806EBC701084481B2009828440C
:1016100080B2FFF753FE6D1CEDB2122DE6D3761C9F
:10162000F6B2082EDFD37F1CFFB2042FDAD3BDE859
:10163000FF9F0028044801D0408800E0008800F0A7
:101640002FF8E8E7101D0008080000202DE9F047FA
:10165000124F16460D468046002499462246102118
:101660003846FEF7E9FE0120FEF7E4FD09E0C2B2CC
:101670004B4641462846FFF797FF1235641CADB232
:10168000E4B2305D0028F2D1012210213846FEF785
:10169000D3FEBDE8F0470120FEF7CCBD00080140B5
:1016A00008B5010A8DF800108DF80100012208210B
:1016B0000548FEF7C1FE4FF4FA730222694603485B
:1016C000FFF7AAFA08BD0000000801401C00002036
:1016D00008B501228DF8000008210548FEF7ACFE90
:1016E0004FF4FA73012269460248FFF795FA08BDE4
:1016F000000801401C00002008B500228DF8000001
:1017000008210548FEF798FE4FF4FA730122694656
:101710000248FFF781FA08BD000801401C000020C4
:1017200000000000000000000000000000000000B9
:101730000000000808080808080800001818000041
:1017400000486C24120000000000000000000000AF
:101750000000002424247F1212127F1212120000B3
:101760000000081C2A2A0A0C1828282A2A1C080803
:1017700000000022251515152A5854545422000043
:101780000000000C1212120A76252911916E000039
:101790000006060403000000000000000000000036
:1017A0000040201010080808080808101020400009
:1017B000000204080810101010101008080402009D
:1017C0000000000008086B1C1C6B080800000000EB
:1017D00000000000080808087F080808080000004A
:1017E00000000000000000000000000006060403E6
:1017F0000000000000000000FE00000000000000EB
:1018000000000000000000000000000006060000CC
:10181000000080404020201010080804040202004C
:101820000000001824424242424242422418000072
:10183000000000080E08080808080808083E000014
:101840000000003C4242422020100804427E00007A
:101850000000003C4242201820404042221C000070
:10186000000000203028242422227E20207800003E
:101870000000007E0202021A26404042221C0000A4
:10188000000000382402021A2642424224180000B6
:101890000000007E22221010080808080808000036
:1018A0000000003C4242422418244242423C0000D4
:1018B000000000182442424264584040241C0000AA
:1018C00000000000000018180000000018180000B8
:1018D00000000000000000080000000000080804EC
:1018E00000000040201008040204081020400000FE
:1018F0000000000000007F0000007F0000000000EA
:10190000000000020408102040201008040200001B
:101910000000003C42424640201010001818000011
:101920000000001C225A555555552D42221C00001E
:101930000000000808181414243C224242E700006A
:101940000000001F2222221E22424242221F0000CB
:101950000000007C4242010101010142221C000002
:101960000000001F2242424242424242221F000027
:101970000000003F4212121E12120242423F0000BB
:101980000000003F4212121E121202020207000063
:101990000000003C2222010101712122221C0000D2
:1019A000000000E7424242427E42424242E70000DB
:1019B0000000003E0808080808080808083E000063
:1019C0000000007C10101010101010101010110FDB
:1019D0000000007722120A0E0A121222227700005B
:1019E000000000070202020202020202427F00001F
:1019F00000000077363636362A2A2A2A2A6B00005B
:101A0000000000E346464A4A5252526262470000D2
:101A10000000001C2241414141414141221C000083
:101A20000000003F424242423E0202020207000022
:101A30000000001C2241414141414D53321C6000D5
:101A40000000003F4242423E1212222242C70000E2
:101A50000000007C4242020418204042423E000046
:101A60000000007F4908080808080808081C000052
:101A7000000000E74242424242424242423C0000F1
:101A8000000000E742422224241414180808000031
:101A90000000006B49494949555536222222000071
:101AA000000000E7422424181818242442E700000C
:101AB000000000772222141408080808081C0000FF
:101AC0000000007E2120101008040442423F000064
:101AD00000780808080808080808080808087800B6
:101AE00000000202040408080810102020204040D2
:101AF000001E1010101010101010101010101E00EA
:101B00000038440000000000000000000000000059
:101B1000000000000000000000000000000000FFC6
:101B200000060800000000000000000000000000A7
:101B3000000000000000003C4278444242FC0000EB
:101B4000000000030202021A26424242261A000046
:101B50000000000000000038440202024438000087
:101B600000000060404040784442424264D8000097
:101B7000000000000000003C427E0202423C0000E7
:101B8000000000F08808087E08080808083E0000E9
:101B9000000000000000007C22221C023C42423C6B
:101BA000000000030202023A4642424242E70000BD
:101BB0000000000C0C00000E08080808083E000099
:101BC0000000003030000038202020202020221E7D
:101BD0000000000302020272120A161222770000AD
:101BE0000000000E0808080808080808083E000061
:101BF000000000000000007F9292929292B70000D5
:101C0000000000000000003B4642424242E7000064
:101C1000000000000000003C42424242423C000002
:101C2000000000000000001B26424242221E020764
:101C3000000000000000007844424242447840E046
:101C400000000000000000774C040404041F0000A2
:101C5000000000000000007C42023C40423E0000C8
:101C6000000000000008083E0808080808300000CE
:101C700000000000000000634242424262DC0000BB
:101C800000000000000000E74224241408080000BF
:101C900000000000000000EB4949555522220000D9
:101CA000000000000000007624181818246E0000C0
:101CB00000000000000000E7422424141808080770
:101CC000000000000000007E22100808447E000092
:101CD00000C0202020202010202020202020C00014
:101CE00010101010101010101010101010101010F4
:101CF0000006080808080810080808080808060070
:101D00000C32C200000000000000000000000000D3
:101D100000000000000000000000000000000000C3
:101D200000000000000000000000000000000000B3
:101D300000000000000000000000000000000000A3
:101D40000000000000000000000000000000000093
:101D50000000000000000000000000000000000083
:101D60000000000000000000000000000000000073
:101D700000000000F8FFCF01F8FFCF01F8FFCF010E
:101D80000000000000000000000000000000000053
:101D90000000000000000000000000000000000043
:101DA0000000000000000000000000000000000033
:101DB000F8070000F8070000F8070000F807000027
:101DC000000000000000000000000000F807000014
:101DD000F8070000F8070000F80700000000000006
:101DE00000000000000000000000000000000C00E7
:101DF000000C0C00000C0C00000CCC0100CCFF010E
:101E000080FF7F00E07F0C00E00C0C00000C0C0059
:101E1000000CCC0100CCFF0180FF7F00E07F0C00B4
:101E2000E00C0C00000C0C00000C0C00000C00007E
:101E30000000000000000000001E8001803F8001C3
:101E4000C07F0003C0710003E0E0003F60E0F83FA6
:101E500060F0FF07F0FF3F03FEFF01037E80830376
:101E60006080C7016000FF01C000FE0000007C0030
:101E7000000000000000000000000000C00300009F
:101E8000F00F0008F81F000E3C3C80071C38E001F2
:101E90003C3C7800F81F1E00F08F0700C0E3F10003
:101EA0000078FC03001EFE0780070F0FE001070EFD
:101EB00078000F0F1C00FE070400FC010000F0007A
:101EC0000000000000007C000000FF00C087FF0150
:101ED000E0DFC301F0FF810338FC000318F00103C9
:101EE00018F0030318B80703383C0F03F01F9E01D6
:101EF000F00FFC01C003F0000000FF010080FF03B1
:101F00000000870300000003000000000000000044
:101F100000000000000000000000000000000000C1
:101F200000000000F8070000F8070000F8070000B4
:101F3000F8070000000000000000000000000000A2
:101F40000000000000000000000000000000000091
:101F50000000000000000000000000000000000081
:101F60000000000000E01F0000FCFF0100FFFF0771
:101F7000801FE01FE003003FF000007C780000F8C5
:101F80001C0000E00C0000C0040000800000000005
:101F90000000000000000000000000000000000041
:101FA00000000000040000800C0000C01C0000E0E5
:101FB000780000F0F000007CE003003FC01FE00F5D
:101FC00000FFFF0700FCFF0100E01F000000000011
:101FD0000000000000000000000000000000000001
:101FE00000000000000000000000000040100000A1
:101FF000E0380000C0180000800D0000800F0000D5
:10200000F8FF0100F8FF0100800F0000800D0000C4
:10201000C0180000E0380000401000000000000080
:1020200000000000000000000000000000000000B0
:102030000000030000000300000003000000030094
:10204000000003000000030000FEFF0100FEFF018E
:102050000000030000000300000003000000030074
:10206000000003000000030000000000000000006A
:102070000000000000000000000000000000000060
:10208000000000C0000000C0000000C00000C060F0
:102090000000E07B0000E03F0000E01F0000800F38
:1020A0000000000000000000000000000000000030
:1020B0000000000000000000000000000000000020
:1020C0000000000000000000000006000000060004
:1020D00000000600000006000000060000000600E8
:1020E00000000600000006000000060000000600D8
:1020F00000000000000000000000000000000000E0
:1021000000000000000000000000000000000000CF
:1021100000000000000000000000C0010000E0031B
:102120000000E0030000E0030000C0010000000028
:10213000000000000000000000000000000000009F
:10214000000000000000000000000000000000008F
:10215000000000300000003C0000000F0000C00341
:102160000000F00000003C0000000F0000C0030071
:1021700000F00000003C0000000F0000C003000061
:10218000F00000003C0000000C0000000000000017
:102190000000000000F80F0000FE7F0080FFFF003D
:1021A000C007FC01C001C601E00083036080030397
:1021B00060C0010360E00003E0608003C031C00143
:1021C000C01FF00180FFFF0000FF3F0000F80F007C
:1021D00000000000000000000000000000000000FF
:1021E000000200000007000380030003C001000399
:1021F000E000000360000003E0FFFF03E0FFFF03D7
:10220000E0FFFF03000000030000000300000003E4
:1022100000000003000000030000000000000000B8
:10222000000000000000000080000003C0018003E7
:10223000C000C003E000E0036000F80360007C031E
:1022400060003E0360001F03E0800703C0C103037A
:10225000C0FF010380FF0003003E000300000003F5
:10226000000000000000000000000000000000006E
:102270000000000000000003C00000036000000335
:1022800060C0000360C0000360C0000360C00003C2
:1022900060E08003E0F08101C0BFC301C0BFFF0068
:1022A000000F7F0000003E00000000000000000062
:1022B0000000000000001C0000001E0000801F0045
:1022C00000E01B0000F01800007C1800001E180041
:1022D000800F1800C0031800E0001800E0FFFF03A3
:1022E000E0FFFF03E0FFFF030000180000001800FC
:1022F00000001800000018000000000000000000AE
:1023000000000000E07F0003E07F0003E07F0003A7
:1023100060600003606000036060000360600003B1
:102320006060800360E0800160C0E10160C0FF0088
:1023300060807F0000001F0000000000000000001F
:10234000000000000000000000F01F0000FC7F0003
:1023500000FFFF0080C7E00180638003C0610003CD
:10236000C060000360600003606000036060000301
:1023700060E0800160C0C10160C0FF0000807F009C
:1023800000003F000000000000000000000000000E
:102390006000000060000000600000026000800338
:1023A0006000E0036000F80360007E0060801F00B2
:1023B00060E0070060FC0100607F0000E00F0000AB
:1023C000E0030000E000000000000000000000004A
:1023D0000000000000000000000F7C00801FFE00D5
:1023E000C03FFF01C0F0870160E0830360E00103AC
:1023F00060C0000360C0000360E0010360E083038D
:10240000E0F08701C03FFF01C01FFE00000F7C000D
:1024100000000000000000000000000000000000BC
:10242000007E000000FF000380FF0103C0C1010324
:10243000C0800303600003036000030360008301A6
:10244000600083016000C301E000E300C083F90085
:1024500080FF7F0000FF1F0000FC0700000000005D
:10246000000000000000000000000000000000006C
:102470000000000000000000000000000038C00163
:10248000007CE003007CE003007CE0030038C00136
:10249000000000000000000000000000000000003C
:1024A000000000000000000000000000000000002C
:1024B0000000000000000000000000C0000000C09C
:1024C000000000C00038C060007CE07B007CE03F82
:1024D000007CE01F0038800F0000000000000000BA
:1024E00000000000000000000000000000000000EC
:1024F00000000000000000000000000000000300D9
:102500000080070000C00F0000E01F0000E01C007A
:102510000070380000387000001CE000001EE00170
:10252000000EC0010007800300020001000000004F
:10253000000000000000000000000000000000009B
:1025400000C0180000C0180000C0180000C018002B
:1025500000C0180000C0180000C0180000C018001B
:1025600000C0180000C0180000C0180000C018000B
:1025700000C0180000C018000000000000000000AB
:102580000000000000000000000000000002000148
:1025900000078003000EC001001EE001001CE000E7
:1025A000003870000070380000E01C0000E01F00E0
:1025B00000C00F00008007000000030000000000C2
:1025C000000000000000000000000000000000000B
:1025D00000000000000000000000000018000000E3
:1025E0001800800118E0CF0318E0CF0330E08F011E
:1025F00070600000F0700000E03F0000C03F00008D
:10260000000F0000000000000000000000000000BB
:1026100000F8FF0100FEFF07801F001FE001003CE3
:1026200070C01F7838F07F700CFC7F600E3C6060DB
:10263000060E606006063C6006FE3F6006FE7F6098
:102640000C3E60301C006038F8003818F0FF1F00A6
:1026500080FF030000000000000080030000F00382
:102660000000FE0300C07F0000F81F0000FF1800FC
:10267000E01F1800E0031800E0001800E003180055
:10268000E01F180000FF190000F81F0000C07F00C5
:102690000000FE030000F0030000800300000000C3
:1026A000000000000000000000000000E0FFFF0349
:1026B000E0FFFF03E0FFFF0360C0000360C0000312
:1026C00060C0000360C0000360C00003E0E00003DE
:1026D000E0F08101C0BFC301C0BFFF00000FFF00D9
:1026E00000003E00000000000000000000F00F00AD
:1026F00000FE3F0000FF7F00800FF800C003C00114
:10270000C0018001E000800360000003600000035E
:10271000600000036000000360000003600000032D
:1027200060008001C0008001000000000000000087
:102730000000000000000000E0FFFF03E0FFFF03D7
:10274000E0FFFF036000000360000003600000037F
:102750006000000360000003E0008001C000800111
:10276000C001C0018007F80080FF7F0000FE3F002D
:1027700000F807000000000000000000000000005A
:1027800000000000E0FFFF03E0FFFF03E0FFFF03A6
:1027900060C0000360C0000360C0000360C00003AD
:1027A00060C0000360C0000360C0000360C000039D
:1027B00060C00003000000000000000000000000F6
:1027C000000000000000000000000000E0FFFF0328
:1027D000E0FFFF03E0FFFF03608001006080010075
:1027E0006080010060800100608001006080010065
:1027F0006080010060800100608001000000000036
:1028000000000000000000000000000000F00F00C9
:1028100000FC3F0000FF7F00800FF000C003C001FC
:10282000C0018001E00080036000000360800103BC
:102830006080010360800103608001036080FF030A
:102840006080FF01C080FF01000000000000000068
:102850000000000000000000E0FFFF03E0FFFF03B6
:10286000E0FFFF0300C0000000C0000000C0000047
:1028700000C0000000C0000000C0000000C0000058
:1028800000C00000E0FFFF03E0FFFF03E0FFFF03E5
:102890000000000000000000000000000000000038
:1028A00000000000600000036000000360000003FF
:1028B0006000000360000003E0FFFF03E0FFFF0390
:1028C000E0FFFF03600000036000000360000003FE
:1028D0006000000360000003000000000000000032
:1028E0000000000000000000000000006000C000C8
:1028F00060008001600000036000000360000003CE
:1029000060000003600080036000C001E0FFFF0181
:10291000E0FFFF00E0FF3F000000000000000000BB
:1029200000000000000000000000000000000000A7
:1029300000000000E0FFFF03E0FFFF03E0FFFF03F4
:102940000080000000E0030000F00700003C1F00D2
:10295000001E3C00800FF800C003F001E001C0033E
:10296000E0008003200000030000000000000000E1
:102970000000000000000000000000000000000057
:10298000E0FFFF03E0FFFF03E0FFFF0300000003A1
:10299000000000030000000300000003000000032B
:1029A000000000030000000300000003000000031B
:1029B000000000000000000000000000E0FFFF0336
:1029C000E0FFFF03E0FFFF03E0010000E00700007D
:1029D000800F0000003E00000078000000F00000C2
:1029E00000780000003E0000800F0000E0070000BB
:1029F000E0010000E0FFFF03E0FFFF03E0FFFF0353
:102A00000000000000000000E0FFFF03E0FFFF0304
:102A1000E0FFFF03E0030000800F0000007E0000E5
:102A200000F8010000C00F0000003F000000F800A7
:102A30000000E003E0FFFF03E0FFFF03E0FFFF0310
:102A400000000000000000000000000000F80F007F
:102A500000FE7F0080FFFF008007F001C001C00181
:102A6000E0008003600000036000000360000003DA
:102A700060000003E0008003C001C001C007F00057
:102A800080FFFF0000FF3F0000F80F000000000083
:102A9000000000000000000000000000E0FFFF0355
:102AA000E0FFFF03E0FFFF0360000300600003009E
:102AB000600003006000030060000300600003008A
:102AC000E0800100C0C10100C0FF0000807F000065
:102AD000003E0000000000000000000000F00F00B9
:102AE00000FE7F0080FFFF008007F001C001C001F1
:102AF000E0008003600000036000000F6000003F02
:102B00006000007FE00080F3C001C0E1C007F0C1B9
:102B100080FFFFC000FF3FC000F80FE00000004052
:102B2000000000000000000000000000E0FFFF03C4
:102B3000E0FFFF03E0FFFF0360C0000060C0000093
:102B400060C0000060C0010060C00300E0E007005A
:102B5000C0701F00C07F7C00803FF001000FE003C9
:102B600000008003000000020000000000000000E0
:102B7000001F8001803F8001C07F0003C0710003FF
:102B8000E0E0000360E0000360C0010360C00103F7
:102B900060C00103608083036080C701C000FF0143
:102BA000C000FE0000007C000000000000000000EB
:102BB0000000000000000000600000006000000055
:102BC0006000000060000000600000006000000085
:102BD000E0FFFF03E0FFFF03E0FFFF0360000000F2
:102BE0006000000060000000600000006000000065
:102BF0006000000000000000000000000000000075
:102C0000E0FF3F00E0FFFF00E0FFFF010000C00128
:102C10000000800300000003000000030000000328
:102C20000000000300000003000080030000C0015A
:102C3000E0FFFF00E0FF7F00E0FF3F00000000003A
:102C400000000000E0000000E0070000E03F00009E
:102C500080FF010000F80F0000C07F000000FE01AF
:102C60000000F003000080030000F0030000FE01FC
:102C700000C03F0000F80F0000FF0100E03F00002F
:102C8000E0070000E000000000000000E0FF03009B
:102C9000E0FF7F000080FF030000E0030000F80376
:102CA0000000FE0000801F0000E0070000E00700B9
:102CB00000801F000000FE000000F0030000C003C1
:102CC0000080FF03E0FF3F00E0FF03000000000082
:102CD00000000002200000036000C003E001E003E8
:102CE000E003F801800F7C00003F1F0000FC0F0094
:102CF00000F8030000F8030000FC0F00003F1F0075
:102D0000800F7E00E003F801E001E0036000C003F3
:102D1000200000030000000220000000600000000E
:102D2000E0010000C0070000800F0000003E00002E
:102D300000FC000000F0010000C0FF030080FF0362
:102D400000C0FF0300F0010000F80000003E00009A
:102D5000800F0000C0070000E001000060000000DC
:102D60000000000000000000600000036000C003DD
:102D70006000E0036000F80360003E0360001F0392
:102D800060C0070360F0010360FC0003603E0003C5
:102D9000E00F0003E0030003E00100036000000314
:102DA0000000000000000000000000000000000023
:102DB000000000000000000000000000FEFFFF7F98
:102DC000FEFFFF7FFEFFFF7F060000600600006041
:102DD00006000060060000600600006000000000C1
:102DE00000000000000000000000000000000000E3
:102DF00000000000000000000C0000003C0000008B
:102E0000F0000000C0030000000F0000003C0000C4
:102E100000F0000000C0030000000F0000003C00B4
:102E20000000F0000000C0030000000F0000003CA4
:102E30000000003000000000000000000000000062
:102E4000000000000000000000000000060000601C
:102E500006000060060000600600006006000060DA
:102E6000FEFFFF7FFEFFFF7FFEFFFF7F00000000F1
:102E70000000000000000000000000000000000052
:102E80000000000000000000006000000070000072
:102E9000007C0000001F000080070000E00100002F
:102EA00060000000E0010000C0070000001F0000FB
:102EB000007C0000007000000060000000000000C6
:102EC0000000000000000000000000E0000000E042
:102ED000000000E0000000E0000000E0000000E072
:102EE000000000E0000000E0000000E0000000E062
:102EF000000000E0000000E0000000E0000000E052
:102F0000000000E0000000E0000000E0000000E041
:102F100000000000000000000000000000000000B1
:102F200008000000180000003800000078000000D1
:102F3000F0000000E0000000C00000008000000081
:102F40000000000000000000000000000000000081
:102F50000000000000000000000000000000000071
:102F60000000F0000018F8010018FC01000C8C03B0
:102F7000000C0603000C0603000C0603000C0603FD
:102F8000000C8601001C8601003CC60000F8FF030F
:102F900000F0FF0300E0FF0300000000000000005D
:102FA000000000000000000000000000F8FFFF012A
:102FB000F8FFFF01F8FFFF030070800300380003F3
:102FC00000180003000C0003000C0003000C800339
:102FD000001C8001003CE00100F8FF0000F07F00D1
:102FE00000C01F0000000000000000000000000002
:102FF0000000000000801F0000E07F0000F0FF00E4
:103000000078E00100388001001C8003000C000300
:10301000000C0003000C0003000C0003000C000374
:10302000000C0003001880010000000000000000F8
:10303000000000000000000000803F0000E0FF00F2
:1030400000F0FF010078C00300188003001C00039B
:10305000000C0003000C0003000C8001000CC001F8
:10306000000CE000F8FFFF03F8FFFF03F8FFFF0389
:103070000000000000000000000000000000000050
:1030800000803F0000E0FF0000F0FF010078C60173
:10309000001C8603000C0603000C0603000C06034C
:1030A000000C0603001C06030038060300F80701A5
:1030B00000F0870100C007000000000000000000D1
:1030C0000000000000300000003000000030000070
:1030D0000030000000300000C0FFFF03E0FFFF03EE
:1030E000F0FFFF037030000038300000183000009F
:1030F0001830000018000000000000000000000070
:1031000000000000000000000000000000000000BF
:103110000000001E00F83C3F00FCFF7F00FEFF7136
:10312000008EE3600007C7600003C6600003C6604E
:103130000003C6600007C760008FC37000FFC37143
:1031400000FFC13F00FB801F0003000F00030000D1
:10315000000000000000000000000000F8FFFF0376
:10316000F8FFFF03F8FFFF030070000000380000C5
:1031700000180000000C0000000C0000000C000013
:10318000001C000000F8FF0300F8FF0300E0FF034D
:10319000000000000000000000000000000000002F
:1031A0000000000000000003000C0003000C0003FE
:1031B000000C0003600C0003F0FCFF03F0FCFF03B5
:1031C000F0FCFF03600000030000000300000003A8
:1031D00000000003000000030000000000000000E9
:1031E000000000000000000000000030000300604C
:1031F0000003006000030060000300600003006043
:103200000003006000030070180300783CFFFF3FDC
:103210003CFFFF1F3CFFFF071800000000000000FC
:10322000000000000000000000000000000000009E
:1032300000000000F8FFFF03F8FFFF03F8FFFF03A3
:10324000000002000000070000800F0000C03D00E9
:1032500000E078000070F0000038E001001CC003BE
:10326000000C8003000400030000000200000000C6
:10327000000000000000000000000000000000034B
:1032800018000003180000031800000318000003D2
:10329000F8FFFF03F8FFFF03F8FFFF030000000340
:1032A0000000000300000003000000030000000312
:1032B000000000000000000000000000000000000E
:1032C00000FCFF0300FCFF0300FCFF0300380000CC
:1032D000000C0000000C000000FCFF0300FCFF03DA
:1032E00000F0FF0300380000000C0000000C00009C
:1032F00000FCFF0300FCFF0300F0FF0300000000E0
:1033000000000000000000000000000000FCFF03BF
:1033100000FCFF0300FCFF03007000000038000009
:1033200000180000000C0000000C0000000C000061
:10333000001C000000FCFF0300F8FF0300E0FF0397
:1033400000000000000000000000000000801F00DE
:1033500000E07F0000F0FF000078E001001880032B
:10336000000C0003000C0003000C0003000C000321
:10337000000C0003001C80010078E00100F0FF0059
:1033800000E07F0000C01F000000000000000000FF
:1033900000000000000000000000000000FCFFFF33
:1033A00000FCFFFF00FCFFFF0070800300380003FB
:1033B00000180003000C0003000C0003000C800345
:1033C000001C8001003CE00100F8FF0000F07F00DD
:1033D00000C01F000000000000000000000000000E
:1033E00000803F0000E0FF0000F0FF010078C00314
:1033F00000188003001C0003000C0003000C0003F5
:10340000000C8001000CC001000CE00000F8FFFF80
:1034100000FCFFFF00FCFFFF0000000000000000B8
:1034200000000000000000000000000000FCFF039E
:1034300000FCFF0300FCFF030070000000380000E8
:1034400000180000000C0000000C0000000C000040
:10345000001C000000FC000000F8000000E000007C
:10346000000000000000000000000000000000005C
:103470000000000000E0800100F0810100F803037B
:10348000009C0303000C0703000C0703000C060359
:10349000000C0E03000C0E03000C9C01001CFC0130
:1034A0000018F8000000700000000000000000009C
:1034B00000000000000C0000000C0000000C0000E8
:1034C000000C0000000C0000C0FFFF00E0FFFF0147
:1034D000E0FFFF01000C8003000C0003000C000360
:1034E000000C0003000C0003000C0003000C800122
:1034F00000000000000000000000000000000000CC
:103500000000000000FC7F0000FCFF0100FCFF0346
:10351000000080030000000300000003000000031F
:10352000000080010000C0010000E00000FCFF037B
:1035300000FCFF0300FCFF0300000000000000008F
:103540000000000000000000001C0000007C0000E3
:1035500000FC030000F00F0000807F000000FC0171
:103560000000E0030000C0030000E0030000FC01D5
:1035700000807F0000F00F0000FC0300007C0000D2
:10358000001C0000000000000000000000FC0F0014
:1035900000FCFF010080FF03000080030000E00347
:1035A0000000F80100003E0000800F0000800F00C6
:1035B00000003E000000F8010000E003000080036E
:1035C0000080FF0300FCFF0100FC0F000000000072
:1035D0000000000000040002000C0003001C800337
:1035E000007CC00300F8F00100E0790000C03F005B
:1035F00000801F0000801F0000C03F0000E0790035
:1036000000F8F001007CE003001C8003000C0003C4
:103610000004000200000000000000000000006044
:1036200000070060001F006000FF006000FC0370E6
:1036300000E01F3800007F1E0000F80F0000E007C8
:103640000000FC0100007F0000E00F0000FC030010
:10365000007F0000001F00000003000000000000C9
:10366000000000000000000000000000000C00034B
:10367000000C8003000CC003000CF003000C780366
:10368000000C1C03000C0F03008C070300CC01038B
:1036900000FC0003007C0003001C0003000C00037E
:1036A0000000000300000000000000000000000017
:1036B00000C0000000C0000000C0000000C000000A
:1036C00000E00100F0FFFF0FFC3FFF3FFC1FFE3F4B
:1036D0000E0000700600006006000060060000603A
:1036E00000000000000000000000000000000000DA
:1036F00000000000000000000000000000000000CA
:1037000000000000000000000000000000000000B9
:10371000FFFFFFFFFFFFFFFFFFFFFFFF00000000B5
:103720000000000000000000000000000000000099
:103730000000000000000000000000000000000089
:1037400000000000000000000600006006000060AD
:10375000060000600E000070FC1FFE3FFC3FFF3FB4
:10376000F0FFFF0F00E0010000C0000000C00000FB
:1037700000C0000000C000000000000000000000C9
:103780000000000000000E0000800F0000C00F00CD
:1037900000C0010000C0000000C000000080010067
:1037A000000003000000060000000C0000001800EC
:1037B0000000180000001C0000801F0000800F00A7
:1037C000008003000000000000000000FCFFFF0775
:1037D000FCFFFF070C0000060C0000060C000006B2
:1037E0000C000006FCFFFF07FCFFFF0700000000C5
:1037F00000000000000000000000000000000000C9
:1038000000000000000000000000000000000000B8
:1038100000000000000000000000000000000000A8
:103820000000000000000000000000000000000098
:103830000000000000000000000000000000000088
:10384000000000000000000000F83F07F83F07F804
:103850003F07000000000000000000000000000022
:10386000000000000000000000000000007C0000DC
:103870007C00007C00000000000000007C00007C58
:1038800000007C00000000000000000000000000BC
:103890000000600000630000E30700FF07F07F0006
:1038A000F0630000E30700FF07F07F00F063000013
:1038B0006300000300000000000000000000C003DF
:1038C00003E00706600606300C3E30FE1FF83F0698
:1038D0003C180630380360F00300E00100000000EF
:1038E0000000000000E0030CF0070E30860730C631
:1038F00003F0E700E07B0000DC0700EF0F80630CC3
:10390000E0610C70E00F30C0070000000000000014
:10391000F000F0FC01F88F039C07030C0F030C1D53
:10392000038CB903F8E00170F00100F803001C03F8
:10393000000802000000000000000000000000007D
:1039400000000000007C00007C00007C0000000003
:103950000000000000000000000000000000000067
:1039600000000000000000000080FF01E0FF0FF8F1
:10397000001F3C003C0E007006006002004000008A
:103980000000000000000000000000000000000037
:103990000000000000000200400600600E00703CC5
:1039A000003CF8001FE0FF0780FF0100000000005E
:1039B00000000000000000000000100200380700B6
:1039C000300300E00100FE1F00FE1F00E001003098
:1039D0000300380700100200000000000000000093
:1039E0000000000000180000180000180000180077
:1039F000C0FF03C0FF0300180000180000180000FB
:103A0000180000000000000000000000000000009E
:103A10000000003000003000803900801F00801F4F
:103A2000000007000000000000000000000000008F
:103A30000000000000000000000000001800001856
:103A400000001800001800001800001800001800FE
:103A50000000000000000000000000000000000066
:103A60000000000000000000000001008003008052
:103A70000300000100000000000000000000000042
:103A800000000000000000000000003000003C00CA
:103A9000000F00C00300F000003C00000F00C00356
:103AA00000F000003C00000C0000000000000000DE
:103AB000000000803F00E0FF0070F001389803181C
:103AC0000C03180E03180603388303F0C101E0FF4E
:103AD00000803F0000000000000000000000000027
:103AE000200003700003300003180003F8FF03F800
:103AF000FF030000030000030000030000000000BB
:103B0000000000000000000000002000037080039F
:103B100038C003186003183003181803380E03F078
:103B20000703E003030000030000000000000000A2
:103B300000000000300003180003180603180603F5
:103B4000180603380703F08D01E0FC01007800003F
:103B50000000000000000000007000007800006E0F
:103B600000806700C06100706000386000F8FF03EB
:103B7000F8FF03006000006000006000000000002B
:103B80000000000000000000F80703F80703180613
:103B900003180603180603180603188E0118FC0004
:103BA000007800000000000000000000000000009D
:103BB0000000007F00C0FF01608C01300603380662
:103BC00003180603180603188E0118FC010078007C
:103BD00000000000000000000000000018000018B5
:103BE000000018000318C00318F001183C00180F5B
:103BF00000D80300F80000380000000000000000BA
:103C0000000000000000E0F000F0F901389F031808
:103C10000F03180603180603180F03389F03F0F963
:103C200001E0F000000000000000000000000000C3
:103C3000C00300F00703300E03180C03180C031820
:103C40008C03188C0130E600F07F00C01F000000DC
:103C50000000000000000000000000000000000064
:103C60000000008083038083038083030000000042
:103C70000000000000000000000000000000000044
:103C80000000000000000000003000003080833998
:103C900080831F80831F00000700000000000000D9
:103CA000000000000000000000000000000000080C
:103CB00000001C00003E0000360000630080C100D0
:103CC000C08001E08003400001000000000000000F
:103CD00000000000000000000066000066000066B2
:103CE00000006600006600006600006600006600D6
:103CF00000660000660000000000000000000000F8
:103D00000000400001E08003C0800180C10000632A
:103D100000003600003E00001C000008000000000B
:103D20000000000000000000000000000000000C87
:103D300000000C80030C9E03189E03180600F00779
:103D400000E0030000000000000000000000000090
:103D500000FC0380FF1FE0033870F87118FE630C4D
:103D60000F630C03630CE3610CFF630C0763388083
:103D700033F0FF19C07F0000000000000000C00306
:103D800000F803007F00E06700F06000386000F09A
:103D90006000E06700007F0000F80300C00300003F
:103DA00000000000000000000000F8FF03F8FF031F
:103DB000180603180603180603180603380703F04D
:103DC0008D01E0FC01007000000000000000000018
:103DD00000803F00C0FF00E0E00130800138800338
:103DE000180003180003180003180003180003301C
:103DF0008001000000000000000000F8FF03F8FF51
:103E000003180003180003180003180003188003A8
:103E100030800170E001E0FF00803F000000000002
:103E20000000000000000000F8FF03F8FF03180680
:103E300003180603180603180603180603180603DA
:103E40000000000000000000000000000000000072
:103E50000000F8FF03F8FF03180600180600180614
:103E600000180600180600180600000000000000F8
:103E7000000000000000000000003F00C0FF00E064
:103E8000E00130800138000318000318060318060B
:103E90000318060318FE0330FE01000000000000B6
:103EA000000000F8FF03F8FF030006000006000012
:103EB0000600000600000600000600F8FF03F8FFF9
:103EC00003000000000000000000000000000000EF
:103ED000180003180003180003F8FF03F8FF031885
:103EE0000003180003180003000000000000000099
:103EF000000000000000000000001880011800030E
:103F0000180003180003180003188003F8FF01F8D5
:103F1000FF000000000000000000000000000000A2
:103F200000000000F8FF03F8FF03000400001F007A
:103F3000803B00E0F00070C0013880030800020000
:103F40000000000000000000000000000000000071
:103F500000F8FF03F8FF0300000300000300000364
:103F60000000030000030000030000000000000048
:103F70000000000000F8FF03F8FF03780000C00312
:103F800000000F00001800000F00C00300700000C8
:103F9000F8FF03F8FF03000000000000000000002D
:103FA0000000F8FF03F8FF03380000E0010080077D
:103FB00000003C0000F000008003F8FF03F8FF035E
:103FC000000000000000000000803F00E0FF0070E3
:103FD000C00138800318000318000318000338805C
:103FE0000370C001E0FF00803F00000000000000FF
:103FF000000000000000F8FF03F8FF031818001885
:104000001800181800181800181800300C00F007D5
:1040100000C00300000000000000000000803F001E
:10402000E0FF0070C00138800318000F18001F184F
:10403000003B38803370C031E0FF30803F18000013
:1040400018000000000000000000F8FF03F8FF0364
:10405000180C00180C00180C00181C00387600F022
:10406000E701E08103000002000000000000000002
:1040700000E08101F0030330030318060318060370
:10408000180C03180C03189C0130F80100F0000014
:1040900000000000000000000000001800001800F0
:1040A00000180000180000F8FF03F8FF03180000D4
:1040B00018000018000018000000000000000000B8
:1040C0000000000000F8FF00F8FF0100800300007E
:1040D00003000003000003000003008001F8FF015B
:1040E000F87F000000000000000000000000003821
:1040F0000000F80300C01F0000FE0000E003008085
:104100000300E00300FE00C00F00F80100380000CB
:10411000000000000000000000F83F00F8FF03006E
:10412000E00300F803007E00000F00007E0000F8AE
:104130000300C003F8FF03F83F0000000000000088
:1041400000000208000318C00378E000E07900C016
:104150001F00000F00C01F00E0790078E00018C0C9
:104160000308000300000200000000000008000037
:10417000380000F00000C00300000F0000FC030046
:10418000FC03000F00C00300F0000038000008002E
:104190000000000000000018000318800318E0036E
:1041A000183803181C03180703980303F800037852
:1041B00000031800030000030000000000000000DE
:1041C00000000000000000000000FCFF7FFCFF7FFB
:1041D0000C00600C00600C00600C0060000000002F
:1041E00000000000000000000000000C00003C0087
:1041F00000F00000C00300000F00003C0000F000D1
:1042000000C00300000F00003C0000300000000070
:1042100000000000000000000000000C00600C0026
:10422000600C00600C0060FCFF7FFCFF7F00000062
:10423000000000000000000000000000000000007E
:104240000000000300800300E000003800001800B8
:1042500000380000E00000800300000300000000C0
:10426000000000000000000060000060000060002E
:10427000006000006000006000006000006000005E
:1042800060000060000060000060000060000060EE
:104290000000000000000000000400000C00001CF2
:1042A0000000380000300000200000000000000086
:1042B00000000000000000000000000000000000FE
:1042C00000E00100F30380390380190380190380A3
:1042D000190380990100FF0300FE030000000000A5
:1042E00000000000000000000000FCFF01FCFF03D4
:1042F00000030300030380010380010380010380A6
:10430000830100FF00007E000000000000000000AC
:1043100000000000007C0000FE0100870180830394
:1043200080010380010380010380010300830100F9
:10433000000000000000000000000000FC0000FE83
:104340000100830380010380010380010380810158
:1043500080C101FCFF03FCFF03000000000000001F
:104360000000000000007C0000FF01009B0180199C
:1043700003801903801903801903801B03001F03A6
:10438000001E00000000000000000000000000000F
:104390000300000300000300000300F0FF03F8FF28
:1043A000031C03000C03000C03000C0000000000C1
:1043B00000000000000000000000C01C00EE3F00F4
:1043C0003F73803B63803163803163803163803B26
:1043D00063801F33800F3E80011E0000000000003C
:1043E000000000000000FCFF03FCFF0300070000CA
:1043F000030080010080010080030080FF0300FEB5
:1044000003000000000000000000000000000000A9
:104410008001038001038001039C01039CFF039C36
:10442000FF03000003000003000003000000000081
:1044300000000000000000000000800130800160EA
:104440008001608001608001609C01709CFF3F9C46
:10445000FF1F00000000000000000000000000003E
:1044600000000000FCFF03FCFF03001800003C00FC
:1044700000760000E70080C3018081038000030014
:1044800000020000000000000000000000000C001E
:10449000030C00030C00030C0003FCFF03FCFF03F0
:1044A0000000030000030000030000000000000003
:1044B000000000000000000080FF0380FF030003F5
:1044C0000080010080FF0300FF0300030080010063
:1044D00080FF0300FF030000000000000000000058
:1044E000000080FF0380FF030007008003008001BD
:1044F0000080010080030080FF0300FE0300000035
:10450000000000000000000000007C0000FE010030
:104510008301800103800103800103800103808106
:104520000300830100FF00007C0000000000000089
:1045300000000000000080FF7F80FF7F00030380F9
:10454000010380010380010380830100FF01007EDD
:104550000000000000000000000000000000FC005F
:1045600000FE0100830380010380010380010380BA
:10457000810180C10180FF7F80FF7F00000000007B
:104580000000000000000000000080FF0380FF0327
:104590000003000003008001008001008001008012
:1045A00007000007000000000000000000000000FD
:1045B00000000000008601000F038019038019032A
:1045C00080110380310380310300E30100E000002B
:1045D00000000000000000000000008001008001D9
:1045E00000800100F8FF00F8FF01808103800103D3
:1045F000800103800103800103000000000000002F
:10460000000000000000000080FF0080FF03008029
:104610000300000300000300800300C00180FF03CB
:1046200080FF030000000000000000000000008088
:104630000100800F00003E0000F80000C003008071
:104640000300C00300F800003E00800F008001005E
:1046500000000000000000000080FF0000FF0300D9
:10466000800300E003007800003C0000780000E0D8
:104670000300800300FF0380FF0000000000000033
:1046800000000080000280010380830300CF01004E
:104690007C00003800007C0000EE01808303800174
:1046A0000380000200000000000000006080016044
:1046B000800F60003E7000F83800C01F00000F003F
:1046C000E00300FC00801F008003000000000000E9
:1046D0000000000000000000000080010380810352
:1046E00080C103806103803903800D03800703804C
:1046F0000303800103000000000000000000000030
:1047000000000000001800001800003C00F0FF1F2F
:10471000F8E73F1C00700C00600C00600000000017
:104720000000000000000000000000000000000089
:1047300000000000000000FFFF7FFFFF7F0000007F
:104740000000000000000000000000000000000069
:1047500000000000000000000000000C00600C00E1
:10476000601C0070F8E73FF0FF1F003C00001800DD
:104770000018000000000000000000000000000021
:104780003000003C00000C00000C00001C00003851
:104790000000700000600000600000780000180059
:1047A000000000000000F8FF0108000108000108F7
:1047B0000001F8FF01000000000000000000000000
:1047C00000000000000000000000000000000000E9
:1047D00000000000000000000000000000000000D9
:1047E00000000000000000000000000000000000C9
:1047F00000000000000000000000000000000000B9
:1048000000000000000000000000000000000000A8
:104810000000000000000000000000000000000098
:104820000000000000000000000000000000000088
:104830000000000000000000000000000000000078
:104840000000000000000000000000000000000068
:104850000000000000000000000000000000000058
:104860000000000000000000000000000000000048
:104870000000000000000000000000000000000038
:104880000000000000000000000000000000000028
:104890000000000000000000000000000000000018
:1048A0000000000000000000000000003C00C0FF0D
:1048B0007F007E00C0FFFF3F7E00C0FFFF3F7E0005
:1048C000C0FFFF3F7E00C0FFFF013C000000000072
:1048D00000000000000000000000000000000000D8
:1048E00000000000000000000000000000000000C8
:1048F00000000000000000000000000000000000B8
:1049000000000000000000000000000000000000A7
:104910000000000000000000000000000000000097
:10492000000000000000000000000000C03F000088
:104930000000C0FF01000000C0FF01000000C0FF38
:1049400001000000C07F0000000000000000000027
:104950000000000000000000000000000000000057
:104960000000C03F00000000C0FF01000000C0FFC9
:1049700001000000C0FF01000000C07F0000000037
:104980000000000000000000000000000000000027
:104990000000000000000000000000000000000017
:1049A00000000000000000000000000000380000CF
:1049B000000007380000000007380000000007383A
:1049C0000000000007383E00000087FF3F0000E0C5
:1049D000FFFF3F0000FFFFFF3F0000FFFF7F0000E1
:1049E00000FF07380000000007380000000007380B
:1049F0000000000007380000000007383E000000FB
:104A000087FF3F0000E0FFFF3F0000FFFFFF3F0088
:104A100000FFFFFF010000FF7F380000001F073884
:104A20000000000007380000000007380000000008
:104A30000738000000000700000000000000000030
:104A40000000000000000000000000000000000066
:104A5000000000E007001C0000F00F001C0000F840
:104A60001F00380000FC3F003800003E7E00380088
:104A7000000E7C003800000E7800F8070007F0F008
:104A8000FF070007F0FFFF0700E7FFFF7F00C0FF01
:104A9000FF7F3800F0FFFF013800F0FFC00338004F
:104AA000F007C0031C00000780071C000007800FF0
:104AB0001F00000E00FF0F00000E00FF07000000A7
:104AC00000FE0300000000F80100000000000000EC
:104AD00000000000000000000000000000000000D6
:104AE0002000007E0000300080FF01003C00C0FF7D
:104AF00003003E00C0FF03801F00E08107C00700E5
:104B0000E00007E00300E00007F80100E000077C98
:104B10000000E081073F0000C0FF830F0000C0FFDE
:104B2000E307000080FFF1010000007EFCE00700C9
:104B300000003EF81F0000801FFC3F0000C00FFC7B
:104B40003F0000E0031E780000F8010E7000007CBA
:104B5000000E7000003F000E7000800F001E7800F5
:104B6000C00700FC3F00C00100FC3F00C00000F88F
:104B70001F00000000E0070000000000000000002F
:104B800000F80100000000FE0700000080FF1F0089
:104B900000F8C0FF1F0000FEC7073E0000FFEF0146
:104BA0003C0080FFFF0078008087FF007000C0039A
:104BB000FE007000C001F8017000C001FC07700029
:104BC000C001DE0F7000C0038F3F7000C0870F7FF1
:104BD000380080FF07FC3C0080FF03F81F0000FF47
:104BE00001F01F00007C00E00F00000000FF3F000C
:104BF000000080FF3F000000807F3E000000000FAB
:104C0000380000000000300000000000200000001C
:104C10000000000000000000000000000000000094
:104C20000000000000000000000000000000000084
:104C30000000000000000000000000000000000074
:104C40000000000000000000000000000000000064
:104C5000C07F00000000C0FF01000000C0FF010095
:104C60000000C0FF01000000C07F00000000000045
:104C70000000000000000000000000000000000034
:104C80000000000000000000000000000000000024
:104C90000000000000000000000000000000000014
:104CA0000000000000000000000000000000000004
:104CB00000000000000000000000000000000000F4
:104CC00000000000000000000000000000000000E4
:104CD000000000000000000000000000E07F000075
:104CE0000000FEFF07000080FFFF1F0000E0FFFF45
:104CF0007F0000F81F80FF0100FC0100FC03007F23
:104D00000000E00F801F0000801FC00F0000003F68
:104D1000E0030000007CF001000000F8E00000006B
:104D200000704000000000200000000000000000B3
:104D30000000000000000000000000000000000073
:104D40000000000000000000000000000000000063
:104D50000000000000000000000000000000000053
:104D60000000000000000000000000000000000043
:104D7000400000000020E00000000070F001000092
:104D800000F8E0030000007CC00F0000003F801F1F
:104D90000000801F007F0000E00F00FC0300F8030C
:104DA00000F81F80FF0100E0FFFF7F000080FFFF91
:104DB0001F000000FEFF07000000E07F0000000071
:104DC00000000000000000000000000000000000E3
:104DD00000000000000000000000000000000000D3
:104DE00000000000000000000000000000000000C3
:104DF00000000000000000000000000804000000A7
:104E0000000E1C000000001C0E000000001C0E0024
:104E100000000038070000000038070000000070A4
:104E20000300000000E001000000C0FFFF010000DF
:104E3000C0FFFF010000C0FFFF01000000E0010013
:104E40000000007003000000003807000000003878
:104E500007000000001C0E000000001E1E000000E5
:104E6000000E1C000000000804000000000000000C
:104E70000000000000000000000000000000000032
:104E80000000000000000000000000000000000022
:104E900000000007000000000007000000000007FD
:104EA00000000000000700000000000700000000F4
:104EB00000070000000000070000000000070000DD
:104EC0000000000700000080FFFF0F000080FFFFD0
:104ED0000F000080FFFF0F000080FFFF0F000000A9
:104EE00000070000000000070000000000070000AD
:104EF000000000070000000000070000000000079D
:104F00000000000000070000000000070000000093
:104F1000000700000000000000000000000000008A
:104F20000000000000000000000000000000000081
:104F30000000000000000000000000000000000071
:104F400000000038000000000038000000000038B9
:104F500000000000003C000000000F1C000000806A
:104F60001F1E00000080FF0F00000080FF0F0000E8
:104F70000080FF0700000000FF0300000000FC00AD
:104F80000000000000000000000000000000000021
:104F90000000000000000000000000000000000011
:104FA0000000000000000000000000000000000001
:104FB00000000000000000000000000000000000F1
:104FC00000000000000000000000000000000000E1
:104FD00000000000000000000000000000000000D1
:104FE00000000007000000000007000000000007AC
:104FF00000000000000700000000000700000000A3
:10500000000700000000000700000000000700008B
:10501000000000070000000000070000000000077B
:105020000000000000070000000000070000000072
:105030000007000000000000000000000000000069
:105040000000000000000000000000000000000060
:105050000000000000000000000000000000000050
:105060000000000000000000000000000000000040
:105070000000000000000000000000000000000030
:105080000000000000000000000000000000000020
:1050900000001E00000000003F00000000807F00B4
:1050A000000000807F00000000807F000000008082
:1050B0007F00000000003F00000000001E00000014
:1050C00000000000000000000000000000000000E0
:1050D00000000000000000000000000000000000D0
:1050E00000000000000000000000000000000000C0
:1050F00000000000000000000000000000000000B0
:10510000000000000000000000000004000000009B
:10511000000700000000E00700000000F8070000A2
:105120000000FE01000000C07F00000000F01F0032
:10513000000000FC0300000080FF00000000E03FD2
:1051400000000000F80F00000000FF01000000C098
:105150007F00000000F01F00000000FE03000000C0
:1051600080FF00000000C03F00000000C0070000FA
:105170000000C0010000000040000000000000002E
:10518000000000000000000000000000000000001F
:105190000000000000000000000000000000FE1FF2
:1051A000000000C0FFFF000000F0FFFF030000FC54
:1051B000FFFF0F0000FE01F81F00003E001C3F0033
:1051C000000F001E3C000007000F780080078007DA
:1051D00078008003C00370008003C001700080036A
:1051E000E00070008003F000700080077800780015
:1051F00080073C003800000F1E003C00003F0F00FD
:105200001F0000FE07E01F0000FCFFFF0F0000F082
:10521000FFFF030000C0FFFF00000000FE1F0000B2
:10522000000000000000000000000000000000007E
:10523000000000000000000000000000000000204E
:105240000000000000F0000038000070000038008E
:10525000007800003800003800003800001C000012
:105260003800001C00003800000E00003800000666
:105270000000380000FFFFFF3F0000FFFFFF3F007E
:1052800000FFFFFF3F0000FFFFFF3F0000000000A6
:105290003800000000003800000000003800000066
:1052A0000000380000000000380000000000380056
:1052B00000000000380000000000000000000000B6
:1052C00000000000000000000000000000000000DE
:1052D0000000000000000000000000040000380092
:1052E000000E00003C00001E00003E00000F008089
:1052F0003F00000700C03F00800700E03B00800344
:1053000000F03900800300F838008003007C38008A
:105310008003003E38008003001F38008007800FA4
:105320003800000FE0073800001FF803380000FEC7
:10533000FF01380000FEFF00380000F83F00380091
:1053400000E00F00380000000000380000000000FE
:105350003800000000000000000000000000000015
:10536000000000000000000000000000000000003D
:10537000000000000000000000000000000000002D
:1053800038000007000038000007000070008003AC
:10539000000070008003E00070008003E0007000F7
:1053A0008003E00070008003E00070008003E000F4
:1053B00070008003E00070008003E0007800800748
:1053C000F00138000007F8013800001FFC033C0022
:1053D00000FF9F071F0000FE8FFF0F0000FC07FF6C
:1053E000070000F003FE0300000000F800000000CA
:1053F00000000000000000000000000000000000AD
:105400000000000000000000007800000000007CA8
:1054100000000000007F00000000807F000000000E
:10542000E07700000000F07300000000FC70000056
:1054300000007E70000000801F70000000C00F7030
:10544000000000F00370000000F801700000007E12
:1054500000700000003F00700000001F007000009E
:1054600000FFFFFF3F0000FFFFFF3F0000FFFFFFC7
:105470003F0000FFFFFF3F00000000700000000041
:1054800000700000000000700000000000700000CC
:10549000000000700000000000000000000000009C
:1054A00000000000000000000000000000000000FC
:1054B0000000000000000000380000FF7F003800FE
:1054C00000FF7F00700000FF7F00700000FF7F0082
:1054D0007000000770007000000770007000000787
:1054E0007000700000077000700000077000780006
:1054F0000007F00038000007F0003C000007E00162
:105500001E000007E0031F000007C0FF0F00000798
:10551000C0FF0700000000FF0300000000FE0000C5
:10552000000000000000000000000000000000007B
:10553000000000000000000000000000000000006B
:10554000000000000000000000000000F07F0000EC
:105550000000FFFF030000C0FFFF070000E0FFFFA7
:105560001F0000F0C3811F0000F8E0003E00003C77
:10557000E0003800001CE0007800001E70007000A1
:10558000000E70007000000E7000700000077000C8
:1055900070000007700070000007700078000007BE
:1055A000F00038000007E0013C000007E0031F00A6
:1055B0000007C0FF1F000007C0FF0F00000000FF32
:1055C0000300000000FC00000000000000000000DC
:1055D00000000000000000000000000000000000CB
:1055E00000000000000000070000000000070000AD
:1055F0000000000700000000000700002000000776
:1056000000003800000700003E00000700803F0057
:10561000000700E03F00000700F80F00000700FF50
:1056200003000007C0FF00000007F03F0000000774
:10563000FC0700000007FF01000000C77F0000001A
:1056400000F71F00000000FF0700000000FF00003F
:105650000000003F00000000000F000000000000FC
:10566000000000000000000000000000000000003A
:10567000000000000000000000000000000000002A
:105680000000000000F0030000F003FC0F0000FC2D
:1056900007FE1F0000FE1FFF3F0000FF1F0F3E0020
:1056A000000FBE0738000007FC0378008003F801F4
:1056B00070008003F00170008003E0007000800340
:1056C000E00070008003F00170008003F8037000B8
:1056D0008007F8037800000FBE07380000FF9F1F07
:1056E0003E0000FE0FFF1F0000FC07FE1F0000F839
:1056F00001FC0700000000F00300000000000000B3
:105700000000000000000000000000000000000099
:10571000000000000000000000C00F00000000F0CA
:105720003F00000000FCFF00380000FEFF003800D2
:10573000003EF0013800000FE00138000007C00310
:10574000380080078003380080038003380080031E
:1057500080033C00800380031C00800380031C0046
:10576000800380031E008007C0010E000007C001F7
:105770000F00001FC0C1070000FEE0F8030000FC9E
:10578000FFFF010000F8FFFF000000E0FF3F000006
:105790000000FF0700000000000000000000000003
:1057A00000000000000000000000000000000000F9
:1057B00000000000000000000000000000000000E9
:1057C00000000000000000000000000000000000D9
:1057D00000000000000000000000000000000000C9
:1057E00007001C0000800F003E0000C01F007F006B
:1057F00000C01F007F0000C01F007F0000800F005E
:105800003E00000007001C00000000000000000037
:105810000000000000000000000000000000000088
:105820000000000000000000000000000000000078
:105830000000000000000000000000000000000068
:105840000000000000000000000000000000000058
:105850000000000000000000000000000000000048
:105860000000000000000000000000000038000000
:105870000000003800000000003800000000003C7C
:10588000000007000F1C00800F801F1E00C01F803B
:10589000FF0F00C01F80FF0F00C01F80FF070080A8
:1058A0000F00FF0300000700FC00000000000000E4
:1058B00000000000000000000000000000000000E8
:1058C00000000000000000000000000000000000D8
:1058D00000000000000000000000000000000000C8
:1058E00000000000000000000000000000000000B8
:1058F00000000000000000000000000600000000A2
:10590000000F00000000801F00000000C03F0000EA
:105910000000E07F00000000E07900000000F0F0EF
:105920000000000078E0010000003CC0030000001F
:105930003EC0070000001F800F0000000F000F0096
:10594000008007001E0000C003003C0000E00300D0
:105950007C0000C001003800008000001000000042
:105960000000000000000000000000000000000037
:105970000000000000000000000000000000000027
:105980000000000000000000000000000000000017
:105990007070000000007070000000007070000067
:1059A0000000707000000000707000000000707057
:1059B0000000000070700000000070700000000027
:1059C0007070000000007070000000007070000037
:1059D0000000707000000000707000000000707027
:1059E00000000000707000000000707000000000F7
:1059F0007070000000007070000000007070000007
:105A000000007070000000000000000000000000B6
:105A10000000000000000000000000000000000086
:105A20000000000000000000000000000000000076
:105A300000000000000000800000100000C0010015
:105A4000380000E003007C0000C003003C00008040
:105A500007001E0000000F000F0000001F800F0055
:105A600000003EC0070000003CC00300000078E0DA
:105A700001000000F0F000000000E07900000000EC
:105A8000E07F00000000C03F00000000801F000019
:105A90000000000F000000000006000000000000F1
:105AA00000000000000000000000000000000000F6
:105AB00000000000000000000000000000000000E6
:105AC00000000000000000000000000000000000D6
:105AD0000000000000000000000000000000C00105
