:020000040800F2
:10000000A819002001010008271200082511000886
:100010002512000823020008FB2800080000000049
:10002000000000000000000000000000ED140008C7
:10003000FD02000800000000EB140008EF140008A7
:100040001B0100081B0100081B0100081B01000820
:100050001B0100081B0100081B0100081B01000810
:100060001B0100081B0100081B0100081B01000800
:100070001B0100081B0100081B0100081B010008F0
:100080001B0100081B0100081B0100081B010008E0
:10009000852800081B0100081B0100081B0100083F
:1000A0001B0100081B0100081B0100081B010008C0
:1000B0001B0100081B0100081B0100081B010008B0
:1000C0001B0100081B0100081B0100081B010008A0
:1000D0001B0100081B0100081B0100081B01000890
:1000E0001B0100081B0100081B010008DFF80CD0F1
:1000F00000F05AF800480047C52A0008A819002057
:100100000648804706480047FEE7FEE7FEE7FEE7B1
:10011000FEE7FEE7FEE7FEE7FEE7FEE7551500080F
:10012000ED00000840EA01039B0703D009E008C97D
:10013000121F08C0042AFAD203E011F8013B00F8AC
:10014000013B521EF9D27047D2B201E000F8012BF8
:10015000491EFBD270470022F6E710B513460A4647
:1001600004461946FFF7F0FF204610BD421C10F868
:10017000011B0029FBD1801A704730B50B460146A0
:1001800000202022012409E021FA02F59D4205D336
:1001900003FA02F5491B04FA02F52844151EA2F1E0
:1001A0000102F1DC30BD0000064C074D06E0E068BE
:1001B00040F0010394E8070098471034AC42F6D3AE
:1001C000FFF798FF5C2B00087C2B000870B58C189B
:1001D00010F8015B15F0070301D110F8013B2A115B
:1001E00006D110F8012B03E010F8016B01F8016B48
:1001F0005B1EF9D12B0705D40023521E0DD401F844
:10020000013BFAE710F8013BCB1A921C03E013F80C
:10021000015B01F8015B521EF9D5A142D8D3002041
:1002200070BDFEE7002070470020704710B5002227
:100230000449054801F0A4FA0449034801F09AFA78
:10024000002010BDC011002088050020D80D00201E
:1002500030B4134A0023134C1370157863556D1C8A
:10026000EDB21570402DF8D31370DBB28B4203D280
:10027000C55CE5545B1CF7E720784C280DD162780B
:1002800009484FF40051312A05D0302A05D1002207
:1002900030BC00F037B90122FAE730BC70470000EB
:1002A00000000020880100200010014070B50D46BC
:1002B00004460146054801F05DFA044801F03EFAA3
:1002C00020462968FFF7C4FF002070BD8805002084
:1002D000094A10B5D2F8B822D2F814210AB1012087
:1002E00010BD0A460146044801F04AFABDE8104034
:1002F000014801F0A3BA000088050020704770474C
:1003000070B5044600F004F90546601C02D00448AC
:100310000078044400F0FCF8401BA042FAD370BD02
:10032000640000202DE9F84FDFF8B891002409F1AE
:10033000040A0AF1040B23460F270BF1040EC9E04F
:100340000125A5402A40AA427DD1674ED1F804C0BC
:10035000ACEB0608B44532D014DCBCF1030F3AD044
:1003600009DCBCF1000F2AD0BCF1010F1CD0BCF19C
:10037000020F31D11DE0BCF1110F17D0BCF1120FEB
:100380002AD119E0B8F5881F19D006DCB8F5803FEE
:1003900015D0B8F5801F1FD111E0B8F5001F0ED0A1
:1003A000B8F5041F18D10AE0CB6815E0CB681B1D17
:1003B00012E0CB6808330FE0CB680C330CE08B689D
:1003C0002BB1012B4FF0080303D0456104E0042357
:1003D00002E0056100E00023FF2A01D8064601E0A3
:1003E00000F104064FEA840501D9A5F12005D6F8ED
:1003F000008007FA05FC28EA0C0803FA05F548EA2C
:100400000508C6F800804D68ED0062D5374DAE692D
:1004100046F00106AE61AD6924F0030605F0010562
:100420000095334D06EB050CDCF80850A607360F97
:1004300007FA06F825EA0805DFF8B880404503D139
:100440004FF0000817E044E0DFF8AC80404502D1EF
:100450004FF001080FE0DFF8A480404502D14FF0D3
:10046000020808E0DFF89880404502D14FF0030809
:1004700001E04FF0040808FA06F848EA0508CCF84D
:1004800008804D68D9F80060ED034D4601D516434C
:1004900000E096432E604D68DAF80060AD035546E3
:1004A00001D5164300E096432E604D68DBF80060EE
:1004B000ED025D4601D5164300E096432E604D687F
:1004C000DEF80060AD02754601D5164300E09643A4
:1004D0002E60641C0D682A46E5407FF431AFBDE80C
:1004E000F88F0000000401400000111000100240CD
:1004F0000000014000080140000C014000100140D4
:10050000001401400AB1016170470904FBE70000D3
:10051000014880687047000064000020024881683C
:10052000027811448160704764000020074810B5CC
:10053000016841F010010160032000F075F800200F
:1005400000F006F800F024F8002010BD0020024062
:1005500070B50D4D04464FF47A712878B1FBF0F078
:100560000A490968B1FBF0F000F0C8FD48B9102C49
:1005700007D200222146501E00F036F800206C60A1
:1005800070BD012070BD00006400002070000020DC
:100590000C4808B5816941F001018161816901F070
:1005A00001010091C16941F08051C161C06900F051
:1005B000805000900448416821F0E06141F00071F2
:1005C000416008BD0010024000000140002809DB26
:1005D00000F01F02012191404009800000F1E0205D
:1005E000C0F8001170470000F0B40E4B1B680C46B9
:1005F000C3F30223C3F10705042D00D90425191DF7
:10060000072901D2002300E0DB1E012606FA05F1CE
:10061000491E214099409E40761E16403143F0BC51
:1006200002F080B90CED00E0064900F0070208680E
:100630004FF6FF03184040EA0220034A10430860C7
:10064000704700000CED00E00000FA0510B50C0644
:1006500005D501F0070100EB4110283003E000EB65
:10066000411000F5947099B232B1012202730181F8
:10067000190C4181002010BD00220273C180F9E7EE
:10068000704700EB4112D0F86802D26B01F085BAD6
:1006900000EB4112D0F86802D2F83C2101F0E0BA38
:1006A00070B504460B0601F0070004EB40114FF053
:1006B00001024FF0000503D581F82920283103E01D
:1006C00081F8295101F59471087094F828020128E5
:1006D00008D084F82822206801F007FF84F8285207
:1006E000002070BD022070BD70B5044601F00F00FF
:1006F0006268904201D9012070BD0B0601F007002D
:1007000004EB40114FF001024FF0000503D581F8D2
:100710002920283103E081F8295101F594718D7069
:10072000087094F82802012808D084F8282220684C
:1007300001F07EFF84F82852002070BD022070BDB9
:1007400001F0070100EB4110D0F8440170472DE99A
:10075000F04104460F0601F0070004EB40114FF092
:1007600001064FF0000503D581F82960283103E028
:1007700081F8295101F5947108700A61CB704A78AB
:1007800002B1C881022B00D10D7194F82802012812
:1007900009D084F82862206801F072FD284684F8A8
:1007A0002852BDE8F0810220FBE770B50C4601F04D
:1007B000070500EB4511C1E94F230022C1F8442190
:1007C00081F8292181F8285101F5947162070068A8
:1007D00001F083FF002070BD70B504460D4601F0A6
:1007E00007006168884201D9012070BD29064FF0D9
:1007F00000064FF0010205D504EB401181F82920D5
:10080000283105E004EB451181F8296101F5947167
:100810008A70087094F82802012807D084F82822EA
:10082000206801F041FF680702D006E0022070BD99
:1008300004F50C71206801F0F9FE84F828620020AC
:1008400070BD70B50C4601F0070500EB4511C1E91C
:100850000F2300224A64012281F8292001F8285F31
:100860006207006801F039FF002070BD10B5044632
:10087000006802F00DF8000402D5204600F0D4FC18
:10088000206802F005F840050CD5206830F8441FB8
:1008900021F480610180204600F0FCF80021204610
:1008A00000F013F9206801F0F3FF400405D520683B
:1008B00030F8441F21F480410180206801F0E8FFF6
:1008C000800405D5206830F8441F21F400510180D0
:1008D000206801F0DDFFC00414D5206830F8401F07
:1008E00021F004010180206830F8401F21F0080148
:1008F0000180204600F0E1F8206830F8441F21F420
:1009000080510180206801F0C3FF00051FD52068D9
:1009100030F8401F41F008010180206830F8441F82
:1009200021F400610180206830F8401F41F004018B
:100930000180206801F0ACFFC00405D5206830F8C4
:10094000441F21F480510180204600F0F3F8206814
:1009500001F09EFF800508D5206830F8441F21F47F
:1009600000710180204600F0ACF8206801F090FF93
:10097000C00505D5206830F8441F21F4807101803E
:1009800010BD00002DE9F04186B0040004D094F8B9
:100990002902002520B108E0012006B0BDE8F08161
:1009A00084F82852204600F057F8032084F82902E2
:1009B000206801F034FE04F11001142288466846D4
:1009C000FFF7B0FB94E80F0001F08DFD0227B0BBEC
:1009D0000021206801F076FF002001260DE000BF15
:1009E00004EB401181F8296001F8280FC881CD700F
:1009F0000D614D61401CC0B28D6161688142EFD8CC
:100A000000200FE004EB401181F8295181F8280102
:100A100081F82B51C1F83851C1F83C51401CC0B28B
:100A2000C1F8405161688142ECD8142241466846C1
:100A3000FFF778FB94E80F0001F0E2FD10B184F8B5
:100A40002972A9E784F8245084F82962206801F00B
:100A5000D5FD0020A1E7000008B500680B498842D9
:100A600012D10B48C16941F40001C161C069002283
:100A700000F40000009011461420FFF7B5FDBDE81A
:100A800008401420FFF7A2BD08BD0000005C004034
:100A90000010024070B5044680680125022801D08C
:100AA000FFF72DFC2946D4F8680201F0C0F9D4F80C
:100AB0006802BDE8704001F07CB9D0F8680201F02E
:100AC000A0B9D0F8680201F0A6B910B5044690F8B4
:100AD000280201280BD0012084F8280284F8241071
:100AE000206801F0F1FE002084F8280210BD0220E9
:100AF00010BDD0F8682200F50C71104601F0A3B9C2
:100B000010B5044690F82802012810D0012084F87E
:100B1000280201462046FFF7B3FD206801F06CFD76
:100B2000206801F0A8FE002084F8280210BD0220F1
:100B300010BD000010B50446D0F8680201F0C2F9FB
:100B4000A069002804D00348016841F00601016053
:100B500010BD000010ED00E02DE9F84305460078D7
:100B6000354CC00754D0E0690026C00008D4E069C5
:100B700040F08050E061E069012600F08050009074
:100B80002E480168C90512D40168804641F480717D
:100B90000160FFF7BDFC074605E000BFFFF7B8FCAA
:100BA000C01B642823D8D8F80000C005F6D5206AF9
:100BB00010F4407021D0A98801F4407181421CD00A
:100BC000206A1F49012220F440700A6000220A6056
:100BD0002062C00711D0FFF79BFC074641F288381E
:100BE00008E000BFFFF794FCC11B414502D9032078
:100BF000BDE8F883206A8007F4D5206A696820F48C
:100C00004070084320621EB1E06920F08050E0612E
:100C10002878800705D56068A96820F4404008431B
:100C200060602878C00605D56068E96820F4800017
:100C3000084360600020DBE70010024000700040C5
:100C4000400442422DE9F0470F46050061D0434E73
:100C5000306800F00700B84209D2306820F0070081
:100C600038433060306800F00700B84251D128683E
:100C70003B4C810712D5400703D5606840F4E06023
:100C800060602878000703D5606840F460506060B9
:100C90006068A96820F0F000084360602878C00709
:100CA00028D06868012810D02168022810D0890750
:100CB00000292EDA616821F0030101436160FFF72A
:100CC00027FC804641F288390DE021688903EFE76F
:100CD0008901EDE7FFF71CFCA0EB0801494502D9AB
:100CE0000320BDE8F0876068696800F00C00B0EB95
:100CF000810FEFD1306800F00700B8420BD930689F
:100D000020F0070038433060306800F00700B84238
:100D100001D00120E5E72878400705D56068E9683B
:100D200020F4E060084360602878000706D560681A
:100D3000296920F4605040EAC100606000F018F8B2
:100D40006168084AC1F30311515CC8400649086054
:100D500006480068FFF7FCFB0020C2E700200240C5
:100D6000001002404C2B000870000020680000209A
:100D700012A185B00FC98DE80F0014A0144A0068B5
:100D800004905168134801F00C03042B10D0082B79
:100D90000ED1C1F38343C9031DF803000AD551687E
:100DA00004AAC1F34041515C0A4A5043B0FBF1F040
:100DB00005B0704708494843FAE7000002030405FC
:100DC000060708090A0B0C0D0E0F10100102000097
:100DD0000010024000127A0000093D002DE9F84F92
:100DE000040070D02078C04DC00749D06868C0F3B7
:100DF0008100012807D06868C0F38100022809D16A
:100E00006868C00306D52868800339D56068002863
:100E1000E7D035E06068B0F5803F0BD010B1B0F599
:100E2000A02F11D0286820F480302860286820F492
:100E3000802002E0286840F480302860606890B12B
:100E4000FFF766FB06460AE0286840F48020286029
:100E5000F0E700BFFFF75CFB801B642873D82868AD
:100E60008003F7D50CE0FFF753FB064605E000BF13
:100E7000FFF74EFB801B6428F0D828688003F7D466
:100E800020789A4E80074FF001094FF0000839D5BD
:100E9000686810F00C0F07D06868C0F38100022862
:100EA00009D16868C00306D42868800714D5206972
:100EB000012808D110E02069B0B1C6F80090FFF712
:100EC00027FB074605E00AE1FFF722FBC01B0228CB
:100ED000C4D828688007F7D52868616920F0F80031
:100EE00040EAC10028600DE0C6F80080FFF710FB63
:100EF000074604E0FFF70CFBC01B022823D8286834
:100F00008007F7D4207800072CD57948A169D9B19A
:100F1000C0F80090FFF7FCFA074604E0FFF7F8FA84
:100F2000C01B02280FD8686A8007F7D571484FF4B4
:100F3000FA510068B0FBF1F0009000BF0098411E2C
:100F40000091FAD20EE080E0C0F80080FFF7E0FAEE
:100F5000074604E0FFF7DCFAC01B022875D8686A70
:100F60008007F7D42078400760D5E8690027C000E3
:100F700008D4E86940F08050E861E869012700F092
:100F8000805000905C480168C90513D4016883460D
:100F900041F480710160FFF7BBFA824606E000BFB2
:100FA000FFF7B6FAA0EB0A0064284ED8DBF8000081
:100FB000C005F5D5E06801280AD008B1052813D08E
:100FC000286A20F001002862286A20F0040002E06C
:100FD000286A40F001002862E06841F2883B98B13D
:100FE000FFF796FA82460BE0286A40F00400286278
:100FF000EEE700BFFFF78CFAA0EB0A0159455AD87B
:10100000286A8007F6D50CE0FFF782FA824605E0F1
:10101000FFF77EFAA0EB0A0159454CD8286A8007F1
:10102000F6D41FB1E86920F08050E861E06988B328
:101030006968C1F38101022944D00228C6F86080A2
:1010400004D0FFF765FA044638E034E0FFF760FAB1
:10105000074604E0FFF75CFAC01B02282BD828687B
:101060008001F7D4206AB0F5803F05D16868A16897
:1010700020F4003008436860D4E908010843696837
:1010800021F4741108436860C6F86090FFF740FAD5
:10109000044606E025E000BFFFF73AFA001B0228ED
:1010A00009D828688001F7D51BE000BFFFF730FAA8
:1010B000001B022802D90320BDE8F88F28688001B0
:1010C000F4D40EE00128F7D06868226A00F4803179
:1010D000914204D1616A00F47010884201D001206D
:1010E000EAE70020E8E7000000100240000042426A
:1010F00080044242700000200070004010B5401E85
:10110000B0F1807F01D3012010BD4FF0E024606179
:101110000F21601701F006FC0020A061072020616C
:10112000002010BDFEE70000F0B500230A243025A2
:1011300037261F4611E000BFB4EB107F02D905EB44
:10114000107C01E006EB107C01F813C001EB430CAE
:1011500000015B1C8CF80170DBB29342ECD3F0BD54
:1011600070B586B00024184800940194029403944A
:10117000816941F010018161816901F010010491E0
:10118000816941F020018161816901F020010491B0
:10119000816941F00401816180690C4E00F0040016
:1011A0004FF400550490002229463046FFF7AAF973
:1011B00001200095CDE901040320039069463046E3
:1011C000FFF7B0F806B070BD0010024000100140FB
:1011D00010B500220F49104800F0B8FC08B1FFF725
:1011E0008EF80E490C4800F093FE08B1FFF787F81F
:1011F0000B49094800F0B6FA08B1FFF780F8064835
:1012000000F0DCFE002803D0BDE81040FFF777B8FF
:1012100010BD0000040000208805002050010020BF
:1012200054000020FEE770472DE9F05F044648F6C1
:101230000F7B4FF0020A4FF480684AE1B0F8441087
:1012400011F00F0629D030F82670390479D530F81E
:10125000261040F68F72114041F0800120F82610D0
:1012600004EB461595F8340105F5947500282068BF
:1012700068D0297830F8212052047DD5B0F850206C
:101280000AEBC1010A4408EB4201415AC1F30901CA
:101290005FEA010971D02A89D2E0C9062DD40188FC
:1012A00001EA0B0141F400410180206804F12805A6
:1012B000B0F850202B780AEBC3010A4408EB420136
:1012C000405AC0F309006064E16B0844E063002108
:1012D0002046FFF7D6F994F824000028ADD0A8697D
:1012E0000028AAD194F82400216840F08000A1F8D9
:1012F0004C00002084F82400EBE0018804F594758C
:101300000A0520D5B0F850202B78062101EBC30147
:101310000A4408EB4201405A04F50C71C0F309037A
:10132000EB61EA88206801F0B7FA2068018840F68E
:101330008F72114041F0800101802046FFF7D9FBF8
:10134000C7E0A2E058E0090455D5018840F68F7245
:10135000114041F0800101802168B1F850202B78C4
:10136000062000EBC300024408EB4200085A830544
:101370009B0DEB6110D001E053E065E0696959B164
:10138000EA88206801F088FAE969686908446861B8
:1013900000212046FFF77CF92068B0F8501008447F
:1013A000296900F20C4051B13E2910D84A08C907FA
:1013B00000D0521C4FF6FF7101EA82210FE0018834
:1013C00021F4F8410180018841F4004107E04A0915
:1013D000C90600D1521E4FF4004141EA822101802A
:1013E000206801884BF68F72114081F4405148F219
:1013F0008002114301806CE0B0F850202B78062168
:1014000001EBC3010A4408EB4201415AC1F309014F
:101410005FEA010924D0EA884B46696901F03CFA89
:101420001EE0B0F85030062202EBC1015A1808EB5A
:101430004201415AC1F309015FEA010904D06A89F6
:101440004B46696901F028FA2878226832F82010A2
:1014500048F68F73194048F2C003194322F8201050
:10146000E8694844E861686900EB09026A61AB69B0
:1014700013B12869484504D929782046FFF708F9AF
:1014800003E029782046FFF790F9380621D5216836
:1014900004EB461031F8262002EA0B0242F4004227
:1014A00021F826202168B1F8505010F8282F0AEBB7
:1014B000C2022A4408EB4202895AC1F30901C16100
:1014C00042690A44426101788369204653B1FFF7BB
:1014D000B8F92068B0F8441009043FF5AFAE002019
:1014E000BDE8F09FFFF7CDF8F3E770477047FFF7CF
:1014F00015B830B593B028216846FEF72CFE1421AC
:101500000AA8FEF728FE002401200F9410941194DD
:10151000010412948DE8130004900005CDE9081031
:10152000022507956846FFF759FC0F20CDE90A050B
:101530006802CDE90C4001210AA80E94FFF782FB56
:1015400010200F90800412900FA8FFF705FB13B036
:1015500030BD00000D48016841F0010101604168A3
:101560000B4A1140416001680A4A1140016001685C
:1015700021F480210160416821F4FE0141604FF4B3
:101580001F0181600449C0030860704700100240D9
:101590000000FFF8FFFFF6FE08ED00E02DE9F04146
:1015A000D0F8C032D0F8B822CAB101EB810400EB08
:1015B00084040025E6693EB103EB41139B6BB6FB47
:1015C000F3F703FB176323B1C2F814510020BDE801
:1015D000F08100231A46E56100F07DFCF6E7022069
:1015E000F5E770B50546D0F8B84200F07AFBC4F8CC
:1015F0000C01D5F8B80248B1D5F8BC12D4F80401F2
:10160000CA6804F586719047002070BD022070BD45
:1016100070B504460026812100F0B6FA00250121AC
:101620002046E56200F0B0FA82212046C4F86C51F1
:1016300000F0AAFA2564D4F8B80248B1D4F8BC0284
:1016400004F52E7440688047206800F014FE256081
:10165000304670BD10B5D0E9AE4159B194F80001E3
:10166000FF2807D08B6894F8012121469847FF2076
:1016700084F80001002010BD0A2101800048704755
:10168000780000204321018000487047C8000020F6
:1016900043210180004870478400002043210180DD
:1016A000004870470C0100202DE9F0410446002657
:1016B000007C4FF48077012590B3402302228121E2
:1016C000204600F061FB4023E56202220121204612
:1016D00000F05AFB0823032282212046C4F86C51F3
:1016E00000F052FB4FF48E70256400F0C5FDC4F885
:1016F000B802F8B10546D4F8BC0200688047002063
:10170000C5F81401C5F81801207CD5F8042198B15A
:1017100040230121204600F043FB3046BDE8F08124
:10172000FFE73B4602228121204600F02DFB3B468D
:10173000E562CAE70126F0E73B46EAE710B5D0F8D4
:10174000B81269B1027C002AD1F8042105D04023E7
:10175000012100F025FB002010BD4FF48073F7E756
:10176000022010BD02460220002902D00020C2F84B
:10177000BC127047D0F8B802C0F8041100207047BE
:10178000D0F8B802C0F81021C0F808110020704746
:101790002DE9FC410546D0F8B87200208DF8000014
:1017A000ADF80400064608780C4610F0600121D020
:1017B00020293BD1E288AAB10006607807D5D5F888
:1017C000BC128B6839469847E288394626E087F88C
:1017D0000001A07987F80101E2883946284600F027
:1017E0006AF828E0D5F8BC12607800228B682146A0
:1017F000984720E0607820B10A2809D00B2815D13D
:1018000010E095F89C02032810D1022201A905E0FE
:1018100095F89C02032809D101226946284600F068
:1018200064F808E095F89C02032804D02146284675
:1018300000F036F802263046BDE8FC8110B5D0F83D
:10184000B812A1B1D1F814210AB1012010BD0122B2
:10185000C1F81421D1F810210263B1F8102193B21C
:10186000D1F80821812100F036FB002010BD0220B4
:1018700010BD10B5D0F8B42252689047002010BDBA
:10188000134610B50A46002100F08AFA002010BD68
:10189000134610B50A46002100F01DFB002010BDC4
:1018A00010B50446802100F0FBFA2046BDE8104048
:1018B000002100F0F5BA10B50323C0F85C21C0F890
:1018C0009432C0F8602113460A46002100F068FAFD
:1018D000002010BD10B505210023C0F894121A464F
:1018E000194600F05DFA002010BD10B50223C26158
:1018F000C0F89432026213460A46002100F0EBFA67
:10190000002010BD10B504210023C0F894121A461F
:10191000194600F0E0FA002010BD000010B50A469C
:10192000024903A000F0E2F8004810BDD80B0020E7
:1019300043444320436F6E666967000012200880AD
:10194000004870472400002010B50A46024903A051
:1019500000F0CCF8004810BDD80B002043444320D1
:10196000496E74657266616365000000042008803A
:10197000004870472000002010B50A46024903A025
:1019800000F0B4F8004810BDD80B002053544D6946
:1019900063726F656C656374726F6E696373000068
:1019A00010B50A46024903A000F0A0F8004810BD97
:1019B000D80B002053544D33322056697274756130
:1019C0006C20436F6D506F727400000010B51A20C8
:1019D00008800A480168001D0468001D0068081896
:1019E00009D008220649FFF79FFB05490422103160
:1019F0002046FFF799FB0248801E10BDE8F7FF1F45
:101A00003A000020F8B504460020ADF800004888F0
:101A10000D46010A082948D2DFE801F047040917FA
:101A200047473C45D4F8B012207C0A6819E0207C76
:101A300002260028D4F8B40205D0C16A6846884757
:101A4000014646703EE0816AF8E7C0B206282CD213
:101A5000DFE800F0030A1014181CD4F8B002426842
:101A600005E0694690471CE0D4F8B0028268E2B114
:101A7000207CF6E7D4F8B002C268F8E7D4F8B002E8
:101A80000269F4E7D4F8B0024269F0E7D4F8B00292
:101A90008269ECE7207C40B9D4F8B402416B684617
:101AA000884701460EE0207C20B129462046FFF7FA
:101AB000F7FEF8BDD4F8B402016B684688470146CA
:101AC00007204870BDF8000048B1EA8852B1824250
:101AD00000D90246ADF800202046FFF706FFE8884F
:101AE0000028E6D12046FFF70DFFF8BD70B50023B2
:101AF00000281ED00446002502E06D1CEDB2641CD7
:101B00002678002EF9D1022404EB450414801278C3
:101B1000CA545B1C0322CA5400245B1C06E0CA544E
:101B20005B1CDAB28C54521CD3B2401C0278002ADF
:101B3000F5D170BD01004FF0000004D0012901D0A3
:101B4000022901D0022070470120704710B580B1F2
:101B5000D0F8B43213B10023C0F8B43209B1C0F8E0
:101B6000B012012180F89C12027000F0BFF8002032
:101B700010BD022010BD10B5D0F8C002FEF7B4FDB4
:101B8000BDE81040FFF7D6BF10B5D0F8C002FEF791
:101B900087FDBDE81040FFF7CDBF2DE9F0411746A6
:101BA000044651B1D4F8B40242691AB194F89C02C7
:101BB000032851D00220BDE8F081D4F894320025EA
:101BC00004F11400022B03D0042B3AD0C3B33CE041
:101BD000D0E903639E4207D9F11AC1608AB239463F
:101BE0002046FFF755FE12E08068B0FBF3F103FBDF
:101BF000110199B9984211D3D4F8981288420DD2A4
:101C0000002211462046FFF743FEC4F898520023F5
:101C10001A461946204600F0C3F816E0D4F8B4027C
:101C2000C16829B194F89C02032801D12046884755
:101C30008021204600F034F92046FFF74BFE04E0F7
:101C4000FFE78021204600F02BF994F8A00201283C
:101C500004D184F8A05201E0204690470020AAE772
:101C600070B51546044649B1D4F8B40282691AB178
:101C700094F89C02032830D0022070BDD4F894124E
:101C800004F5AA70032902D005291ED027E0D0E967
:101C900003218A420BD9531AC3600846834200D3FA
:101CA00003469AB229462046FFF7EAFD17E0D4F82A
:101CB000B402016929B194F89C02032801D120469D
:101CC00088472046FFF71EFE09E000200146C4F8C1
:101CD0009402204600F0E4F801E0204690470020FE
:101CE00070BDD0F8C002FEF72BBD000010B5044651
:101CF0001C481D49C0F86842C4F8C00201600821B0
:101D000041600221816000218161C1610162FEF7B1
:101D100039FE08B1FEF7F3FA0022D4F8C002182306
:101D2000114604F53074FEF791FC582300228021FF
:101D30002068FEF78BFCC023002281212068FEF77B
:101D400085FC4FF48873002201212068FEF77EFC99
:101D50004FF48073002282212068FEF777FC002078
:101D600010BD00006C090020005C00400A06D0F89D
:101D7000C00201F07F0100EB411002D590F82A006B
:101D8000704790F82A01704710B51C461346D0F8EA
:101D9000C0022246FEF7DBFCBDE81040FFF7CABEDA
:101DA00010B5D0F8C002FEF700FDBDE81040FFF707
:101DB000C1BE70B50022044640231146FFF7E4FF80
:101DC00040260125C4F86461334600228021204664
:101DD000C4F85851FFF7D8FF6662A56184F89C5299
:101DE0000020C4F894026060C4F8A402D4F8B802D9
:101DF00028B1D4F8B4020021426820469047002060
:101E000070BD90F89C12042903D190F89D1280F8BF
:101E10009C120020704710B590F89C12032904D141
:101E2000D0F8B412C96901B18847002010BD01740F
:101E30000020704710B5D0F8C002FEF746FEBDE89E
:101E40001040FFF777BE70B5044600F52A700546CE
:101E500000F04AF80120C4F89402B4F8AE02C4F8C5
:101E6000980294F8A80210F01F010AD001290DD0A1
:101E7000022910D000F08001204600F011F8002067
:101E800070BD2946204600F09EF8F8E72946204616
:101E900000F0CAF9F3E72946204600F01DF9EEE705
:101EA00010B5D0F8C002FEF797FCBDE81040FFF770
:101EB00041BE10B5D0F8C002FEF722FEBDE81040CA
:101EC000FFF738BE90F89C1280F89D12042180F82C
:101ED0009C120020704710B5D0F8C002FEF7B1FC8C
:101EE000BDE81040FFF726BE0A7802704A784270BB
:101EF0008A78CB7802EB032242800A794B7902EB95
:101F0000032282808A79C97902EB0121C18070475E
:101F10000246002011B1C2F8B41270470220704787
:101F200010B5D0F8B42202241AB11268904700B953
:101F30000024204610BD000070B50E461E4D897865
:101F400004462970012931D894F89C0202280BD04C
:101F500003280FD031462046FFF7A2FC29782046FF
:101F6000BDE87040FFF785BCD9B10320616084F8FB
:101F70009C0209E071B16068884212D0C1B220466B
:101F8000FFF777FC297861602046FFF7C9FF022838
:101F90000CD006E0022084F89C0220466160FFF726
:101FA00068FC2046BDE87040FFF7ACBC31462046D7
:101FB000BDE87040FFF774BC7400002010B5FFF757
:101FC00078FF002010BD2DE9F0410A78002612F0BC
:101FD000600208D0202A01D0402A70D1D0F8B42263
:101FE000926890476DE04B78002201250A2B66D25B
:101FF000DFE803F0405D6557650805652C29FFF7AC
:1020000001FD5EE004468888D8B9C888C8B9488808
:10201000802816D200F07F0794F89C02032810D085
:1020200084F89E7239462046FFF704FF2046FFF7EA
:1020300069FC1FB1022084F89C0242E084F89C52A3
:102040003FE020463BE0FFF777FF3AE0CB88012BEB
:1020500035D190F89C32012B04D0022B02D0032BF7
:102060002DD104E08260012200F1080116E0012276
:10207000011D13E090F89C22012A03D0022A01D00E
:10208000032A1CD1CA88022A19D1C560D0F8A4122B
:1020900009B10321C160022200F10C01FFF725FC08
:1020A0000FE0498801290CD1C0F8A45211E090F842
:1020B0009C32012B08D0022B06D0032B04D0FFF753
:1020C000EFFB3046BDE8F08149880129F9D1C0F81D
:1020D000A422FFF717FCF4E72DE9F0410A46044675
:1020E00010780027097910F060030AD0202B01D066
:1020F000402B50D1D4F8B40211468368204698474B
:102100008FE0C0F34110012806D05078D0B30128E9
:102110002AD003283FD107E0D4F8B40211468368DF
:102120002046BDE8F041184794F89C02022802D0EE
:10213000032872D10AE071B380296ED02046FFF7E0
:10214000AFFE80212046FFF7ABFE6AE0508838B929
:1021500031B1802904D0D08810B92046FFF7A0FE05
:102160002046FFF7CFFB5CE094F89C020228E2D007
:10217000032852D1508898BB4806F1D02046FFF77B
:10218000FAFCEDE7FFE794F89C020026022803D052
:10219000032842D112E040E009B180293DD1080670
:1021A00001F07F0000EB800004EB800101D51431C9
:1021B00001E001F5AA7102220E602AE0080601F092
:1021C0000F0000EB800004EB80000AD5806920B38B
:1021D00001F07F0000EB800004EB800514350BE07C
:1021E0001FE0D0F85801C0B101F07F0000EB800083
:1021F00004EB800505F5AA7541B1802906D020467B
:10220000FFF7B4FD10B10120286000E02E6002222B
:1022100029462046FFF769FB03E011462046FFF7F9
:102220003FFB3846BDE8F08170B5054608780C469E
:1022300010F0600003D0202801D0402816D195F876
:102240009C02012803D0022801D003280ED1207956
:1022500001280BD8D5F8B402826828469047E18857
:10226000014306D12846FFF74DFB02E02846FFF761
:1022700017FB002070BD7047004870474C080020D5
:102280002DE9F0470C784FF0000C30F8243048F678
:102290008F121340CA78002A7DD0012A7CD0022AEE
:1022A00003D0032A79D04FF0010C48F28002134387
:1022B00020F824300D7830F8254048F68F731C4004
:1022C0002C43144320F825400F7B48F6BF744BF68F
:1022D0008F7948F2C0054CF28006EFB391F8008088
:1022E000C24630F8287048F280181F4047EA0807B5
:1022F00020F82A70B0F8507091F80080074407EB7E
:102300000817B1F8088028F00108A7F80084B0F891
:10231000507091F80080074407EB0817B1F80A8065
:1023200028F00108A7F808844F7891F80080002F62
:1023300030F828704FEA47477ED0002F05DA30F892
:1023400028701F40374320F828700F7830F8278016
:102350005FEA486809D500E033E030F8278008EAF2
:10236000030848EA050820F827800F7830F827503E
:102370001D40354320F82750CB780D78012B30F8DD
:10238000253003EA040301D083F02003134320F82F
:1023900025300B7802E00BE010E00CE030F8231061
:1023A00001EA0901114320F823106046BDE8F087D7
:1023B00043F4007379E743F4C06376E743F4806342
:1023C00073E74F7827B3B0F850600F78064406EBF8
:1023D0000716CF8827F00107A6F800740F7830F8A9
:1023E0002760760605D530F827601E402E4320F87A
:1023F0002760CB78012B06D00B7830F823102140D2
:1024000081F02001CEE70B7830F823102140C9E796
:10241000B0F850400D78044404EB0514CD8825F045
:102420000105A4F80854B0F850400D78044404EBBA
:10243000051404F20C4400E030E00D6955B13E2D66
:1024400010D86F08ED0700D07F1C4FF6FF7505EA26
:1024500087250FE0258825F4F8452580258845F453
:10246000004507E06F09ED0600D17F1E4FF40045DF
:1024700045EA872525800D7830F82540640405D588
:1024800030F825401C40344320F825400B7830F8C4
:10249000231001EA090181F4405183E7002F05DA96
:1024A00030F828701F40374320F828700E7830F835
:1024B00026707F0605D530F826701F402F4320F880
:1024C00026700F7830F827601E402E4320F82760D2
:1024D0000D7830F8253003EA090383F440531343A1
:1024E00020F825308FE7002070472DE9F04391F860
:1024F0000C804F780A7848F6BF7C4BF68F7948F20B
:10250000800348F2C0054CF2800648F68F74B8F19B
:10251000000F28D0002F30F822704FEA474748D0EC
:10252000002F05DA30F822702740374320F8227058
:102530000A7830F822707F0605D530F822702740DF
:102540002F4320F822700D7830F8252022403243A6
:1025500020F825200C7830F8242002EA0C021A43D7
:1025600020F824201AE07FB130F82260760605D5E5
:1025700030F8226026402E4320F822600A7830F896
:10258000221001EA0C010EE030F822506D0405D54E
:1025900030F822502540354320F822500A7830F890
:1025A000221001EA0901194320F822100020BDE899
:1025B000F083002F05DA30F822702740374320F8E7
:1025C00022700A7830F82260760605D530F822604D
:1025D00026402E4320F822600E7830F82620224034
:1025E0002A4320F826200C7830F8242002EA090239
:1025F0001A4320F82420C1E70020704700207047CC
:1026000000B50121A0F840100021A0F84010A0F86A
:102610004410A0F8501000F02EF9002000BD30F852
:10262000401F21F43F410180002070470020704787
:1026300030B50A7BB2BB4A7848F68F7548F2800401
:10264000C2B10B7830F82320520607D530F823208A
:102650002A4048F2C0052A4320F82320CA78012ADC
:1026600020D00A7830F8221048F6BF73194081F064
:10267000200114E00A7830F822305B0407D530F8E6
:1026800022302B404CF280052B4320F822300A7870
:1026900030F822104BF68F73194081F440512143DA
:1026A00020F82210002030BD10B54A780978002AA1
:1026B00048F2800330F8212005D048F6BF7422404C
:1026C00082F0100204E04BF68F74224082F48052B4
:1026D0001A4320F82120002010BDF0B50E46054613
:1026E00091F801C00022097B3469B06948F2800783
:1026F000BCF1010F04D0A0424FD9001BB0614EE0E5
:10270000A04202D9001BB06101E00446B26169B188
:10271000307835F820104906B5F85010294401EBFF
:10272000001012D5A0F80C44728911E0A3B2F2880F
:102730002846716900F0CEF8B5F850003178284489
:1027400000EB0110A0F804441EE0A0F80444328914
:10275000A3B22846716900F0BDF8707848F68F7111
:1027600010B1012807D00FE0327835F82200084078
:1027700048F2C00105E0327835F8220008404CF2FA
:102780008001084325F82200317835F8210048F609
:10279000BF72104080F0300068E00446B2614FF62E
:1027A000FF724FF4004381B3BCF1000F15D027E056
:1027B000018821F4F8410180018841F400410AE0D8
:1027C0003E2C3ED86108E30700D0491C02EA812173
:1027D00001E043EA8121018040E0B5F85000317802
:1027E000284400EB011000F204407CB13E2C15D8C7
:1027F00061085FEAC47C00D0491C02EA81210180A3
:10280000707810B1012821D028E00FE0018821F470
:10281000F8410180018841F40041F0E761095FEA75
:10282000C46C00D1491E43EA8121E8E7B5F85000A5
:102830003178284400EB011000F20C40002CBFD18D
:10284000B6E76109E206C4D1491EC2E7B5F85010E7
:102850004819317800EB0110A0F80C44317835F8B4
:1028600021004BF68F72104080F44050384325F819
:1028700021000020F0BD30F8401F41F43F410180AD
:10288000002070470148FDF7F1BF00006C090020EF
:10289000B0F844007047000010B500EB42005C083F
:1028A00000F5806009D000BF30F8042B01F8012B3F
:1028B000120A01F8012B641EF6D1DA0701D0008854
:1028C000087010BD0020704711B98021A0F84C108D
:1028D0000020704710B55B1C00EB42005B0800F560
:1028E000806009D011F8012B11F8014B42EA042253
:1028F00020F8042B5B1EF5D110BDFEE70FB4084B8A
:1029000010B504A902AA039800F02CF8044602A905
:10291000002000F0D1F8204610BC5DF814FB000048
:10292000B92A00080907090E002804DB00F1E0209D
:1029300080F80014704700F00F0000F1E02080F8EC
:10294000141D704702E008C8121F08C1002AFAD1FE
:1029500070477047002001E001C1121F002AFBD11F
:10296000704700002DE9FF4F89B09B4604460025C3
:1029700006E025280BD05A460B999047641C6D1C25
:1029800020780028F5D10DB02846BDE8F08F00274B
:10299000B8460122474900E0074314F8013F203BB5
:1029A00002FA03F00842F7D120782E2819D114F842
:1029B000010F47F004072A280ED06FF02F0220786D
:1029C000A0F1300109290CD808EB880102EB410184
:1029D00000EB0108641CF2E70A98641C50F8048BB1
:1029E0000A9020780028CED0642808D0692806D024
:1029F00075281ED05A460B9990476D1C58E00A99CD
:102A00004FF00A0901C90A91002802DA40422D213B
:102A100002E0390504D52B218DF82010012103E0B7
:102A2000F90704D02021F7E78A4608AE0DE000211F
:102A3000FAE70A994FF00A0901C90A91F7E74946EE
:102A4000FDF79BFB303106F8011D0028F7D1ADEBF7
:102A5000060000F12009780701D44FF00108C845AD
:102A600002DDA8EB090000E000208046002706E018
:102A700008A85A46C05D0B9990476D1C7F1C5745AE
:102A8000F6DB04E030205A460B9990476D1CB8F1F4
:102A90000001A8F10108F5DC05E016F8010B5A4623
:102AA0000B9990476D1CB9F10001A9F10109F4DC03
:102AB000641C65E7092801000A68531C0B6010704C
:102AC0007047000094B00024A146A0462746264641
:102AD0002546FDF72BFDFEF70CFDFEF741FBFEF74B
:102AE00077FB40F2B63ACDE90265CDE900874B4667
:102AF000224610A104A8FFF701FF04A8FDF736FB4A
:102B000081B204A8FDF7E4FB3220FDF7F9FB0121B7
:102B10000DA0FDF7DDFB642C0AD0641CA4B2254691
:102B20002E463746B846C1465046FDF7E9FBDAE780
:102B30000024F4E7312C25642C25642C25642C25F5
:102B4000642C25642C256400570000000000000060
:102B50000000000001020304060708097C2B00089E
:102B60000000002088010000CC0100083C2C000877
:102B700088010020201800005429000841133D1945
:102B80001B086D041A79041AA1041ACD041A1D0435
:102B90001A49041704030904120114020202164020
:102BA00083044057260201020301031A1A03132D5E
:102BB000021B0829041A25041AAD04192F118210CA
:102BC0005324F4130A0632022A401C1C09024357FC
:102BD0001125C03209041B01020B13052416100134
:102BE0000524011009010424020205240617010727
:102BF000058203081C1009048D320A15070501021D
:102C00001A01072A81070938442A40072A81071137
:102C10002B0907440A3B044413A9161B081104138B
:102C2000911742081A550C139D151B08E304C11A8D
:0C2C300091182A851C19041A7904000070
:04000005080000ED02
:00000001FF
