:020000040800F2
:1000000000500020AD0C0008410200084302000827
:1000100045020008470200084902000800000000ED
:100020000000000000000000000000004B0200087B
:100030004D020008000000004F02000851020008B5
:10004000F50C0008F50C0008F50C0008F50C00088C
:10005000F50C0008F50C0008F50C0008F50C00087C
:10006000F50C0008F50C0008F50C0008F50C00086C
:10007000F50C0008F50C0008F50C0008F50C00085C
:10008000F50C0008F50C0008F50C0008F50C00084C
:10009000F50C0008F50C0008F50C0008F50C00083C
:1000A000F50C0008F50C0008F50C0008F50C00082C
:1000B000F50C0008F50C0008F50C0008F50C00081C
:1000C000F50C0008F50C0008F50C0008F50C00080C
:1000D000F50C0008F50C0008F50C0008F50C0008FC
:1000E000F50C0008F50C0008F50C000800000000F5
:1000F0000000000000000000000000000000000000
:0C01000000000000000000005FF808F1A3
:10010C0010B5054C237833B9044B13B10448AFF345
:10011C0000800123237010BD0C00002000000000A3
:10012C00400D000808B5034B1BB103490348AFF35E
:10013C00008008BD0000000010000020400D0008E9
:10014C0030B589B000240494059406940794184B98
:10015C009A6942F010029A619A6902F010020192B7
:10016C00019A9A6942F020029A619A6902F020027F
:10017C000292029A9A6942F004029A619B6903F016
:10018C0004030393039B0B4D01224FF400512846AB
:10019C0000F0F6FC4FF400530493012305930694EE
:1001AC000323079304A9284600F0DAFB09B030BDFD
:1001BC00001002400010014030B591B000240994A9
:1001CC000B940C94019402940394049405940122CE
:1001DC0006924FF48033079308940A9202250D95EA
:1001EC000E934FF4E0130F9306A800F0C5F80F23FD
:1001FC000193029503944FF480630493059429466C
:10020C0001A800F0F7FA11B030BD000008B500F0FD
:10021C0065F8FFF7D1FFFFF793FF4FF40051044847
:10022C0000F0B4FC41F2883000F07CF8F5E700BF38
:10023C00001001407047FEE7FEE7FEE7FEE770475F
:10024C007047704708B500F05BF808BD82B00E4BE4
:10025C009A6942F001029A619A6902F001020092D5
:10026C00009ADA6942F08052DA61DB6903F080535C
:10027C000193019B054A536823F0E06343F000733C
:10028C00536002B0704700BF0010024000000140F4
:10029C0010B504460E4B18784FF47A73B3FBF0F399
:1002AC000C4A1068B0FBF3F000F0BEFC68B90F2CE0
:1002BC0001D901200AE0002221464FF0FF3000F066
:1002CC007FFC054B1C60002000E0012010BD00BF2E
:1002DC0000000020080000200400002008B5074A98
:1002EC00136843F010031360032000F057FC002048
:1002FC00FFF7CEFFFFF7AAFF002008BD0020024049
:10030C00034A1168034B1B780B441360704700BF02
:10031C002800002000000020014B1868704700BF27
:10032C002800002038B50446FFF7F6FF0546B4F167
:10033C00FF3F02D0044B1B781C44FFF7EDFF401B22
:10034C00A042FAD338BD00BF0000002082B0084B99
:10035C001B68084AA2FB03235B0A00FB03F301930F
:10036C0000BF019B5A1E0192002BF9D102B07047BD
:10037C0008000020D34D6210002800F0F18170B508
:10038C0082B00446036813F0010F2CD0AA4B5B68B3
:10039C0003F00C03042B1DD0A74B5B6803F00C037C
:1003AC00082B12D06368B3F5803F41D0002B55D198
:1003BC0003F1804303F504331A6822F480321A6087
:1003CC001A6822F480221A6037E09B4B5B6813F4A6
:1003DC00803FE7D0984B1B6813F4003F03D0636851
:1003EC00002B00F0BF81236813F0020F75D0924BE5
:1003FC005B6813F00C0F5FD08F4B5B6803F00C0342
:10040C00082B54D02369002B00F089808B4B0122E0
:10041C001A60FFF781FF0546874B1B6813F0020F2C
:10042C0074D1FFF779FF401B0228F5D903209EE118
:10043C00814A136843F480331360636843B3FFF756
:10044C006BFF05467C4B1B6813F4003FCBD1FFF7C9
:10045C0063FF401B6428F5D9032088E1B3F5A02F76
:10046C0009D0754B1A6822F480321A601A6822F48B
:10047C0080221A60E1E703F18043A3F53C331A684C
:10048C0042F480221A601A6842F480321A60D4E76F
:10049C00FFF742FF0546684B1B6813F4003FA2D0E0
:1004AC00FFF73AFF401B6428F5D903205FE1624B4C
:1004BC005B6813F4803FA5D15F4B1B6813F0020FF0
:1004CC0003D02369012B40F04F815B4A136823F062
:1004DC00F803616943EAC1031360236813F0080F42
:1004EC0032D0A369002B45D0554B01221A60FFF77F
:1004FC0013FF0546504B5B6A13F0020F21D1FFF737
:10050C000BFF401B0228F5D9032030E14A4A13683F
:10051C0023F0F803616943EAC1031360DDE7474B3D
:10052C0000221A60FFF7F8FE0546434B1B6813F0D8
:10053C00020FD2D0FFF7F0FE401B0228F5D90320A2
:10054C0015E10120FFF702FF236813F0040F00F000
:10055C009780394BDB6913F0805F1DD1364BDA691C
:10056C0042F08052DA61DB6903F080530193019B06
:10057C00012512E0324B00221A60FFF7CDFE054632
:10058C002D4B5B6A13F0020FDED0FFF7C5FE401B4C
:10059C000228F5D90320EAE000252A4B1B6813F446
:1005AC00807F11D0E368012B22D0002B38D103F1CE
:1005BC00804303F504331A6A22F001021A621A6AA4
:1005CC0022F004021A6218E01E4A136843F4807386
:1005DC001360FFF7A1FE06461A4B1B6813F4807FCD
:1005EC00E0D1FFF799FE801B6428F5D90320BEE00B
:1005FC00114A136A43F001031362E36873B3FFF704
:10060C008BFE06460C4B1B6A13F0020F37D1FFF71B
:10061C0083FE801B41F288339842F3D90320A6E075
:10062C00052B11D0044B1A6A22F001021A621A6AC5
:10063C0022F004021A62E0E700100240000042427D
:10064C0080044242007000404D4B1A6A42F0040292
:10065C001A621A6A42F001021A62CEE7FFF75CFED8
:10066C000646474B1B6A13F0020F08D0FFF754FEE7
:10067C00801B41F288339842F3D9032077E0E5B927
:10068C00E369002B72D03E4A526802F00C02082A31
:10069C0056D0022B17D03B4B00221A60FFF73CFEC2
:1006AC000446374B1B6813F0007F47D0FFF734FE2E
:1006BC00001B0228F5D9032059E0314AD36923F0F5
:1006CC008053D361DCE72F4B00221A60FFF724FE26
:1006DC0005462B4B1B6813F0007F06D0FFF71CFE62
:1006EC00401B0228F5D9032041E0236AB3F5803F73
:1006FC001AD023494B6823F47413226A606A0243AC
:10070C0013434B601F4B01221A60FFF705FE044692
:10071C001B4B1B6813F0007F0ED1FFF7FDFD001B78
:10072C000228F5D9032022E0154A536823F400333C
:10073C00A1680B435360DCE7002018E0002016E0B2
:10074C00012B16D00E4B5B6803F48031226A914268
:10075C0011D103F47013626A93420ED1002006E0AB
:10076C0001207047012002E0012000E0002002B0CF
:10077C0070BD0120FBE70120F9E70120F7E700BF7E
:10078C00001002406000424286B0164B0FCB0DF1B8
:10079C00180C0CE90F0040F20123ADF80430124B99
:1007AC005B6803F00C02082A02D0104806B07047B0
:1007BC00C3F38342624412F8102C13F4803F0CD024
:1007CC00094B5B68C3F34043634413F8143C07487C
:1007DC0000FB02F0B0FBF3F0E8E7054800FB02F089
:1007EC00E4E700BF580D00080010024000127A0028
:1007FC0000093D00002800F0A08070B50D460446AD
:10080C00524B1B6803F007038B420BD24F4A136801
:10081C0023F007030B431360136803F007038B42A9
:10082C0040F08D80236813F0020F17D013F0040FE3
:10083C0004D0474A536843F4E0635360236813F0D1
:10084C00080F04D0424A536843F460535360404A43
:10085C00536823F0F003A1680B435360236813F033
:10086C00010F31D06368012B20D0022B25D0384AE0
:10087C00126812F0020F64D035494A6822F0030264
:10088C0013434B60FFF748FD0646314B5B6803F0A2
:10089C000C036268B3EB820F16D0FFF73DFD801B93
:1008AC0041F288339842F0D9032045E0284A126877
:1008BC0012F4003FE0D101203EE0254A126812F00C
:1008CC00007FD9D1012037E0204B1B6803F00703D0
:1008DC00AB420AD91D4A136823F007032B4313605C
:1008EC00136803F00703AB422DD1236813F0040FF8
:1008FC0006D0174A536823F4E063E1680B43536056
:10090C00236813F0080F07D0114A536823F460537F
:10091C00216943EAC1035360FFF736FF0C4B5B6858
:10092C00C3F303130B4AD35CD8400B4B18600B4B2F
:10093C001868FFF7ADFC002070BD01207047012046
:10094C00FAE70120F8E70120F6E700BF002002409B
:10095C00001002406C0D000808000020040000206C
:10096C00F0B482B000252C46A3E07F4FBB4210D0E0
:10097C0007D97E4FBB420CD007F58037BB4208D05D
:10098C0013E0A7F58017BB4203D007F57027BB42D5
:10099C0007D18B68002B58D0012B51D04261082510
:1009AC0003E0A7F58017BB42F3D0FF2E4FD8844647
:1009BC00FF2E4FD8A200DCF800300F27974023EA17
:1009CC00070305FA02F21343CCF800304B6813F01E
:1009DC00805F6DD0664B9A6942F001029A619B6907
:1009EC0003F001030193019BA208971C614B53F880
:1009FC00273004F00307BF004FF00F0C0CFA07FC74
:100A0C0023EA0C0C5C4B98422AD003F58063984285
:100A1C0000F08A8003F58063984200F0878003F52C
:100A2C00806398421AD004231BE0CD68BDE7CD68E3
:100A3C000435BAE7CD680835B7E7CD680C35B4E7AF
:100A4C0002610825B1E70025AFE70425ADE700F109
:100A5C00040CADE7A4F108029200ACE7032300E01C
:100A6C000023BB4043EA0C030232424F47F82230CA
:100A7C004B6813F4803F5BD0404A136833431360D8
:100A8C004B6813F4003F59D03C4A536833435360CE
:100A9C004B6813F4801F57D0384A936833439360E4
:100AAC004B6813F4001F55D0344AD3681E43D660EC
:100ABC0001340B6833FA04F252D00122A24003EA4B
:100ACC00020632EA0303F3D14B68122B3FF64DAF0B
:100ADC00122B3FF66AAF01A757F823F09F090008C5
:100AEC00370A0008410A0008530A0008B709000831
:100AFC00B7090008B7090008B7090008B7090008CA
:100B0C00B7090008B7090008B7090008B7090008B9
:100B1C00B7090008B7090008B7090008B7090008A9
:100B2C003B0A0008470A000801239AE7022398E7CA
:100B3C00124A136823EA06031360A1E70F4A5368AD
:100B4C0023EA06035360A3E70C4A936823EA0603DF
:100B5C009360A5E7094AD36823EA0606D660A7E79F
:100B6C0002B0F0BC704700BF000022100000311032
:100B7C000010024000000140000801400004014048
:100B8C000AB101617047090401617047C3680B42E7
:100B9C0001D041617047016170470000074AD3687A
:100BAC0023F4E0631B041B0C000200F4E06003431D
:100BBC0043F0BF6343F40033D360704700ED00E0B3
:100BCC0030B4174BDB68C3F30223C3F10704042CC6
:100BDC0028BF04241D1D062D18D9033B4FF0FF35EB
:100BEC0005FA04F421EA0401994005FA03F322EA18
:100BFC000303194300280BDB0901C9B200F1604063
:100C0C0000F5614080F8001330BC70470023E5E725
:100C1C0000F00F000901C9B2024B1954F4E700BFF0
:100C2C0000ED00E014ED00E00138B0F1807F0AD255
:100C3C00064B5860064AF02182F823100020986079
:100C4C0007221A6070470120704700BF10E000E0D7
:100C5C0000ED00E00F4B1A6842F001021A6059686F
:100C6C000D4A0A405A601A6822F0847222F48032CB
:100C7C001A601A6822F480221A605A6822F4FE0262
:100C8C005A604FF41F029A60044B4FF000629A6056
:100C9C00704700BF001002400000FFF800ED00E0BC
:100CAC00002103E00B4B5B58435004310A480B4BBB
:100CBC0042189A42F6D30A4A02E0002342F8043B57
:100CCC00084B9A42F9D3FFF7C5FF00F00FF8FFF776
:100CDC009DFA7047840D0008000000200C000020D5
:100CEC000C0000202C000020FEE7000070B5002650
:100CFC000C4D0D4C641BA410A64209D100F01AF83F
:100D0C0000260A4D0A4C641BA410A64205D170BDE6
:100D1C0055F8043B98470136EEE755F8043B9847E5
:100D2C000136F2E77C0D00087C0D00087C0D0008F4
:100D3C00800D0008F8B500BFF8BC08BC9E46704793
:0C0D4C00F8B500BFF8BC08BC9E4670471C
:100D580002030405060708090A0B0C0D0E0F1010F4
:100D68000000000000000000000000000102030471
:040D78000607080959
:040D7C003101000839
:040D80000D01000859
:0C0D840001000000100000000024F4003A
:0400000508000CAD36
:00000001FF
